:020000040800F2
:10000000A8070020B5010008791C00085118000855
:10001000751C0008710200088D1C0008000000001B
:10002000000000000000000000000000811C00082B
:1000300075020008000000007D1C0008851C0008F7
:10004000CF010008CF010008CF010008CF01000850
:10005000CF010008CF010008CF010008CF01000840
:10006000CF010008CF010008CF010008CF01000830
:10007000CF010008CF010008CF010008CF01000820
:10008000CF010008CF010008CF010008CF01000810
:10009000CF010008CF010008CF010008CF01000800
:1000A000CF010008CF010008CF010008CF010008F0
:1000B000CF010008CF010008CF010008CF010008E0
:1000C000CF010008CF010008CF010008CF010008D0
:1000D000CF010008CF010008CF010008CF010008C0
:1000E000CF010008CF010008CF01000800F002F89E
:1000F00000F050F814A696E8000CB244B344DA4578
:1001000001D100F047F8BAE80F000FA696E83000DA
:10011000A5EB040504EB0607AAEB0704A7F101070A
:100120004FEA15154FEA3414A4F10104AC4201D38F
:1001300000F030F813F0010F18BFFB1A43F0010371
:1001400000F001F8DBE71847081C0000281C00003D
:10015000103A24BF78C878C1FAD8520724BF30C8F3
:1001600030C144BF04680C60704700007047000055
:100170000023002400250026103A28BF78C1FBD8B0
:10018000520728BF30C148BF0B6070471FB51FBD65
:1001900010B510BD00F031F81146FFF7F7FF01F080
:1001A00077FD00F04FF803B4FFF7F2FF03BC00F057
:1001B00057F800000948804709480047FEE7FEE776
:1001C000FEE7FEE7FEE7FEE7FEE7FEE7FEE7FEE707
:1001D00004480549054A064B70470000891C000881
:1001E000ED000008A8010020A8070020A8030020B7
:1001F000A8030020704770477047754600F02CF840
:10020000AE4605006946534620F00700854618B003
:1002100020B5FFF7DDFFBDE820404FF000064FF0AE
:1002200000074FF000084FF0000BAC46ACE8C009E7
:10023000ACE8C009ACE8C009ACE8C00921F007018E
:100240008D46704710B50446AFF300802046BDE8E8
:100250001040FFF7A8BF00000048704710000020C2
:1002600001491820ABBEFEE72600020070470000DF
:10027000FEE7000070470000EFF3108072B600BF89
:10028000FEE7000010B581B00022009290F8242013
:10029000012A03D10221084601B010BD4B6801229A
:1002A000062B80F8242033D8D0F800C003EB83035A
:1002B0005A1F1F23DCF834E003FA02F40B682EEA1D
:1002C000040403FA02F22243CCF83420092B03EB96
:1002D000430249D9DCF80CE01E3A072489689440AF
:1002E0002EEA0404914023F001022143102ACCF8A5
:1002F0000C1043D142F20841C4F20101A1F10802FD
:10030000944543D0816A41F020018162012136E0A9
:10031000D0F800C00C2B03EB830213D8233A1F2321
:10032000DCF830E003FA02F40B682EEA040403FA66
:1003300002F22243CCF83020092B03EB4302C9D848
:1003400012E000BF413A1F23DCF82CE003FA02F46C
:100350000B682EEA040403FA02F22243CCF82C20A4
:10036000092B03EB4302B5D8DCF810300724896869
:100370009440A34391401943CCF81010002100226F
:1003800080F82420084601B010BD00BF0A681202A0
:10039000F4D40A68102B42F400020A60EED140F255
:1003A0000801C2F2000109684DF68362C4F21B32F3
:1003B000A1FB0212910C01EB81014900009100990F
:1003C0000029DBD000990139009100990029D5D08E
:1003D00000990139009100990029CFD00099013985
:1003E000009100990029C9D0009901390091009924
:1003F00000294FF00001E5D1C1E70000002804BF4B
:1004000001207047B0B50446806A28B12168886829
:10041000C0070CD115E000BF0020E06284F8240082
:10042000204600F097F821688868C00709D08868DE
:1004300020F00100886000F09BFA21688A68D207EA
:1004400026D1A06AC0063AD4A06A41F202129043B3
:100450000230A062E069D4E9013240EA030C531E85
:10046000B3FA83F35D091346B2F5807F18BF2B0200
:10047000207D257B01284CEA45002CD135B3A56AA7
:1004800045F02005A562E56A45F00105E56222E038
:10049000054602E08868C007D3D000F069FA401B27
:1004A00021680328F6D38868C007F3D0A06A40F01B
:1004B0001000A062E06A40F00100E062A06AA06A59
:1004C00040F01000A0620120B0BD00BFA56903EBA1
:1004D0004533A3F5C0534D68B2F5807F25F46945D7
:1004E00043EA05034B608B684FF2FD75CFF6E1756B
:1004F00003EA050343EA00038B6001D0012A07D118
:1005000022690023CFF6F07303EB025201E000BF33
:100510000022CB6A23F470031A43CA62896840F64A
:10052000FE62CFF61F721140814207D10020E062C7
:10053000A16A012262F30101A162B0BDA06A40F08C
:10054000100020F00200A062E06A40F00100E062CA
:100550000120B0BD70B586B040F60004C4F20104BD
:10056000006804F5E05188424FF00000CDE9040036
:10057000CDE9020002D006B070BD00BF41F2180004
:10058000C4F20200016802AD41F40071016001682B
:10059000032601F4007101910199016841F0040101
:1005A0000160016801F0040101910199016841F0C5
:1005B000080101600068294600F0080001900198D8
:1005C000302002902046039600F0C4F804F58060C5
:1005D0002946CDE9026600F0BDF806B070BD000006
:1005E000002804BF01207047B0B5044690F82000F1
:1005F00010B9204600F06EF82068016841F0010152
:10060000016000F0B5F9054620684168C90705D1C9
:1006100000F0AEF9401B0B28F6D310E0016821F082
:100620000201016000F0A4F9054600BF206841689E
:1006300089070DD500F09CF9401B0B28F6D3606AA2
:10064000052140F400306062012084F82010B0BD24
:10065000217E0268012922F0800208BF80320260F8
:10066000617E0268012922F0400208BF4032026028
:10067000A17E0268012922F0200208BF2032026018
:10068000E17E0268012922F0100218BF10320260D8
:10069000217F0268012922F0080208BF08320260A7
:1006A000617F0268012922F0040208BF043202605F
:1006B000D4E901C2D4E9033561691A432A431143DD
:1006C000ACF101021143C16100200121606284F894
:1006D0002010B0BDB0B586B040F60004C4F20104ED
:1006E0000068A4F52442002190420591CDE9031150
:1006F000029101D006B0B0BD41F21800C4F2020070
:10070000426802AD42F000724260426802F000723C
:100710000192019A026842F004020260006800F04F
:100720000400019001984FF40060CDE902010491AA
:100730002046294600F00EF84FF480500290022027
:100740000390032005902046294600F003F806B0E8
:10075000B0BD00002DE9F04F82B00E68002E00F011
:10076000FD8041F20042C4F20102042340F2004E37
:10077000904208BF03234FF6FF7CC4F2010E0093A2
:1007800000240123C1F2100C4FF0000A4FF00009C1
:100790004BE000BF41F20002C4F20102009F904210
:1007A00008BF022704F00C030F229A402BEA020232
:1007B00007FA03F34FEA9A051A4346F825204E68D4
:1007C00040F20C45F202DEF8082054BF22EA08028B
:1007D00042EA0802C4F20105CEF808202A68B302F2
:1007E00054BF22EA080242EA08022A60B303DEF894
:1007F000042054BF22EA080242EA0802F303CEF8BA
:100800000420DEF800204FF0010354BF22EA080262
:1008100042EA0802CEF800200E680AF1010A36FA10
:100820000AF204F1040400F0998003FA0AFB16EAC4
:100830000B08F1D04E68664512DC122E56D8DFE860
:1008400006F0350B4D49555555555555555555558A
:1008500055555545510000BFD1F80C9046E000BFFA
:100860004FF6FF72C1F2210296420FDC0022C1F264
:10087000110296421AD00022C1F21202964215D0FD
:100880000022C1F22102964210D02FE00022C1F2D4
:10089000220296420AD00022C1F23102964205D0CD
:1008A0000022C1F23202964220D100BF8A684AB1CA
:1008B000012A14BFC0F814B0C0F810B04FF00809F6
:1008C00014E000BF4FF0040910E000BFCA6802F155
:1008D00004090BE04FF0000908E000BFCA6802F10C
:1008E000080903E0CA6802F10C0900BF0246264667
:1008F000B8F5807F24BF0432203E17680F25B5402D
:1009000027EA050509FA06F635431560CA79D206C5
:100910007FF582AF41F21803C4F202031A68AEF504
:100920007E7642F001021A601A6802F0010201921A
:10093000019A2AF0030256F802B040F60002C4F20F
:100940000102904208D040F60042C4F201029042F7
:100950007FF420AF012725E7002723E702B0BDE899
:10096000F08F0000002A08BF0904016170470000F1
:1009700040F2A010C2F200000068704740F2000090
:1009800040F2A011C2F20000C2F2000100780A6831
:10099000104408607047000080B542F20000C4F2C5
:1009A0000200016841F010010160032000F07AF8B4
:1009B0000F2000F005F800F027F8002080BD0000AF
:1009C00070B540F20006C2F2000640F2080132782B
:1009D000C2F200014FF47A730968B3FBF2F20446E5
:1009E000B1FBF2F1084600F0CDFB0F2C4FF00105F2
:1009F00008D838B94FF0FF3021460022002500F01A
:100A000025F87460284670BD82B041F21800C4F227
:100A100002000168042241F001010160016801F057
:100A2000010101910199416841F0805141604068A4
:100A300000F08050009000980420C4F2010001688A
:100A400062F31A61016002B07047000010B54EF603
:100A50000C5CCEF2000CDCF80030C3F3022E8EF0FA
:100A60000704042C28BF0424BEF103034FF0FF3E0B
:100A70000EFA04F438BF0023A14399400EFA03F3A1
:100A80009A43114300F00F0200F160430901043A58
:100A900003F564436244002848BF02F10C03197057
:100AA00010BD00004EF60C51CEF200010A684FF660
:100AB000FF031A4060F30A2242F0806040F0FD70AC
:100AC000086070472DE9F04182B00446007841F299
:100AD0001C06C007C4F202064AD030685FEAC008AC
:100AE00008D4306840F080503060306800F08050AA
:100AF0000190019847F20007C4F200073868C0056A
:100B000012D4386840F480703860FFF731FF054632
:100B10003868C00508D4FFF72BFF401B6428F7D9BD
:100B2000032002B0BDE8F081706810F4407012D06C
:100B3000616801F4407188420DD0706840F2404213
:100B4000C4F24222012320F4407113600023C00745
:100B50001360716026D17068616820F440700843AA
:100B6000B8F1000F706003D4306820F0805030601E
:100B70002068810707D556F8181CA26821F4404167
:100B8000114346F8181CC00607D556F8180CE16842
:100B900020F48000084346F8180C002002B0BDE89D
:100BA000F08100BFFFF7E4FE054641F2883700BF41
:100BB00070688007CFD4FFF7DBFE401BB8424FF0D0
:100BC0000300F5D9EAE70000002804BF01207047C0
:100BD0002DE9F04381B042F20008C4F20208044655
:100BE000D8F800000D4600F0070088420CD2D8F873
:100BF000000020F007002843C8F80000D8F80000E3
:100C000000F00700A8426CD1206841F20409810776
:100C1000C4F2020917D5410705D5D9F8001041F4EF
:100C2000E061C9F80010010705D5D9F8001041F4BA
:100C30006051C9F80010D9F80010A26821F0F00145
:100C40001143C9F80010C00742D1D8F8000000F0E5
:100C50000700A8420CD9D8F8000020F0070028436C
:100C6000C8F80000D8F8000000F00700A84238D10A
:100C70002068410707D5D9F80010E26821F4E06147
:100C80001143C9F80010000708D5D9F80000216900
:100C900020F4605040EAC100C9F80000D9F80020F3
:100CA00002F00C00082841F20020C0F27A004DD179
:100CB00041F64053C2F38341C0F60003595CD203AE
:100CC00038D440F60010C0F23D0048433EE000BF7B
:100CD000606859F8041C022808D0012826D189032D
:100CE00006D4012001B0BDE8F08300BF8901F8D52A
:100CF000D9F8001021F003010843C9F80000FFF7FC
:100D000037FE064641F28837D9F80000616800F0E6
:100D10000C00B0EB810F98D0FFF72AFE801BB84281
:100D2000F2D9032001B0BDE8F08300BF8907D8D510
:100D3000DEE700BFD9F8002041F63E53C2F340423F
:100D4000C0F600039A5C4843B0FBF2F0D9F80010FB
:100D500041F62E52C1F30311C0F60002515C40F27D
:100D6000080220FA01F140F20400C2F2000000681B
:100D7000C2F200021160FFF723FE002001B0BDE8BF
:100D8000F0830000002804BF012070472DE9F041E6
:100D900082B00446007841F20006C007C4F20206A1
:100DA0000CD0706800F00C00042840F0818030689E
:100DB000800303D56068002800F046812078800712
:100DC0001BD5706810F00C0F09D0706800F00C0093
:100DD000082840F087807068C00300F18380306885
:100DE000800703D52069012840F02E8130686169B1
:100DF00020F0F80040EAC10030602078000713D4EA
:100E0000207840072CD4E569002D00F01881706827
:100E100000F00C00082840F0A780012D40F004816C
:100E2000012002B0BDE8F081A069002800F08480B4
:100E30000020C4F242200121C0F88014FFF798FD81
:100E4000054600BF706A800700F1B280FFF790FD91
:100E5000401B0228F6D9032002B0BDE8F08100BF94
:100E6000F0695FEAC00808D4F06940F08050F06192
:100E7000F06900F080500090009847F20007C4F23B
:100E800000073868C00549D4386840F4807038607D
:100E9000FFF76EFD054600BF3868C0053ED4FFF77A
:100EA00067FD401B6428F7D9032002B0BDE8F0813C
:100EB000706800F00C00082803D17068C0033FF58B
:100EC00076AF61683068002900F00C81B1F5A02F81
:100ED00000F00081B1F5803F40F01A8140F480308D
:100EE0001CE100BF2069002840F20000C4F242204B
:100EF00000F0888001210160FFF73AFD054600BF40
:100F0000306880073FF572AFFFF732FD401B0228C3
:100F1000F6D9032002B0BDE8F08100BFE168306A75
:100F2000002900F09D80052900F09280012940F001
:100F3000AF8040F00100B1E00020C4F24220002167
:100F4000C0F88014FFF714FD054600BF706A8007E3
:100F50007FF556AFFFF70CFD401B0228F6D90320A2
:100F600002B0BDE8F08100BF0027C4F24227002094
:100F70003866FFF7FDFC022D05460DD13068800173
:100F800040F1DE80FFF7F4FC401B02284FF0030025
:100F9000F4D902B0BDE8F081306880014FD5FFF789
:100FA000E7FC401B02284FF00300F5D9F1E700BF32
:100FB00040F20800C2F20000006844F6D351C1F2CA
:100FC0006201A0FB0101480A019000BF00BF019827
:100FD000411E002801913FF413AF00BF0198411E4C
:100FE000002801913FF40CAF00BF0198411E00287A
:100FF00001913FF405AF00BF0198411E0028019107
:10100000E4D1FDE600210160FFF7B2FC054600BF18
:10101000306880077FF5F1AEFFF7AAFC401B02287D
:101020004FF00300F4D9B4E77068216A00F480320D
:101030008A4209D1616A00F47010884204D100200C
:1010400002B0BDE8F08100BF012002B0BDE8F08130
:1010500040F004003062306A40F001001EE000BF42
:1010600020F001003062306A20F004003062FFF7A7
:101070007FFC054641F28837306A800720D5FFF7AC
:1010800077FC401BB8424FF00300F5D981E700BF61
:1010900020F001003062306A20F004003062FFF777
:1010A00067FC054641F28837306A800708D4FFF7AD
:1010B0005FFC401BB842F7D9032002B0BDE8F081C5
:1010C000B8F1000F3FF59FAEF06920F08050F0615D
:1010D00099E600BF40F480203060306840F48030F2
:1010E0001CE000BF20F480303060306820F48020A5
:1010F0003060FFF73DFC0546306880037FF55EAE4B
:10110000FFF736FC401B64284FF00300F4D940E79A
:1011100020F480303060306820F480203060FFF7A9
:1011200027FC0546306880033FF548AEFFF720FCFA
:10113000401B6428F6D9032002B0BDE8F08100BF4F
:10114000206AB0F5803F05D17168A26821F40031B2
:10115000114371607168626A21F47411114308438C
:10116000706001203866FFF703FC04463068800198
:101170003FF565AFFFF7FCFB001B02284FF00300B3
:10118000F4D906E7411E0020B0EB116F1CBF01200F
:1011900070474EF21002CEF2000251604EF623511B
:1011A000CEF20001F0230B700721906011607047B0
:1011B00090F83C20012A4FF0020236D010B580F89A
:1011C0003D200268D2F804E0D2F808C00C682EF086
:1011D0007003234340F2FF74C4F20004A242536040
:1011E0000ADCB2F1804F13D040F20043C4F2000396
:1011F0009A420DD011E000BF42F60043C4F2010351
:101200009A4205D040F60003C4F200039A4204D18A
:1012100049682CF08003194391600121002280F875
:101220003D1080F83C20BDE810401046704700009B
:10123000002804BF0120704710B590F83D1031B967
:10124000002180F83C10044600F070F8204602218E
:1012500080F83D10016840F2FF740B68C4F200048E
:1012600042F6004CA142C4F2010C15DCB1F1804FF2
:101270001AD040F20042C4F20002914214D0A142BE
:1012800018DCB1F1804F1DD040F20042C4F20002E0
:10129000914217D01AE000BF614505D040F6000228
:1012A000C4F200029142EAD1826823F07003134332
:1012B000A142E6DD614505D040F60002C4F200021D
:1012C000914203D1026923F440731343846923F0EC
:1012D0008002D0F804E0C368224361450A60CB6213
:1012E000C1F828E002D14269CCF8302001224A61DD
:1012F0000B69DB0703D00B6923F001030B6180F856
:10130000462080F83E2080F83F2080F8402080F87A
:10131000412080F8422080F8432080F8442080F863
:10132000452080F83D20002010BD0000006842F6F6
:101330000041C4F20101884218BF704781B041F2F8
:101340001800C4F20200016841F400610160006805
:1013500000F400600090009801B0704790F83C20C5
:10136000012A4FF002026CD080B580F83D20D0F801
:1013700000C04FF67772DCF8083023EA0202CCF89E
:1013800008200B684F2B29DC1F2B45DD202B46D076
:10139000302B44D0402B40F0AF80D1F804E0C96836
:1013A000DCF82030DCF8202022F00102CCF82020EC
:1013B000DCF8182022F0F00242EA011123F00A02C0
:1013C00042EA0E02CCF81810CCF82020DCF8081005
:1013D00041F0470121F0300128E000BF6F2B33DDE1
:1013E000B3F5005F74D0B3F5805F21D0702B40F06F
:1013F0008380D1E901E3C968DCF8082043EA0E03E1
:1014000022F47F4243EA01211143CCF80810DCF8B2
:10141000081041F0770109E00BB1102B6CD1DCF81A
:10142000081021F07001194341F00701CCF80810B1
:101430000022012180F83D10002180F83C10BDE819
:1014400080401046704700BF502B21D0602B53D1F5
:10145000D1F804E0C968DCF82030DCF8202022F064
:101460001002CCF82020DCF8182022F4704242EA66
:10147000013123F0A00242EA0E12CCF81810CCF889
:101480002020DCF8081041F0670121F01001CDE7C1
:10149000D1F804E0C968DCF82030DCF8202022F024
:1014A0000102CCF82020DCF8182022F0F00242EAF9
:1014B000011123F00A0242EA0E02CCF81810CCF80F
:1014C0002020DCF8081041F0570121F02001ADE7A1
:1014D000D1E901E3C968DCF8082043EA0E0322F4ED
:1014E0007F4243EA01211143CCF80810DCF80810D0
:1014F00041F480419AE700BF01229AE790F83C301E
:10150000012B04BF022070474FEAB202032A00F207
:10151000F1802DE9F043DFE802F003A53B7500BF41
:10152000036842F600461D6A1A6AC4F2010622F0F8
:1015300001021A621A465C6852F818CFB3428E68EC
:10154000D1F800E025F0020545EA06050CD1CE6889
:10155000D1E9057824F4407425F00C0526F0040642
:101560003C43354344EA08042CF0730747EA0E076E
:101570005C609F614F6809695F631D629F6947F006
:1015800008079F619F6927F004079F61A6E000BFDD
:10159000036842F600461D6A1A6AC4F2010622F484
:1015A00080721A621A46D3F804C052F81CEFB34294
:1015B0008E680C6825F4007545EA06250FD1CE68C3
:1015C000D1E90598360240F2FF4725F44065BE4355
:1015D00035432CF4405748EA090647EA061C2EF02A
:1015E00073072743C3F804C0DF614F680969DF63ED
:1015F0001D62DF6947F00807DF61DF6927F0040734
:10160000DF616BE0036842F60047D3F820C01A6A36
:10161000C4F2010722F480521A621A465C6852F83A
:101620001C5FD1F800E08E68BB4204D14F6924F4FE
:10163000804444EA87142CF4005747EA063725F41F
:10164000E64646EA0E265C60DE614E6809691E6465
:101650001F62DF6947F40067DF61DF6927F4806795
:10166000DF613AE0036842F600461D6A1A6AC4F276
:10167000010622F010021A621A46D3F804C052F88A
:10168000184FB3428E68D1F800E025F0200545EAF6
:1016900006150FD1CE68D1E905986FF0400725F007
:1016A000C00507EA061635432CF4406748EA0906E8
:1016B00047EA860C24F4E64444EA0E27C3F804C043
:1016C0009F614F6809699F631D629F6947F40067C6
:1016D0009F619F6927F480679F610902136819431E
:1016E00011600021BDE8F043002280F83C2008464C
:1016F000704700BF0121002280F83C200846704757
:10170000002804BF0120704710B590F83D1031B992
:10171000002180F83C10044600F070F820460221B9
:1017200080F83D10016840F2FF740B68C4F20004B9
:1017300042F6004CA142C4F2010C15DCB1F1804F1D
:101740001AD040F20042C4F20002914214D0A142E9
:1017500018DCB1F1804F1DD040F20042C4F200020B
:10176000914217D01AE000BF614505D040F6000253
:10177000C4F200029142EAD1826823F0700313435D
:10178000A142E6DD614505D040F60002C4F2000248
:10179000914203D1026923F440731343846923F017
:1017A0008002D0F804E0C368224361450A60CB623E
:1017B000C1F828E002D14269CCF8302001224A6108
:1017C0000B69DB0703D00B6923F001030B6180F881
:1017D000462080F83E2080F83F2080F8402080F8A6
:1017E000412080F8422080F8432080F8442080F88F
:1017F000452080F83D20002010BD000082B0006828
:1018000040F20041C4F20001884211D0B0F1804F93
:101810001BD141F21C00C4F20200016841F0010139
:101820000160006800F001000190019802B070476B
:1018300041F21C00C4F20200016841F002010160A3
:10184000006800F002000090009802B070470000AD
:10185000FEE70000B0B584B040F2700042F20041F3
:10186000C2F20000C4F2010100244FF460220125FD
:1018700004730475C261C0E9001484600561FEF759
:10188000BDFD002818BFFEF7F7FC0820CDE90105D3
:1018900040F27000C2F2000001A90394FEF7F2FCCE
:1018A000002818BFFEF7E8FC04B0B0BD80B540F2D8
:1018B000A00046F20041C2F20000C4F20001002381
:1018C000102280E80E00C0E90333C0E905338383AA
:1018D000FEF786FE002808BF80BDBDE88040FEF709
:1018E000CBBC00002DE9F04385B0002741F2180081
:1018F000CDE90377CDE90177C4F20200016840F633
:10190000004441F0200101600168C4F2010401F0CB
:101910002001009100990168002241F0040101605A
:1019200001684FF4905801F004010091009901689A
:1019300041F00801016000684FF4905100F0080088
:10194000009000982046FFF70DF84FF44C6001908E
:10195000122001AD02904FF0030920462946CDF830
:101960001090FEF7F7FE0120CDE90207022620467F
:101970002946CDF804800496FEF7ECFE4FF4604053
:10198000CDE9010620462946CDF81090FEF7E2FE8B
:101990004FF40070CDE90106A4F580663046294673
:1019A000CDF81090FEF7D6FE4FF48060CDE9010728
:1019B000304629460397FEF7CDFE3820CDE90107D2
:1019C000204629460397FEF7C5FE05B0BDE8F08323
:1019D00080B586B040F2C80042F600420021C2F253
:1019E0000000C4F201024FF6FF730591CDE9031127
:1019F000CDE90011C0E90021C0E90213C0E90411DA
:101A00008161FFF715FC002818BFFEF735FC4FF485
:101A10008050029040F2C800C2F2000002A9FFF715
:101A20009DFC002818BFFEF727FC40F2C800C2F258
:101A300000006946FFF7BCFB002818BFFEF71CFC3E
:101A400006B080BD10B590B040F210100021C2F277
:101A500000004FF080424FF6FF73CDE90811CDE949
:101A60000611CDE90411C0E90021C0E902130161AA
:101A70008161FFF745FE002818BFFEF7FDFB40F22D
:101A80001010C2F2000008A9FFF792FB002818BF4F
:101A9000FEF7F2FB602001900020CDE902000590E6
:101AA00040F21010C2F2000001A90022FFF726FD4B
:101AB000002818BFFEF7E0FB40F21010C2F2000051
:101AC00001A90422FFF71AFD002818BFFEF7D4FB76
:101AD00040F21010C2F2000001A90822FFF70EFD2B
:101AE000002818BFFEF7C8FB40F21014C2F2000431
:101AF00001A920460C22FFF701FD002818BFFEF7C0
:101B0000BBFB206840F20041C4F2000188424FF064
:101B10000001CDE90E11CDE90C1111D0B0F1804FCB
:101B200027D141F21800C4F20200016841F004011B
:101B30000160006800F004000B900B980F200DE08E
:101B400041F21800C4F20200016841F00401016092
:101B5000006800F004000B900B98C0200C9002204D
:101B60000D900F9040F60000C4F201000CA9FEF7A2
:101B7000F1FD10B010BD0000B0B590B040F20045CE
:101B800040F25810C4F200050021C2F200004FF6E6
:101B9000FF72CDE90811CDE90611CDE90411C0E9C4
:101BA0000051C0E9021201618161FFF7A9FD00281F
:101BB00018BFFEF761FB40F25810C2F2000008A9FE
:101BC000FFF7F6FA002818BFFEF756FB60200190D9
:101BD0000020CDE90200059040F25810C2F200004A
:101BE00001A90022FFF78AFC002818BFFEF744FB7A
:101BF00040F25814C2F2000401A920460422FFF763
:101C00007DFC002818BFFEF737FB20680021A842A2
:101C1000CDE90E110D910C9112D0B0F1804F26D16B
:101C200041F21800C4F20200016841F004010160B1
:101C3000006800F004000B900B980F200EE000BF2E
:101C400041F21800C4F20200016841F00401016091
:101C5000006800F004000B900B98C0200C9002204C
:101C60000D900F9005F582300CA9FEF773FD10B0B2
:101C7000B0BD0000FEE70000FEE700007047000076
:101C800070470000FEF77ABE70470000FEE70000D4
:101C900094B0FEF781FE00240120CDE90F44CDE988
:101CA0000D440A900E904FF4E0104FF4803102255D
:101CB00013900AA80494CDE90244CDE90B14CDE9B0
:101CC0001151FFF75FF828B1EFF3108072B600BF33
:101CD000FEE700BF0F20CDE905054FF48060CDE998
:101CE000080405A802210794FEF76EFF20B1EFF368
:101CF000108072B6FEE700BF022001904FF4004052
:101D0000039001A8FEF7DEFE20B1EFF3108072B65B
:101D1000FEE700BFFFF7E6FDFFF79CFDFFF7C6FDFE
:101D2000FFF756FEFFF78EFEFFF726FFFEE70000E7
:101D30000000000000000102030406070809010278
:101D400002030405060708090A0B0C0D0E0F1010FC
:101D5000701D000800000020100000005001000865
:101D6000801D000810000020980700007001000886
:101D7000010000001000000000127A0000000000C6
:04000005080000ED02
:00000001FF
