:020000040800F2
:10000000F0180020210200082D240008CD1E000851
:10001000A9220008FD0400087B2900080000000058
:10002000000000000000000000000000890100083E
:10003000FF04000800000000CD0100080D250008A5
:100040003B0200083B0200083B0200083B0200089C
:100050003B0200083B0200083B0200083B0200088C
:100060003B0200083B0200083B0200083B0200087C
:100070003B0200083B0200083B0200083B0200086C
:100080003B0200083B0200083B0200083B0200085C
:100090003B0200083B0200083B0200083B0200084C
:1000A0003B0200083B0200083B0200083B0200083C
:1000B0003B0200083B020008B52500083B0200088F
:1000C0003B0200083B0200083B0200083B0200081C
:1000D0003B0200083B0200083B0200083B0200080C
:1000E0003B0200083B0200083B02000800F002F857
:1000F00000F03AF80AA090E8000C82448344AAF188
:100100000107DA4501D100F02FF8AFF2090EBAE885
:100110000F0013F0010F18BFFB1A43F0010318473B
:100120003437000054370000103A24BF78C878C133
:10013000FAD8520724BF30C830C144BF04680C60ED
:10014000704700000023002400250026103A28BF35
:1001500078C1FBD8520728BF30C148BF0B60704739
:100160001FB51FBD10B510BD00F010F91146FFF707
:10017000F7FF02F01FFC00F042F903B4FFF7F2FFB3
:1001800003BC00F049F90000224B19680868B0E888
:10019000F00F80F30988BFF36F8F4FF0000080F3FA
:1001A00011884EF00D0E70470000000006480068F0
:1001B000006880F3088862B661B6BFF34F8FBFF363
:1001C0006F8F00DF00BF00BF08ED00E0EFF3098094
:1001D000BFF36F8F0F4B1A6820E9F00F106008B55E
:1001E0004FF0500080F31188BFF34F8FBFF36F8F34
:1001F00002F098FF4FF0000080F31188BDE808403E
:1002000019680868B0E8F00F80F30988BFF36F8FB2
:10021000704700BF24000020EFF305807047000006
:100220000948804709480047FEE7FEE7FEE7FEE78A
:10023000FEE7FEE7FEE7FEE7FEE7FEE704480549C6
:10024000054A064B70470000B1250008ED00000884
:10025000F0120020F0180020F0140020F01400200C
:100260000FB4044910B503AA029800F061F810BC5D
:100270005DF814FB0000002010B5203AC0F00B80A0
:10028000B1E81850203AA0E81850B1E81850A0E89A
:100290001850BFF4F5AF5FEA027C24BFB1E81850F4
:1002A000A0E8185044BF18C918C0BDE810405FEA64
:1002B000827C24BF51F8043B40F8043B08BF7047E0
:1002C000D20728BF31F8023B48BF11F8012B28BFE5
:1002D00020F8023B48BF00F8012B70474FF00002A6
:1002E00000B5134694469646203922BFA0E80C502C
:1002F000A0E80C50B1F12001BFF4F7AF090728BF07
:10030000A0E80C5048BF0CC05DF804EB890028BF82
:1003100040F8042B08BF704748BF20F8022B11F0AB
:10032000804F18BF00F8012B704770477047704727
:10033000074B70B50D467B4400F011F80446284683
:1003400000F020F810B14FF0FF3070BD204670BDB6
:100350006326000001694A1C02610878704700B5F5
:100360008FB0CDE901310021059105497944CDE9EE
:1003700003101146684600F02EF80FB000BD0000D3
:10038000E5FFFFFF007B00F080007047754600F03E
:100390003FF8AE4605006946534620F00700854603
:1003A00018B020B5FFF74AFFBDE820404FF0000627
:1003B0004FF000074FF000084FF0000B21F007014D
:1003C000AC46ACE8C009ACE8C009ACE8C009ACE890
:1003D000C0098D4670472DE9F04106460024D6E954
:1003E0000170F5688046304603E04146B847641C1A
:1003F0003046A8470028F8D12046BDE8F08110B566
:100400000446AFF300802046BDE81040FFF7B5BEBC
:10041000004870479012002001491820ABBEFEE74B
:10042000260002007047000070B50446006881682D
:10043000C943C90717D1816821F00101816000F02B
:10044000CFFB05460AE000BF00F0CAFB401B0228B4
:1004500004D920688068C043C00706D0206880683F
:10046000C043C007F0D0002070BDA06A40F010006B
:10047000A062E06A40F00100E062012070BD00006F
:10048000F8B500260446009600688168C943C9078C
:100490002DD0816841F0010181601648164900683D
:1004A000B0FBF1F000E0401E00900028FBD100F00E
:1004B00097FB054616E000BF00F092FB401B0228A8
:1004C00010D920688068C043C0070BD0A06A40F0F4
:1004D0001000A062E06A40F00100E06284F824604D
:1004E0000120F8BD20688068C043C007E4D1002027
:1004F000F8BD00002000002040420F00FEE77047DA
:1005000072B6FEE7F8B500250446009590F8240081
:1005100001280BD0012084F824002046FFF784FF37
:100520002046FFF7ADFF060002D050E00220F8BDE4
:10053000A06A20F4885040F00200A062022000F07F
:100540002FFD25490968B1FBF0F0400000E0401E96
:1005500000900028FBD12068816841F0080181608B
:1005600000F03EFB074608E000F03AFBC01B0A28FB
:1005700003D920688068000715D4206880680007C8
:10058000F2D42068816841F00401816000F028FB0A
:10059000074612E000F024FBC01B0A280DD9206892
:1005A0008068400709D5A06A20F0020040F01000E2
:1005B000A06284F824500120F8BD206880684007BC
:1005C000E8D4A06A20F0020040F00100A06284F8A4
:1005D00024503046F8BD000020000020F8B500246B
:1005E000009490F824202546012A12D0012280F898
:1005F00024204A681F23072A0DD20668776B521EF3
:1006000002EB820293409F430B6893401F43776342
:1006100019E00220F8BD06680D2A0AD2376BD21FF6
:1006200002EB820293409F430B6893401F43376362
:1006300009E0F76A0D3A02EB820293409F430B6890
:1006400093401F43F7620A68072306680A2A0AD301
:10065000F7680A3A02EB420293409F438B6893404B
:100660001F43F76008E0376902EB420293409F4363
:100670008B6893401F4337610A68102A01D0112A02
:1006800020D1124B02689A4217D193681B0219D4E9
:10069000936843F4000393600968102912D10C4950
:1006A0000C4A0968B1FBF2F101EB8101490000E05D
:1006B000491E00910029FBD104E0816A41F020012C
:1006C0008162012480F824502046F8BD00240140B6
:1006D0002000002040420F002DE9F0414FF00007BC
:1006E00004003D467ED0A06A002628B9E66284F860
:1006F0002460204600F07EF82046FFF795FEA16AB0
:10070000C90600D420B1A06A40F01000A06269E0E0
:10071000A16A21F4885141F00201A1626268E16995
:10072000237B0A4347EA43010A43A1684FF48077D9
:10073000B94209D0012907D05FF0000194F814C034
:10074000BCF1010F02D00AE03946F7E7F3B1A36A22
:1007500043F02003A362E36A43F00103E3622368EA
:10076000D3F804C02CF4694C4CEA010CC3F804C063
:1007700021688B68DFF870C003EA0C0313438B60B9
:10078000A168B9420BD0012909D00CE0DFF85CC0A8
:10079000A3690CEB43330B4343F40061DFE7218A89
:1007A0000D05A5F580152168CB6A23F470032B4352
:1007B000CB62216889680E4B1940914208D1E662EC
:1007C000A16A21F0020141F00101A162BDE8F081BE
:1007D000A06A20F0020040F01000A062E06A40F041
:1007E0000100E0620120F1E7FDF7E1FF00E0FFFF1B
:1007F000FE0E1FFF10B586B00021009101910291FD
:10080000039100681549884226D11548816941F451
:1008100000718161816901F400710491816941F085
:1008200004018161816901F004010491816941F051
:10083000080181618069032400F0080004903020E1
:10084000CDE900046946074800F0D4F800946946F1
:100850000548019400F0CEF806B010BD0024014018
:100860000010024000080140000C014070B5040077
:1008700003D094F8200010B104E0012070BD2046A0
:1008800000F082F82068016841F00101016000F089
:10089000A7F90546052604E000F0A2F9401B0A2846
:1008A00011D820684068C007F6D02068016821F0A0
:1008B0000201016000F094F905460BE000F090F9A8
:1008C000401B0A2806D9606A40F40030606284F850
:1008D0002060D2E7206840688007EFD4207E01289E
:1008E000206801683DD021F080010160607E012810
:1008F0002068016838D021F040010160A07E012805
:100900002068016833D021F020010160E07E0128D9
:10091000206801682ED041F010010160207F01287D
:100920002068016829D021F008010160607F01285A
:100930002068016824D021F004010160D4E902019B
:100940000843D4E90412114308436168491E08436F
:100950002168C86100206062012084F82000002026
:1009600070BD41F08001C0E741F04001C5E741F0B2
:100970002001CAE721F01001CFE741F00801D4E7D8
:1009800041F00401D9E7000010B586B000210091C4
:1009900001910291039100681349884222D11348C2
:1009A000C16941F00071C161C16901F00071049138
:1009B000816941F00401816180690D4C00F00400FF
:1009C00004904FF4006000906946204600F012F851
:1009D000A014009002200190032003906946204655
:1009E00000F008F806B010BD00640040001002409E
:1009F000000801402DE9F84FDFF8B8910024A9F173
:100A0000040B23460F2709F1040AABF1040EC9E0D9
:100A10000125A5402A40AA427DD1674ED1F804C0E5
:100A2000ACEB0608B44532D014DCBCF1030F3AD06D
:100A300009DCBCF1000F2AD0BCF1010F1CD0BCF1C5
:100A4000020F31D11DE0BCF1110F17D0BCF1120F14
:100A50002AD119E0B8F5881F19D006DCB8F5803F17
:100A600015D0B8F5801F1FD111E0B8F5001F0ED0CA
:100A7000B8F5041F18D10AE0CB6815E0CB681B1D40
:100A800012E0CB6808330FE0CB680C330CE08B68C6
:100A90002BB1012B4FF0080303D0456104E0042380
:100AA00002E0056100E00023FF2A01D8064601E0CC
:100AB00000F104064FEA840501D9A5F12005D6F816
:100AC000008007FA05FC28EA0C0803FA05F548EA55
:100AD0000508C6F800804D68ED0062D5374DAE6957
:100AE00046F00106AE61AD6924F0030605F001058C
:100AF0000095334D06EB050CDCF80850A607360FC1
:100B000007FA06F825EA0805DFF8B880404503D162
:100B10004FF0000817E044E0DFF8AC80404502D118
:100B20004FF001080FE0DFF8A480404502D14FF0FC
:100B3000020808E0DFF89880404502D14FF0030832
:100B400001E04FF0040808FA06F848EA0508CCF876
:100B500008804D68D9F80060ED024D4601D5164376
:100B600000E096432E604D68DAF80060AD0255460D
:100B700001D5164300E096432E604D68DBF8006017
:100B8000AD035D4601D5164300E096432E604D68E7
:100B9000DEF80060ED03754601D5164300E096438C
:100BA0002E60641C0D682A46E5407FF431AFBDE835
:100BB000F88F0000080401400000111000100240EE
:100BC0000000014000080140000C014000100140FD
:100BD000001401400AB1016170470904FBE70000FD
:100BE00001488068704700001400002070B50400C0
:100BF00025D094F83D00002520B984F83C502046CB
:100C000000F0B8F8242084F83D002068016821F045
:100C1000010101602068016841F400410160206821
:100C2000016821F40041016000F038FB4D4A616821
:100C3000914201D84C4900E04C49884201D2012040
:100C400070BD4B492368B0FBF1F15E6826F03F06AA
:100C50000E435E606368934206D94FF4967359431E
:100C60004FF47A73B1FBF3F12368491C1E6A26F036
:100C70003F06314319626168914210D84900401E15
:100C8000B0FBF1F2521CC2F30B02042A01D2042081
:100C900022E0B0FBF1F0401CC0F30B001CE0A268A6
:100CA000F2B301EBC10303EB0116431EB3FBF6F3F2
:100CB0005B1C43F480431B0549D092B301EBC10296
:100CC00002EB0111401EB0FBF1F0401CC0F30B0021
:100CD00040F4804040F400402168CA694CF6FF733C
:100CE0009A431043C861D4E90710014320680268A1
:100CF00022F0C00211430160D4E9030101432068DE
:100D0000826848F2FF339A4311438160D4E90501B8
:100D100008432168CA6822F0FF021043C86001E05E
:100D20000EE016E02068016841F0010101602564D1
:100D3000202084F83D00256384F83E50002070BDDB
:100D400001EB4106431EB3FBF6F35B1CB3E7012046
:100D5000C2E701EB4101401EB0FBF1F0401CC0F3C3
:100D60000B00B7E7A086010080841E0000093D004B
:100D700040420F0030B585B00021009101910291F1
:100D800003911E4D03681E4C122103221D48AB42E5
:100D900016D1A36943F00803A361A369039203F08A
:100DA00008030493C023CDE900316946FFF722FE12
:100DB000E06940F40010E061E06900F4001019E01F
:100DC000114DAB4217D1A36943F00803A361A36996
:100DD000039203F0080304934FF44063CDE900311C
:100DE0006946FFF707FEE06940F48000E061E069D2
:100DF00000F48000049005B030BD000000540040B5
:100E000000100240000C0140005800400248816878
:100E1000027811448160704714000020074810B523
:100E2000016841F010010160032000F0A7F80F20D5
:100E300000F006F800F050F8002010BD002002403D
:100E400030B505461F4887B0C16941F00401C16152
:100E5000C06906A900F00400009001A800F0FEF9A6
:100E60000498B0B100F01AFA40001749174AB0FBD5
:100E7000F1F11748491E0260416040F2E73200215B
:100E8000C0E903218160816100F0A8FC040003D067
:100E900015E000F003FAE8E70D4800F0E1FC04007B
:100EA0000DD11E2000F03CF8102D07D2002229465B
:100EB0001E2000F043F80748056000E0012407B059
:100EC000204630BD0010024040420F0000080040A4
:100ED00058050020180000200F4808B5816941F02E
:100EE00001018161816901F001010091C16941F055
:100EF0008051C161C069002200F0805000900F2134
:100F0000901E00F01BF80548416821F0E06141F0B7
:100F10000071416008BD0000001002400000014067
:100F2000002809DB00F01F020121914040098000E8
:100F300000F1E020C0F8001170470000F0B40E4B43
:100F40001B680C46C3F30223C3F10705042D00D927
:100F50000425191D072901D2002300E0DB1E01260C
:100F600006FA05F1491E214099409E40761E164022
:100F70003143F0BC01F002BD0CED00E0064900F089
:100F8000070208684FF6FF03184040EA0220034AB0
:100F900010430860704700000CED00E00000FA0507
:100FA00010B501460020234C012922D0022939D056
:100FB00010291DD161682268D20119D51E48C1F3DC
:100FC0008342C903805C0AD561681B4AC1F3404172
:100FD000921E515C194AB2FBF1F1484301E01849F5
:100FE00048436168490203D440000321B0FBF1F09B
:100FF00010BD226AC2F30121012903D1920701D554
:10100000C80310BD022905D1626A920702D549F6CC
:10101000404010BD0329FCD121688903F9D54FF266
:10102000244010BD00F04AF96168C1F38131491CC8
:101030004900DBE7001002402038000800127A0067
:1010400000093D002DE9F84305460078354CC007FE
:1010500054D0E0690026C00008D4E06940F0805018
:10106000E061E069012600F0805000902E480168A0
:10107000C90512D40168804641F480710160FFF710
:10108000AFFD074605E000BFFFF7AAFDC01B6428BF
:1010900023D8D8F80000C005F6D5206A10F44070B7
:1010A00021D0A98801F4407181421CD0206A1F49D7
:1010B000012220F440700A6000220A602062C0070A
:1010C00011D0FFF78DFD074641F2883808E000BFD8
:1010D000FFF786FDC11B414502D90320BDE8F88317
:1010E000206A8007F4D5206A696820F440700843BC
:1010F00020621EB1E06920F08050E061287880070E
:1011000005D56068A96820F44040084360602878ED
:10111000C00605D56068E96820F480000843606077
:101120000020DBE700100240007000404004424213
:101130002DE9F0470F46050061D0434E306800F0BE
:101140000700B84209D2306820F007003843306009
:10115000306800F00700B84251D128683B4C810745
:1011600012D5400703D5606840F4E06060602878DD
:10117000000703D5606840F4605060606068A9684B
:1011800020F0F000084360602878C00728D0686825
:10119000012810D02168022810D0890700292EDAF2
:1011A000616821F0030101436160FFF719FD80468A
:1011B00041F288390DE021688903EFE78901EDE705
:1011C000FFF70EFDA0EB0801494502D90320BDE859
:1011D000F0876068696800F00C00B0EB810FEFD118
:1011E000306800F00700B8420BD9306820F00700E3
:1011F00038433060306800F00700B84201D0012069
:10120000E5E72878400705D56068E96820F4E060E4
:10121000084360602878000706D56068296920F4D3
:10122000605040EAC100606000F058F86168084A08
:10123000C1F30311515CC8400649086006480068C4
:10124000FFF7FEFD0020C2E7002002400010024030
:101250003038000820000020180000200F22026013
:101260000C4A536803F003034360536803F0F00330
:101270008360536803F4E063C36052684FF4E06333
:1012800003EAD20202610448006800F00700086027
:101290007047000000100240002002400448054949
:1012A00000684968044AC1F30221515CC840704794
:1012B0002000002000100240403800080448054982
:1012C00000684968044AC1F3C221515CC8407047B4
:1012D0002000002000100240403800080E4A5168EB
:1012E0000E4801F00C03042B11D0082B0FD10C4831
:1012F000C1F38343C903C05C0AD55168084AC1F3EE
:101300004041921E515C054A5043B0FBF1F07047DA
:1013100004494843704700000010024000127A0060
:101320000E38000800093D002DE9F84F040070D088
:101330002078C04DC00749D06868C0F381000128FB
:1013400007D06868C0F38100022809D16868C0032B
:1013500006D52868800339D560680028E7D035E0D5
:101360006068B0F5803F0BD010B1B0F5A02F11D060
:10137000286820F480302860286820F4802002E06B
:10138000286840F480302860606890B1FFF728FC3E
:1013900006460AE0286840F480202860F0E700BF95
:1013A000FFF71EFC801B642873D828688003F7D5DC
:1013B0000CE0FFF715FC064605E000BFFFF710FC48
:1013C000801B6428F0D828688003F7D420789A4ED0
:1013D00080074FF001094FF0000839D5686810F018
:1013E0000C0F07D06868C0F38100022809D1686833
:1013F000C00306D42868800714D52069012808D1C5
:1014000010E02069B0B1C6F80090FFF7E9FB07468D
:1014100005E00AE1FFF7E4FBC01B0228C4D82868F6
:101420008007F7D52868616920F0F80040EAC1001C
:1014300028600DE0C6F80080FFF7D2FB074604E005
:10144000FFF7CEFBC01B022823D828688007F7D4FB
:10145000207800072CD57948A169D9B1C0F800904F
:10146000FFF7BEFB074604E0FFF7BAFBC01B0228EC
:101470000FD8686A8007F7D571484FF4FA510068B1
:10148000B0FBF1F0009000BF0098411E0091FAD22D
:101490000EE080E0C0F80080FFF7A2FB074604E002
:1014A000FFF79EFBC01B022875D8686A8007F7D437
:1014B0002078400760D5E8690027C00008D4E869B3
:1014C00040F08050E861E869012700F0805000900A
:1014D0005C480168C90513D40168834641F48071F2
:1014E0000160FFF77DFB824606E000BFFFF778FB57
:1014F000A0EB0A0064284ED8DBF80000C005F5D543
:10150000E06801280AD008B1052813D0286A20F025
:1015100001002862286A20F0040002E0286A40F0F6
:1015200001002862E06841F2883B98B1FFF758FB60
:1015300082460BE0286A40F004002862EEE700BF14
:10154000FFF74EFBA0EB0A0159455AD8286A8007DD
:10155000F6D50CE0FFF744FB824605E0FFF740FBC1
:10156000A0EB0A0159454CD8286A8007F6D41FB170
:10157000E86920F08050E861E06988B36968C1F3E8
:101580008101022944D00228C6F8608004D0FFF708
:1015900027FB044638E034E0FFF722FB074604E06F
:1015A000FFF71EFBC01B02282BD828688001F7D448
:1015B000206AB0F5803F05D16868A16820F400304A
:1015C00008436860D4E908010843696821F474118C
:1015D00008436860C6F86090FFF702FB044606E027
:1015E00025E000BFFFF7FCFA001B022809D8286895
:1015F0008001F7D51BE000BFFFF7F2FA001B0228BD
:1016000002D90320BDE8F88F28688001F4D40EE0E9
:101610000128F7D06868226A00F48031914204D131
:10162000616A00F47010884201D00120EAE70020CE
:10163000E8E70000001002400000424280044242FD
:10164000200000200070004070B5040009D0606ADE
:10165000002540B125616561A56294F8510040B153
:101660000CE0012070BD6068B0F5827FF4D0E561C8
:10167000F2E784F85050204600F040F8022084F849
:1016800051002068016821F040010160A088218993
:1016900000F4827001F404410843A18901F400615F
:1016A0000843217C01F002010843217D01F0010182
:1016B0000843218B01F400710843217F01F03801B8
:1016C000084394F8201001F080010843218D01F4B3
:1016D0000051084321680860A069042101EA104014
:1016E000216848602068C16921F40061C1616565B5
:1016F000012084F85100002070BD000030B585B095
:1017000000240094019402940394006815498842CF
:1017100025D11548C16941F48041C161C16901F415
:1017200080410491816941F00801816180690F4D18
:1017300000F0080004904FF4204000900220019037
:101740000320039069462846FFF754F94FF4804080
:10175000CDE90004694628460294FFF74BF905B02D
:1017600030BD00000038004000100240000C014075
:101770007047704770B590F83C20012A26D00124AC
:1017800080F83C40022280F83D2003685A689D683A
:1017900022F070060A6832435A600D4B02689A4282
:1017A00008D0B2F1804F05D00A4B9A4202D00A4BC2
:1017B0009A4204D1496825F080031943916080F86A
:1017C0003D40002180F83C10084670BD022070BDED
:1017D000002C0140000400400008004010B5040047
:1017E00003D094F83D0010B107E0012010BD0020A7
:1017F00084F83C00204600F01FF8022084F83D00E9
:10180000211D206800F0DCFE012084F8460084F8E9
:101810003E0084F83F0084F8400084F8410084F8DA
:10182000420084F8430084F8440084F8450084F8BA
:101830003D00002010BD000008B500680649884240
:1018400008D10648816941F400618161806900F432
:101850000060009008BD0000002C01400010024014
:1018600090F83D10012901D001207047022180F835
:101870003D100168CA6842F00102CA6000680B4965
:10188000884208D0B0F1804F05D00949884202D083
:101890000849884204D1816801F00701062903D074
:1018A000016841F00101016000207047002C0140F7
:1018B000000400400008004070B5044690F83C0069
:1018C0000025012817D0012684F83C60022084F806
:1018D0003D002068826822F0770222F47F42826015
:1018E0000868502838D00DDC20284FD005DC90B394
:1018F000102811D14AE0022070BD302846D040287F
:101900000AD13BE060282FD070280DD0B0F5805F61
:1019100003D0B0F5005F12D0012584F83D600020AF
:1019200084F83C00284670BDCB68D1E901212068CD
:1019300000F08FFE2068816841F0770109E0CB68F4
:10194000D1E90121206800F084FE2068816841F41B
:1019500080418160E1E719E0CA684968206800F0C9
:101960002DFF5021206806E0CA684968206800F011
:1019700036FF6021206800F076FECEE7CA6849682D
:10198000206800F01BFF40212068F4E72268014630
:101990001046F0E770472DE9F04104460068C6683C
:1019A00005694FF00007A90713D5B10711D5F91E36
:1019B000016101202077206880698007204602D0DD
:1019C000FFF7E8FF04E000F0B9F8204600F068F9FE
:1019D0002777680716D5700714D521686FF00400C3
:1019E0000861022020772068806910F4407F20463B
:1019F00002D0FFF7CFFF04E000F0A0F8204600F08F
:101A00004FF92777280715D5300713D521686FF0D0
:101A100008000861042020772068C06980072046FC
:101A200002D0FFF7B7FF04E000F088F8204600F08E
:101A300037F92777E80616D5F00614D521686FF038
:101A400010000861082020772068C06910F4407FEA
:101A5000204602D0FFF79EFF04E000F06FF820461A
:101A600000F01EF92777E80708D0F00706D02168B4
:101A70006FF001000861204600F062F9280608D5E1
:101A8000300606D521686FF0800008612046FFF718
:101A90006FFE680608D5700606D521686FF0400015
:101AA0000861204600F056F9A8060AD5B00608D508
:101AB00021686FF0200008612046BDE8F041FFF783
:101AC00058BEBDE8F0810000F0B585B0002100915E
:101AD000019102910391016815480224154D0326D6
:101AE000B1F1804F1BD0144A914216D1816941F067
:101AF000040181618069C02700F00400CDE9007411
:101B0000CDE9034069462846FEF774FFCDE900742D
:101B1000694628460396FEF76DFF05B0F0BD816962
:101B200041F00401816180690F2700F00400E5E7BE
:101B3000001002400008014000040040704770B5EA
:101B4000044690F83C0000260D4601280FD00120E5
:101B500084F83C006AB1042A1DD0082A2FD00C2A30
:101B60003FD00126002084F83C00304670BD0220A2
:101B700070BD206800F080FD2068816941F0080197
:101B800081612068816921F0040181612068816997
:101B90002A69114311E0206800F096FD20688169F0
:101BA00041F4006181612068816921F48061816173
:101BB000206881692A6941EA02218161D2E72068AF
:101BC00000F0AEFD2068C16941F00801C1612068E4
:101BD000C16921F00401C1612068C1692A6911430A
:101BE00011E0206800F0C8FD2068C16941F400617F
:101BF000C1612068C16921F48061C1612068C16947
:101C00002A6941EA0221C161ACE710B5040003D0A2
:101C100094F83D0010B107E0012010BD002084F8C9
:101C20003C00204600F01EF8022084F83D00211DF3
:101C3000206800F0C5FC012084F8460084F83E00CE
:101C400084F83F0084F8400084F8410084F84200A2
:101C500084F8430084F8440084F8450084F83D008B
:101C6000002010BD08B501680B48B1F1804F0BD0C2
:101C70000A4A914207D1C16941F00201C161C069BC
:101C800000F00200009008BDC16941F00101C1618E
:101C9000C06900F00100F5E70010024000040040B8
:101CA0007047000010B50446022249B104290ED045
:101CB000082913D094F84100012816D0012010BD46
:101CC00094F83E000128F9D184F83E200FE094F802
:101CD0003F000128F2D184F83F2008E094F840004A
:101CE0000128EBD184F8402001E084F84120012252
:101CF000206800F0A1FC0F492068884203D1426CA3
:101D000042F4004242642068884208D0B0F1804F1B
:101D100005D00949884202D00849884204D1816827
:101D200001F00701062903D0016841F001010160BB
:101D3000002010BD002C01400004004000080040BD
:101D400000680349884201D1FFF760B8704700007E
:101D500000080040704770B5040004D094F84100BA
:101D6000002510B106E0012070BD84F840502046E7
:101D700000F024F8242084F841002068C16821F490
:101D80000051C160204600F063FD2068016921F424
:101D9000904101612068416921F02A014161206878
:101DA000C16841F40051C1606564202084F841009D
:101DB00084F842006563002070BD000030B585B036
:101DC000002400940194029403940068144988420A
:101DD00024D11448816941F480418161816901F411
:101DE00080410491816941F00401816180690E4D57
:101DF00000F0040004904FF4007000900220019065
:101E00000320039069462846FEF7F4FD2815CDE926
:101E10000004694628460294FEF7ECFD05B030BD8B
:101E20000038014000100240000801402DE9F8434D
:101E3000044690F84100984616460D46202802D0E8
:101E40000220BDE8F88385B17EB1002060642120C6
:101E500084F84100FEF7C4FEA6848146E684A068AB
:101E60002027B0F5805F02D003E00120E9E7206978
:101E700010B12E4600250EE000260CE08021204601
:101E800000F042FDA8B9C6B116F8010B2168486000
:101E9000E08C401EE084E08C4B464FF00002CDF811
:101EA00000800028EAD14FF04001204600F02CFDD0
:101EB00040B184F841700320C3E735F8020BC0F34A
:101EC0000800E3E784F841700020BAE7FEE700006D
:101ED0000148FEF717BB0000E00200203EB50024D9
:101EE00011480094019402940E49846001600473C7
:101EF0000475012505614FF460214460C161FEF75E
:101F0000EBFB08B1FEF7FCFA0820CDE900056946B5
:101F100002940548FEF762FB002801D0FEF7F0FAB4
:101F20003EBD000000240140E00200200D4810B535
:101F30000B4901601021416000218160C160016195
:101F40004161017641768176C17601774177FEF76E
:101F50008DFC002803D0BDE81040FEF7D1BA10BDBB
:101F6000006400401003002000B587B01C22064921
:101F70006846FEF781F90021684600F057FD0349E5
:101F8000086007B000BD0000F03700080400002022
:101F900070B586B000241C48009401940294039408
:101FA000816941F020018161816901F02001049182
:101FB000816941F004018161816901F004010491AA
:101FC000816941F0080181618069104E00F00800CC
:101FD0004FF490550490002229463046FEF7FAFD52
:101FE00001200095CDE901040220039069463046A6
:101FF000FEF700FD3820CDE9000469463046029422
:10200000FEF7F8FC06B070BD00100240000C014065
:102010000D4810B50B4901600C49416000214FF497
:1020200080428160C0E9031241618161C161016246
:10203000FEF7DCFD002803D0BDE81040FEF760BAD3
:1020400010BD00000054004038030020A0860100AD
:102050000D4810B50B4901600C49416000214FF457
:1020600080428160C0E9031241618161C161016206
:10207000FEF7BCFD002803D0BDE81040FEF740BAD3
:1020800010BD0000005800408C030020A086010015
:102090000F4810B50D4901604FF482714160002175
:1020A0008160C1604FF400720161C0E90512C16135
:1020B0000162416281620A21C162FFF7C5FA00280C
:1020C00003D0BDE81040FEF71BBA10BD0038004039
:1020D000E003002010B586B0002417480094019456
:1020E00002940394049413490594C0E900144FF634
:1020F000FF71C0E90241046144618461FFF76EFB36
:1021000008B1FEF7FDF94FF48050009069460A4887
:10211000FFF7D2FB08B1FEF7F3F9049404A90648CF
:102120000594FFF727FB002801D0FEF7E9F906B078
:1021300010BD0000002C01403804002030B589B0EB
:10214000002507951C2168460895FEF7C7F8244C22
:102150004FF08040C4E900054FF6FF70C4E902501B
:1021600025612046A561FFF750FD08B1FEF7C8F9CB
:10217000079507A91A480895FFF7FCFA08B1FEF77A
:10218000BFF96020CDE90005029500226946144898
:102190000495FFF7D4FC08B1FEF7B2F904226946B2
:1021A0000F48FFF7CCFC08B1FEF7AAF908226946F0
:1021B0000B48FFF7C4FC08B1FEF7A2F90C226946F0
:1021C0000748FFF7BCFC08B1FEF79AF9216840F612
:1021D0000F60C862E0600248FFF776FC09B030BDCE
:1021E0008004002030B589B0002507951C21684681
:1021F0000895FEF773F81D4C1B48C4E900054FF61F
:10220000FF70C4E9025025612046A561FFF7FDFC7F
:1022100008B1FEF775F9079507A914480895FFF767
:10222000A9FA08B1FEF76CF96020CDE90005029526
:10223000002269460D480495FFF781FC08B1FEF7BE
:102240005FF9042269460948FFF779FC08B1FEF7F7
:1022500057F9216840F60F60C862E0600348FFF755
:1022600033FC09B030BD000000040040C804002069
:102270000C4810B50A4901604FF4E131416000217A
:1022800081600C22C160C0E904128161C161FFF765
:1022900062FD002803D0BDE81040FEF731B910BD43
:1022A0000038014010050020FEE7000010B510F1D5
:1022B000FF4F01D3002004E04FF07E51884200DD43
:1022C0000846054901F052F94FF07C5101F0CCF875
:1022D00001F02CF980B210BD00F0604570B5274CBC
:1022E00040F60F602168C862254DE0602968C86229
:1022F000E860E06000F084F800212046FFF7D2FC9F
:1023000004212046FFF7CEFC08212046FFF7CAFC37
:102310000C212046FFF7C6FC00212846FFF7C2FC2F
:1023200004212846FFF7BEFC2068036A41F2111120
:102330000B4240F2444206D1036A134203D10368C0
:1023400023F0010303602868036A0B4206D1016A87
:10235000114203D1016821F00101016021680020D0
:102360004862296848622068016841F00101016003
:102370002868016841F00101016070BD80040020FF
:10238000C804002010B5094C0023637013460A46A8
:102390000146002000F00CF84FF07C510B46BDE8E0
:1023A00010401A46012000F003B800000800002089
:1023B0002DE9F04106461F4614460846FFF776FF12
:1023C00005462046FFF772FF04463846FFF76EFFCA
:1023D000094956B1012E06D109680D6407490A68FA
:1023E000546309688863BDE8F0810A6855630A6828
:1023F00094630968C863F6E780040020C8040020DD
:1024000010B54FF07C5423461A4611460020FFF7C2
:10241000CFFF23461A4611460120FFF7C9FF0249A4
:102420000020487010BD000008000020FEE70000FA
:10243000FFF74EFDFFF752FF4FF07E500246114668
:10244000FFF7A0FF0BA0FDF70BFF19A0FDF708FF9A
:1024500001244FF47A7506E023A0FDF701FF012067
:1024600000F0D8FA0124012000F0D4FA641CAC4238
:10247000F9D3F1E74D3020414C4C204849474820E2
:1024800028647574793D31292E204D65617375720C
:1024900065206D6F746F7220552F562F57207673FD
:1024A00020474E44207E3D20566275730D0A000081
:1024B0005468656E206368616E676520636F64654C
:1024C00020746F20302C302C3020616E64207265B7
:1024D000666C6173683A2073686F756C64207E3D2A
:1024E0002030560D0A000000686F6C64696E67202A
:1024F0004D303D312C312C3120286E6F207369789E
:102500002D73746570290D0A0000000010B550206D
:1025100080F31188BFF34F8FBFF36F8F00F0DCFEA5
:1025200018B104494FF080500860002080F31188F2
:1025300010BD000004ED00E030B593B028216846DE
:10254000FDF7CCFE14210AA8FDF7C8FE00250120E6
:102550000F9510951195010412958DE823000490B4
:102560004FF4E010CDE90810022407946846FEF706
:10257000DBFE08B172B6FEE70AA90F2081E8310040
:102580004FF48060CDE90D0502210AA8FEF7D0FDC9
:1025900008B172B6FEE74FF4004011900F940FA8F7
:1025A000FEF750FD002801D072B6FEE713B030BD33
:1025B000704700000148FFF7EEB900005805002001
:1025C000F0B50268194B1A4C1A4D4FF080479842EB
:1025D00005D0B84203D0A04201D0A84203D122F0D6
:1025E00070064A683243984205D0B84203D0A042F0
:1025F00001D0A84203D122F44074CA6822434C6936
:1026000022F08002224302608A68C2620A68826203
:10261000984201D109690163012141610169C9073A
:1026200003D0016921F001010161F0BD002C0140DE
:10263000000400400008004010B501F01F03012114
:10264000046A99408C430462016A9A401143016212
:1026500010BD10B5846842EA032224F47F440A4383
:102660002243826010BD826822F070020A4342F069
:10267000070181607047000030B5036A026A22F0EA
:10268000010202624268846924F073050C682C43DD
:1026900023F002058B682B430A4DA8420BD123F08F
:1026A0000805CB6822F440722B434D6923F00403E4
:1026B00015438A692A434260846149684163036221
:1026C00030BD0000002C014030B5026A036A23F0DF
:1026D00010030362436884690D6824F4E64444EA05
:1026E00005248D6822F0200242EA05120B4DA84213
:1026F0000ED1CD6822F0800242EA05124D6923F422
:10270000406343EA85038D6922F0400243EA850372
:102710004360846149688163026230BD002C0140DE
:1027200030B5036A026A22F4807202624268C469A8
:1027300023F4007324F073050C682C438D6843EA7E
:1027400005230C4DA8420ED1CD6823F4006343EA63
:1027500005234D6922F4405242EA05128D6923F4A3
:10276000806342EA05124260C4614968C163036242
:1027700030BD0000002C014030B5046A026A22F42A
:10278000805202624268C3690D6823F4E64343EA5B
:1027900005238D6824F4005444EA0534064DA8420C
:1027A00004D14D6922F4804242EA85124260C3613D
:1027B00049680164046230BD002C014010B5036A11
:1027C000046A24F001040462846924F0F00444EAF9
:1027D000021423F00A020A438461026210BD10B59C
:1027E000036A046A24F010040462846923F0A003DD
:1027F00024F4704444EA023243EA01118261016226
:1028000010BD01680C3151E8002F22F4907241E8AC
:102810000023002BF5D10168143151E8002F22F07C
:10282000010241E80023002BF5D1016B012909D1F8
:1028300001680C3151E8002F22F0100241E800231A
:10284000002BF5D1202180F8421000210163704750
:1028500070B5044600680169E26821F440511143F3
:1028600001612169A0680843616908432168CA6859
:1028700041F20C639A430243CA6020684169A2692D
:1028800021F44071114341611E492068884202D100
:10289000FEF714FD01E0FEF701FD00EBC00101EBC6
:1028A0000012606864218000B2FBF0F3B3FBF1F327
:1028B0006FF018067343B2FBF0F5B2FBF0F605EBD0
:1028C0008305322303EB0515B5FBF1F5B6FBF1F6F5
:1028D00005F0F00505EB0615B2FBF0F6B2FBF0F0E3
:1028E000B0FBF1F06FF01802504306EB800003EBF1
:1028F0000010B0FBF1F0216800F00F002844886060
:1029000070BD0000003801402DE9F8439846174695
:102910000D460446089E24E0701C22D0FEF760F9A4
:10292000A0EB0800B0421AD8CEB12068C1684907B0
:1029300017D5802D15D0402D13D00168C943090744
:102940000FD401680025406800902046FFF759FF2A
:102950000820606484F840500120BDE8F88303201B
:10296000FBE72068006835EA000004D00020B84288
:10297000D2D00020F1E70120F9E7FEE70907090EB0
:10298000002804DB00F1E02080F80014704700F01C
:102990000F0000F1E02080F8141D704713B54FF6CA
:1029A000FF73012269460248FFF740FA00981CBDF8
:1029B00010050020FEF732FAFFF7BEFDFFF7E8FA38
:1029C000FFF78CFAFFF7B2FAFFF784FBFFF7B6FBCD
:1029D000FFF708FCFFF74CFCFFF71AFBFFF738FB8B
:1029E000FFF756FB03A0FDF73BFCFFF7BDFA00F035
:1029F00018F8FEE755415254207072696E746620D3
:102A00004F4B0D0A0000000001460020842900D031
:102A1000C81C704710B500B9012000F01FFB002052
:102A200010BD10B500F040FB002010BD7FB50D4675
:102A300004464169B0F9080081B1A16971B1FFF79D
:102A4000E3FFD4E905128DE80700D4E900102B4616
:102A5000226900F016FC039004B070BDFFF7D4FFAC
:102A600003A9CDE90001208A2B4682B2D4E90010E7
:102A700000F0DAFB012801D00020EDE70398EBE736
:102A80002DE9F041184C0F460546E6682068001D08
:102A900000F01CFA38B9206890F82C10012088400A
:102AA000216981432161681C07D137B12168BDE8E4
:102AB000F0410E48091D00F04DBA20683544B5427A
:102AC0004560216805D2A06BBDE8F041091D00F00A
:102AD00029BA606B091D00F025FAA06A854200D270
:102AE000A562BDE8F0810000240000207C060020E3
:102AF0002DE9F041054600F039FA2E4CA068401C43
:102B0000A06020682C4F10B1606940B32DE02560B3
:102B1000A068012829D1002606EB860007EB80007B
:102B200000F0F2F9761C072EF6D323488C3000F023
:102B3000EBF92148A03000F0E7F91F48B43000F06D
:102B4000E3F91D48C83000F0DFF91B48DC3000F025
:102B5000DBF919488C3060631430A06305E020680D
:102B6000E96AC06A884200D82560606A401C6062D9
:102B7000E96A0120226988401043206101EB81004D
:102B800007EB8000291D00F0E5F900F00FFA6069FD
:102B900000280CD02068E96AC06A884207D2074939
:102BA0004FF080500860BFF34F8FBFF36F8FBDE8C9
:102BB000F081000024000020A005002004ED00E0CA
:102BC00010B5044690F8510058B101280CD00228E5
:102BD0000FD0502080F31188BFF34F8FBFF36F8F5A
:102BE000FEE7206B00F0F6F92046BDE8104000F04B
:102BF000F1B910BD10484FF44061420706D0C01D26
:102C00000D4920F00700411AC1F540610B4A00232D
:102C10000144C2E900030839183A21F007011160A4
:102C20004B600B600B1AC0E9001393604FF000403B
:102C3000536050617047000090060020780000202B
:102C4000144E154CA6F1C8074FF08058DFF84C9091
:102C500012E000BF00F08AF9F068C568281D00F096
:102C600035F9A068401EA0606068401E606000F0FA
:102C70009DF92846FFF7A4FF60680028EAD138686C
:102C80000128F9D9C9F80080BFF34F8FBFF36F8FC8
:102C9000F2E70000680600202400002004ED00E0B8
:102CA0002DE9F0479A46DDE9098481466FF0030378
:102CB000206B03EB82021044089E20F00707780780
:102CC00007D0502080F31188BFF34F8FBFF36F8F71
:102CD000FEE7002561B1002023180A5C83F8342048
:102CE0000A5C12B1401C1028F6D384F8435001E06E
:102CF00084F83450072E00D30626E662C4E9116535
:102D0000201D00F00CF904F1180000F008F924610E
:102D1000C6F107006462A061E56484F85050524631
:102D20004946384600F0C0F82060B8F1000F01D0E5
:102D3000C8F80040BDE8F08730B5114900E0114601
:102D40000A688242FBD34B685C18844203D1406816
:102D500018444860084643681C18944209D1084C3E
:102D6000183C2468A24209D052681A4442600A689A
:102D700012680260814200D0086030BD0460F9E74B
:102D8000780000200648416B096829B1416BC96889
:102D9000C9684968816270474FF0FF31FAE7000067
:102DA0002400002008484068401C4FF0500080F389
:102DB000118804D0BFF34F8FBFF36F8FFEE7BFF3CF
:102DC0004F8FBFF36F8FFEE7800000202DE9F041A9
:102DD0000546002700F09EF9324E306808B9FFF72B
:102DE00009FF706905424ED1C5B3083568070ED09A
:102DF00005F00700C0F108000544680707D050201F
:102E000080F31188BFF34F8FBFF36F8FFEE72DB3B1
:102E10007068854237D82348183001460C6801E0B5
:102E200020460C466168A94202D221680029F7D1E8
:102E300031688C4227D007682168016060680837D4
:102E4000411B10290FD96019420708D0502080F388
:102E50001188BFF34F8FBFF36F8FFEE713E0416020
:102E60006560FFF769FF61687068401A7060B2685A
:102E7000904200D2B060706901430020C4E90001B3
:102E8000F068401CF06000F08DFA780707D0502001
:102E900080F31188BFF34F8FBFF36F8FFEE7384683
:102EA000BDE8F0816000002010B5031F4FF0807472
:102EB0001C601B1F21F001011960191F024B0B60E0
:102EC000143940380A6010BDA52D0008D0E9013240
:102ED00001699A60D0E901235A604A68824201D1AF
:102EE00082684A60002202610868401E0860086823
:102EF00070470000034B036003F15400086080201A
:102F0000106070478C00002000F108014FF0FF3284
:102F1000C0E90112C1600161002101607047002118
:102F20000161704730B50B685A1C02D000F10802ED
:102F300002E0026904E02246546825689D42FAD9FD
:102F400053684B6099608A60516008610168491C50
:102F5000016030BD42684A6093688B609368596035
:102F6000916008610168491C01607047502080F33E
:102F70001188BFF34F8FBFF36F8F0A494868401C19
:102F8000486001280CD10848006810F0FF0F07D0F6
:102F9000502080F31188BFF34F8FBFF36F8FFEE790
:102FA000704700008000002004ED00E008494868F8
:102FB00028B1401E486001D180F31188704750202D
:102FC00080F31188BFF34F8FBFF36F8FFEE70000D0
:102FD0008000002070B500282AD0164DA0F108040A
:102FE00060686969084207D1502080F31188BFF3F7
:102FF0004F8FBFF36F8FFEE722683AB1502080F306
:103000001188BFF34F8FBFF36F8FFEE78843606077
:1030100000F080F860686968084468602046FFF73F
:103020008BFE2869401C2861BDE8704000F0BAB9E9
:1030300070BD0000600000204FF0E0200021016121
:10304000816105494FF47A720968B1FBF2F1491EBA
:1030500041610721016170472000002010B5020086
:1030600014D00F48006B38B1502080F31188BFF3A3
:103070004F8FBFF36F8FFEE700F04CF80021104632
:10308000FFF7FEFC00F08EF9002807D105494FF04C
:1030900080500860BFF34F8FBFF36F8F10BD0000EB
:1030A0002400002004ED00E010B586B00024039455
:1030B00005AA04A903A80494FFF71CFFDDE9030196
:1030C0000094CDE9011000230EA11048059A00F0EC
:1030D000D8F80F490028C86211D0502080F3118819
:1030E000BFF34F8FBFF36F8F4FF0FF308862012027
:1030F0004861CC6006B0BDE8104000F041B806B0B1
:1031000010BD000049444C4500000000412C00085F
:10311000240000200248016B491C01637047000035
:10312000240000201448016B11B10121C1617047D6
:103130000021C1610169B1FA81F1C1F11F0101EB07
:1031400081020E4951F822306BB101EB820101F18D
:1031500008034A6852684A609A4201D152684A603C
:10316000D16801607047502080F31188BFF34F8F02
:10317000BFF36F8FFEE7000024000020A0050020B1
:103180001CB5264908780190FF20087008788DF852
:1031900000009DF800009DF8002000F0F000904233
:1031A00007D0502080F31188BFF34F8FBFF36F8F8C
:1031B000FEE79DF800001A4C00F050002070072038
:1031C000A06005E09DF8002052008DF80020401E10
:1031D0009DF800201206F5D4A060032807D05020E7
:1031E00080F31188BFF34F8FBFF36F8FFEE74FF46B
:1031F0004070A060019808700A48016841F47001AD
:103200000160016841F070410160FFF715FF002087
:103210006060FCF7CBFF00201CBD000000E400E074
:103220008000002020ED00E02DE9FF5F8346DDE90E
:103230000E87994616468A469000FFF7C7FD05009F
:103240001CD05420FFF7C2FD040014D000202563D9
:1032500084F85100CDE90240CDE900874B46324663
:1032600051465846FFF71CFD2046FFF741FC012060
:1032700004B0BDE8F09F2846FFF7ACFE4FF0FF30EA
:10328000F6E7F0B585B0DDE90B640A9DA6B1DCB1C7
:10329000542700972663022684F85160002604AF65
:1032A000CDE90246CDE90057FFF7FAFC2046FFF7CB
:1032B0001FFC049805B0F0BD502080F31188BFF3C7
:1032C0004F8FBFF36F8FFEE7502080F31188BFF35D
:1032D0004F8FBFF36F8FFEE72DE9F0412F4C002693
:1032E000206B28B1A069401CA0613046BDE8F08188
:1032F000E5686D1CE56013D1606B006838B1502043
:1033000080F31188BFF34F8FBFF36F8FFEE7606BC1
:10331000A16B6163A063206A401C2062FFF732FD4D
:10332000A06ADFF87C80854209D3606B0068A0B199
:10333000606BC068C7687868854211D2A062206857
:10334000C06A00EB800158F82100012800D901264D
:10335000E0690028C9D00126C7E74FF0FF30EDE74C
:10336000381DFFF7B3FDB86A18B107F11800FFF771
:10337000ADFDF96A0120226988401043206101EB0C
:10338000810108EB8100391DFFF7E4FDF86A21682F
:10339000C96A8842C9D30126C7E70000240000207B
:1033A000A00500202DE9F0472C4D00242746286B6E
:1033B00038B1FFF7DBFD286B401E2863286B40B156
:1033C00046E0502080F31188BFF34F8FBFF36F8F1B
:1033D000FEE7A968224E0120D1B3A6F1B4098046C8
:1033E0003068E8B1F068C46804F11800FFF76EFDBA
:1033F000201DFFF76BFDE06A2A6908FA00F111430E
:10340000296100EB800109EB8100211DFFF7A2FD7E
:10341000E06A2968C96A8842E2D3C5F81C80DFE700
:103420000CB1FFF7AFFCAC6944B14646FFF754FF5F
:1034300000B1EE61641EF9D10020A861E86938B1DD
:103440000849012738070860BFF34F8FBFF36F8F1C
:10345000FFF7ACFD3846BDE8F087000024000020EF
:103460005406002004ED00E090EA010F48BF81F00F
:10347000004100F14E81421A3CBF801A89184FEA80
:10348000D0524FF07F4C1CEA410FA2EBD15318BF32
:103490009CEA026F00F03B804FF0004C4CEA0020A9
:1034A0004CEA012121FA03FC10EB0C0C1ED202F1B4
:1034B000FF325FEA1C2040EBC25038BF70471CF05F
:1034C0007F0F4FEA400C18BFBCF17F4F38BF7047E9
:1034D000C3F12003994008BF20F00100BCF17F4FE9
:1034E00038BF7047A0F1C04000F007B94FEA3C0078
:1034F000000A40EBC25028BF1CF0FF0F4FEA400CFF
:10350000E6D018BFBCF17F4F38BF7047EAE79CEAAE
:10351000026F05D010EA5C0F08BF00F00040704752
:1035200010B500F0A4F800BF64FBBE3EC10DD1F1A0
:103530009E0206DB4FEA002343F0004323FA02F029
:103540007047004207D54FEA4001B1F1FE4F02D269
:103550004FF00000704710B500F089F849922480C0
:10356000002070476FEA2000704700004FF47F0C86
:103570001CEAD0121EBF1CEAD11392EA0C0F93EA88
:103580000C0F00F0478090EA010F48BF42F48072B0
:103590004FF0004C4CEA00204CEA012102EB030200
:1035A000A0FB0113A2F50002002918BF43F001039C
:1035B0005B0028BF4FEA330342EB22425FEA132C41
:1035C0004CEBC2502EBFBCEB436FB2F57C0F704783
:1035D0004FEA036CBCF1004F08BF20F00100B2F5C8
:1035E0007C0F38BF70470BD582F0FF0212F5803F89
:1035F000C8BF704700F1C040D8BF00F0004070471E
:1036000000F5000C5FEA4C0C48BF7047B0F1C040B9
:1036100000F073B890EA010F0CEAD11348BF42F4EE
:103620008072624538BF634504D280EA010000F031
:103630000040704710B500F01AF800BF8900013E45
:1036400000F007B800F009B85FEA410C5FEA1C6CB3
:1036500008D080EA010000F050B85FEA400C5FEA51
:103660001C6CF6D14FF00040A0F5800070470EF1C1
:10367000020E2EF0030E5EF8044B244204D44FEAEF
:103680004102B2F17F4F11D84FEA4003B3F17F4FAF
:103690000CD80ED14FEAD07CB2F17F4F0CEB4C0C22
:1036A0000CF1020C08BF4CEBD17C04E04FF0080C8D
:1036B00001E04FEAD17C0CEB4C0324FA03F404F054
:1036C0000704B4F1040C06D20EEB840CBDE81040E4
:1036D0004CF0010C6047DFE80CF0070802024FF0E5
:1036E0000040A0F5800010BD0846420018BFD2F18E
:1036F000807288BF00F0004010BDFF2141EAD05029
:10370000C005704790EA010F48BF81F000413FF5C6
:10371000B2AE421A04D882F00042A0EB020011447B
:103720004FEAD0524FF07F4C1CEA410FA2EBD1532D
:1037300018BF9CEA026F4AD04FF0004C4CEA0020C0
:103740004CEA012121FA03FCB0EB0C0C0FD412F06F
:10375000FE0F36D05FEA4C001DD5001240EBC25080
:1037600038BF70471CF03F0F18BF70470BE0A2F145
:1037700001025FEA1C2040EBC25038BF70471CF0CA
:103780007F0F18BF7047C3F12003994014BF401E3C
:1037900020F00100704780084FEA122308BF7047ED
:1037A000B0FA80FCA2EB0C02CCF1280C60FA0CF011
:1037B00093EA122F04BF00EBC25070474FEAC37068
:1037C0007047130A5FEADC1008BF7047F6E79CEA0F
:1037D000026F04D010EA5C0F08BF0020704710B5DC
:1037E000FFF745FF40DFF63E81F0004070470000E4
:1037F00048380008312400080000000000000000E4
:1038000000020000000000000000000001020203AE
:103810000405060708090A0B0C0D0E0F1010010213
:1038200002030405060708090A0B0C0D0E0F101001
:103830000000000000000000010203040607080960
:10384000000000000102030464656661756C745435
:1038500061736B0074380008000000208C000000C9
:1038600028010008003900088C00002064180000BE
:1038700044010008000000000000000000000000FB
:103880000000000000000000010000001000000027
:103890000000000000127A0000000000000000009C
:1038A0000000000000000000000000000000000018
:1038B0000000000000000000000000000000000008
:1038C00000000000000000000000000000000000F8
:1038D00000000000000000000000000000000000E8
:1038E00000000000000000000000000000000000D8
:1038F0000000000000000000AAAAAAAA0000000020
:04000005080000ED02
:00000001FF
