:020000040800F2
:10000000E818002029020008AB270008B5200008E6
:10001000A92700088D060008072C00080000000032
:100020000000000000000000000000009101000836
:100030008F06000800000000D5010008B527000861
:10004000430200084302000843020008430200087C
:10005000430200084302000843020008430200086C
:10006000430200084302000843020008430200085C
:10007000430200084302000843020008430200084C
:10008000430200084302000843020008430200083C
:10009000430200084302000843020008430200082C
:1000A000430200084302000843020008430200081C
:1000B00043020008430200085D28000843020008CC
:1000C00043020008430200084302000843020008FC
:1000D00043020008430200084302000843020008EC
:1000E00043020008430200084302000800F002F83F
:1000F00000F03FF80AA090E8000C82448344AAF183
:100100000107DA4501D100F034F8AFF2090EBAE880
:100110000F0013F0010F18BFFB1A43F0010318473B
:100120004836000068360000103A24BF78C878C10D
:10013000FAD8520724BF30C830C144BF04680C60ED
:10014000704700000023002400250026103A28BF35
:1001500078C1FBD8520728BF30C148BF0B60704739
:10016000642900F0C180002070471FB51FBD10B585
:1001700010BD00F0D9F91146FFF7F7FF02F060FD5E
:1001800000F0F7F903B4FFF7F2FF03BC00F0FEF94B
:10019000224B19680868B0E8F00F80F30988BFF3B4
:1001A0006F8F4FF0000080F311884EF00D0E7047F6
:1001B0000000000006480068006880F3088862B606
:1001C00061B6BFF34F8FBFF36F8F00DF00BF00BF7B
:1001D00008ED00E0EFF30980BFF36F8F0F4B1A6853
:1001E00020E9F00F106008B54FF0500080F311883F
:1001F000BFF34F8FBFF36F8F03F0EAF84FF00000AB
:1002000080F31188BDE8084019680868B0E8F00F6D
:1002100080F30988BFF36F8F704700BF180000207C
:10022000EFF3058070470000094880470948004700
:10023000FEE7FEE7FEE7FEE7FEE7FEE7FEE7FEE796
:10024000FEE7FEE704480549054A064B70470000F3
:1002500059280008ED000008E8120020E8180020E6
:10026000E8140020E81400200FB4044910B503AAD4
:10027000029800F02BF910BC5DF814FB0000002080
:100280002DE9F0410E460446002020622046E16838
:10029000884730B3252805D0D4E901219047206A4A
:1002A000401CF2E7E168204600278847050018D087
:1002B000A5F14100192802D820354FF400673246D5
:1002C000294620462760FFF74BFF40B1012804D0A4
:1002D000F61D26F007060836D8E7361DD6E728466D
:1002E000DAE7206ABDE8F0812DE9F04106460024F6
:1002F00010687529314616A510D0AFF3008000288C
:1003000002DA404213A507E031688A0701D512A539
:1003100002E0490704D511A5012401E0AFF30080F4
:1003200000210A2206F1240709E0B0FBF2FCB0FB31
:10033000F2F302FB1C00303078541846491C0028A8
:10034000F3D123462A463046BDE8F04100F064B8B8
:10035000000000002D0000002B0000002000000025
:1003600010B5203AC0F00B80B1E81850203AA0E850
:100370001850B1E81850A0E81850BFF4F5AF5FEA84
:10038000027C24BFB1E81850A0E8185044BF18C937
:1003900018C0BDE810405FEA827C24BF51F8043BDE
:1003A00040F8043B08BF7047D20728BF31F8023B32
:1003B00048BF11F8012B28BF20F8023B48BF00F8C6
:1003C000012B70474FF0000200B513469446964645
:1003D000203922BFA0E80C50A0E80C50B1F1200158
:1003E000BFF4F7AF090728BFA0E80C5048BF0CC006
:1003F0005DF804EB890028BF40F8042B08BF704764
:1004000048BF20F8022B11F0804F18BF00F8012BD5
:1004100070477047704770472DE9F0470D46994681
:100420009246044600F124080168880604D5E06974
:1004300021F01001216000E00120A84201DD471BEE
:1004400000E00027A1697A1902EB0900081AA061EF
:100450002078C00602D42046AFF30080002608E0D2
:10046000D4E901211AF806009047206A401C761C46
:1004700020624E45F4DB2078C0060AD52046AFF353
:10048000008006E0D4E9012130209047206A401C1A
:100490002062381EA7F10107F4DC07E0D4E901214E
:1004A00018F805009047206A401C2062281EA5F11C
:1004B0000105F3DC2046AFF300802078000602D56A
:1004C0000220BDE8F0870120FBE70000074B70B574
:1004D0000D467B4400F011F80446284600F020F851
:1004E00010B14FF0FF3070BD204670BD53270000A3
:1004F00001694A1C02610878704700B58FB0CDE9E8
:1005000001310021059105497944CDE903101146D7
:100510006846FFF7B5FE0FB000BD0000E5FFFFFF26
:10052000007B00F080007047754600F02BF8AE4667
:1005300005006946534620F00700854618B020B5EF
:10054000FFF780FEBDE820404FF000064FF00007A7
:100550004FF000084FF0000B21F00701AC46ACE86B
:10056000C009ACE8C009ACE8C009ACE8C0098D46D8
:10057000704710B50446AFF300802046BDE8104038
:10058000FFF700BE00487047841200200149182080
:10059000ABBEFEE7260002007047000070B50446BF
:1005A00000688168C943C90717D1816821F001013A
:1005B000816000F083FB05460AE000BF00F07EFB8F
:1005C000401B022804D920688068C043C00706D0B9
:1005D00020688068C043C007F0D0002070BDA06ACA
:1005E00040F01000A062E06A40F00100E0620120EB
:1005F00070BD000070B586B00125642603A88DE8A3
:10060000610000242B460E226C210C4800F020FCD7
:1006100088B904A88DE8610001230F226C210748E6
:1006200000F016FC38B99DF80C009DF8101000F091
:100630000F0041EA002406B0204670BD2C030020C4
:1006400070B586B00125642603A88DE861000024FA
:100650002B460E226C210C4800F0FAFB88B904A846
:100660008DE8610001230F226C21074800F0F0FBA8
:1006700038B99DF80C009DF8101000F00F0041EA09
:10068000002406B0204670BD80030020FEE77047BE
:1006900072B6FEE7F8B50024009490F824202546B1
:1006A000012A12D0012280F824204A681F23072A39
:1006B0000DD20668776B521E02EB820293409F4375
:1006C0000B6893401F43776319E00220F8BD06686A
:1006D0000D2A0AD2376BD21F02EB820293409F434E
:1006E0000B6893401F43376309E0F76A0D3A02EB4A
:1006F000820293409F430B6893401F43F7620A684E
:10070000072306680A2A0AD3F7680A3A02EB42026C
:1007100093409F438B6893401F43F76008E037691D
:1007200002EB420293409F438B6893401F43376123
:100730000A68102A01D0112A20D1124B02689A426D
:1007400017D193681B0219D4936843F40003936094
:100750000968102912D10C490C4A0968B1FBF2F161
:1007600001EB8101490000E0491E00910029FBD105
:1007700004E0816A41F020018162012480F8245064
:100780002046F8BD002401401400002040420F0024
:100790002DE9F0414FF0000704003D467ED0A06AED
:1007A000002628B9E66284F82460204600F07EF82E
:1007B0002046FFF7F3FEA16AC90600D420B1A06A63
:1007C00040F01000A06269E0A16A21F4885141F074
:1007D0000201A1626268E169237B0A4347EA43019F
:1007E0000A43A1684FF48077B94209D0012907D0A4
:1007F0005FF0000194F814C0BCF1010F02D00AE0D0
:100800003946F7E7F3B1A36A43F02003A362E36A32
:1008100043F00103E3622368D3F804C02CF4694C6D
:100820004CEA010CC3F804C021688B68DFF870C083
:1008300003EA0C0313438B60A168B9420BD0012972
:1008400009D00CE0DFF85CC0A3690CEB43330B4329
:1008500043F40061DFE7218A0D05A5F580152168C5
:10086000CB6A23F470032B43CB62216889680E4B5B
:100870001940914208D1E662A16A21F0020141F0DB
:100880000101A162BDE8F081A06A20F0020040F001
:100890001000A062E06A40F00100E0620120F1E790
:1008A000FDF7E1FF00E0FFFFFE0E1FFF10B586B071
:1008B000002100910191029103910068154988423D
:1008C00026D11548816941F400718161816901F483
:1008D00000710491816941F004018161816901F035
:1008E00004010491816941F0080181618069032458
:1008F00000F0080004903020CDE900046946074864
:1009000000F0E6F8009469460548019400F0E0F82C
:1009100006B010BD00240140001002400008014054
:10092000000C014070B5040003D094F8200010B111
:1009300004E0012070BD204600F082F820680168C4
:1009400041F00101016000F0B9F90546052604E017
:1009500000F0B4F9401B0A2811D820684068C0078D
:10096000F6D02068016821F00201016000F0A6F9CC
:1009700005460BE000F0A2F9401B0A2806D9606A80
:1009800040F40030606284F82060D2E7206840685C
:100990008007EFD4207E0128206801683DD021F037
:1009A00080010160607E01282068016838D021F054
:1009B00040010160A07E01282068016833D021F049
:1009C00020010160E07E0128206801682ED041F0FE
:1009D00010010160207F01282068016829D021F0E2
:1009E00008010160607F01282068016824D021F09F
:1009F00004010160D4E902010843D4E9041211435F
:100A000008436168491E08432168C861002060628C
:100A1000012084F82000002070BD41F08001C0E773
:100A200041F04001C5E741F02001CAE721F0100183
:100A3000CFE741F00801D4E741F00401D9E7000015
:100A400010B586B0002100910191029103910068D8
:100A50001349884222D11348C16941F00071C16134
:100A6000C16901F000710491816941F00401816163
:100A700080690D4C00F0040004904FF40060009079
:100A80006946204600F024F8A0140090022001904E
:100A9000032003906946204600F01AF806B010BD06
:100AA00000640040001002400008014070B5044698
:100AB00000F004F90546601C02D0044800780444A4
:100AC00000F0FCF8401BA042FAD370BD08000020E3
:100AD0002DE9F84FDFF8B8910024A9F1040B234663
:100AE0000F2709F1040AABF1040EC9E00125A54066
:100AF0002A40AA427DD1674ED1F804C0ACEB06086B
:100B0000B44532D014DCBCF1030F3AD009DCBCF19F
:100B1000000F2AD0BCF1010F1CD0BCF1020F31D163
:100B20001DE0BCF1110F17D0BCF1120F2AD119E052
:100B3000B8F5881F19D006DCB8F5803F15D0B8F598
:100B4000801F1FD111E0B8F5001F0ED0B8F5041FAB
:100B500018D10AE0CB6815E0CB681B1D12E0CB680A
:100B600008330FE0CB680C330CE08B682BB1012B02
:100B70004FF0080303D0456104E0042302E005615F
:100B800000E00023FF2A01D8064601E000F1040638
:100B90004FEA840501D9A5F12005D6F8008007FAAF
:100BA00005FC28EA0C0803FA05F548EA0508C6F82A
:100BB00000804D68ED0062D5374DAE6946F0010604
:100BC000AE61AD6924F0030605F001050095334DD3
:100BD00006EB050CDCF80850A607360F07FA06F8F6
:100BE00025EA0805DFF8B880404503D14FF000083A
:100BF00017E044E0DFF8AC80404502D14FF0010837
:100C00000FE0DFF8A480404502D14FF0020808E071
:100C1000DFF89880404502D14FF0030801E04FF023
:100C2000040808FA06F848EA0508CCF808804D6878
:100C3000D9F80060ED024D4601D5164300E0964319
:100C40002E604D68DAF80060AD02554601D51643B6
:100C500000E096432E604D68DBF80060AD035D4612
:100C600001D5164300E096432E604D68DEF8006023
:100C7000ED03754601D5164300E096432E60641CD3
:100C80000D682A46E5407FF431AFBDE8F88F0000DB
:100C90000804014000001110001002400000014053
:100CA00000080140000C0140001001400014014008
:100CB0000AB1016170470904FBE700000148806840
:100CC000704700000800002070B5040025D094F89B
:100CD0003D00002520B984F83C50204600F0E6F99C
:100CE000242084F83D002068016821F001010160A2
:100CF0002068016841F4004101602068016821F426
:100D00000041016000F014FC4D4A6168914201D835
:100D10004C4900E04C49884201D2012070BD4B494A
:100D20002368B0FBF1F15E6826F03F060E435E607B
:100D30006368934206D94FF4967359434FF47A731C
:100D4000B1FBF3F12368491C1E6A26F03F063143CC
:100D500019626168914210D84900401EB0FBF1F25F
:100D6000521CC2F30B02042A01D2042022E0B0FB81
:100D7000F1F0401CC0F30B001CE0A268F2B301EBE1
:100D8000C10303EB0116431EB3FBF6F35B1C43F4F4
:100D900080431B0549D092B301EBC10202EB011164
:100DA000401EB0FBF1F0401CC0F30B0040F480404B
:100DB00040F400402168CA694CF6FF739A4310431F
:100DC000C861D4E9071001432068026822F0C0021C
:100DD00011430160D4E9030101432068826848F2AD
:100DE000FF339A4311438160D4E905010843216828
:100DF000CA6822F0FF021043C86001E00EE016E06E
:100E00002068016841F0010101602564202084F818
:100E10003D00256384F83E50002070BD01EB410683
:100E2000431EB3FBF6F35B1CB3E70120C2E701EB03
:100E30004101401EB0FBF1F0401CC0F30B00B7E7CE
:100E4000A086010080841E0000093D0040420F0082
:100E50002DE9FF4F83B00025DDE910799A469346CE
:100E60000446DDF848800095FFF728FF064694F811
:100E70003D0020287CD11923012288492046009674
:100E800001F0AEF90028F5D194F83C0001286FD0AC
:100E9000012084F83C0020680168C90703D101687B
:100EA00041F0010101602068016821F400610160E6
:100EB000222084F83D00402084F83E0025646762CB
:100EC000A4F82A90608D20857548E062CDE90086FF
:100ED00053465A462046049901F004F900287CD173
:100EE000208DDFF8C091202768B1012814D0022896
:100EF000206801681ED041F480610160206841696A
:100F000080690090BCE020684169816900910168B6
:100F100041F400710160B3E02068016821F4806150
:100F2000016072B62068416981690091016841F4ED
:100F300000710AE041F40061016072B62068416905
:100F400081690091016821F48061016062B697E0D7
:100F5000032865D801280CD0022843464FF0000230
:100F60004946204600960BD001F03AF9A8BB0CE0A8
:100F700091E032464146204601F0D8F968BB72E064
:100F800001F02EF948BB72B633E02068016821F405
:100F90008061016072B620680069616A0870606AE9
:100FA000401C6062208D401E2085608D401E608543
:100FB0003D4846F2A8110068B0FBF1F0C0EBC0005C
:100FC00000EB80000090401E009007D02068406930
:100FD000C04340070DD50098F5E727E044F8305F9F
:100FE0006773A573206940F02000206162B6257305
:100FF0001CE02068016841F400710160206800690C
:10100000616A0870606A401C6062218D491E2185FA
:10101000618D491E618562B621680969017026E00B
:1010200032464146204601F081F918B1012007B04F
:10103000BDE8F08F20680069616A0870606A401C32
:101040006062208D401E81B22185608D401E6085CA
:1010500020684269D243520712D4032903D10168A0
:1010600021F48061016020680069616A0870606A2B
:10107000401C6062208D401E2085608D401E608572
:10108000208D00287FF464AF84F83D7084F83E50D2
:1010900084F83C50CBE70220C9E7000002001000B2
:1010A0000000FFFF040001001400002030B585B0EF
:1010B000002100910191029103911E4D03681E4C85
:1010C000122103221D48AB4216D1A36943F0080345
:1010D000A361A369039203F008030493C023CDE93D
:1010E00000316946FFF7F4FCE06940F40010E0616C
:1010F000E06900F4001019E0114DAB4217D1A3696B
:1011000043F00803A361A369039203F00803049367
:101110004FF44063CDE900316946FFF7D9FCE0693F
:1011200040F48000E061E06900F48000049005B0C4
:1011300030BD00000054004000100240000C01408F
:10114000005800400248816802781144816070476D
:1011500008000020074810B5016841F01001016047
:10116000032000F0A7F80F2000F006F800F050F878
:10117000002010BD0020024030B505461F4887B052
:10118000C16941F00401C161C06906A900F0040011
:10119000009001A800F0ACF90498B0B100F0C8F9D3
:1011A00040001749174AB0FBF1F11748491E026089
:1011B000416040F2E7320021C0E903218160816192
:1011C00000F056FC040003D015E000F0B1F9E8E7A8
:1011D0000D4800F08FFC04000DD11E2000F03CF8FB
:1011E000102D07D2002229461E2000F043F80748A0
:1011F000056000E0012407B0204630BD0010024029
:1012000040420F00000800404C0500200C00002068
:101210000F4808B5816941F001018161816901F0E0
:1012200001010091C16941F08051C161C069002292
:1012300000F0805000900F21901E00F01BF8054830
:10124000416821F0E06141F00071416008BD00009B
:101250000010024000000140002809DB00F01F02DE
:10126000012191404009800000F1E020C0F8001108
:1012700070470000F0B40E4B1B680C46C3F302230A
:10128000C3F10705042D00D90425191D072901D232
:10129000002300E0DB1E012606FA05F1491E21406D
:1012A00099409E40761E16403143F0BC01F0ACBC24
:1012B0000CED00E0064900F0070208684FF6FF0356
:1012C000184040EA0220034A1043086070470000BB
:1012D0000CED00E00000FA052DE9F8430546007822
:1012E000354CC00754D0E0690026C00008D4E0693E
:1012F00040F08050E061E069012600F080500090ED
:101300002E480168C90512D40168804641F48071F5
:101310000160FFF7D3FC074605E000BFFFF7CEFCF6
:10132000C01B642823D8D8F80000C005F6D5206A71
:1013300010F4407021D0A98801F4407181421CD082
:10134000206A1F49012220F440700A6000220A60CE
:101350002062C00711D0FFF7B1FC074641F2883880
:1013600008E000BFFFF7AAFCC11B414502D90320DA
:10137000BDE8F883206A8007F4D5206A696820F404
:101380004070084320621EB1E06920F08050E061A7
:101390002878800705D56068A96820F44040084394
:1013A00060602878C00605D56068E96820F4800090
:1013B000084360600020DBE700100240007000403E
:1013C000400442422DE9F0470F46050061D0434EEC
:1013D000306800F00700B84209D2306820F00700FA
:1013E00038433060306800F00700B84251D12868B7
:1013F0003B4C810712D5400703D5606840F4E0609C
:1014000060602878000703D5606840F46050606031
:101410006068A96820F0F000084360602878C00781
:1014200028D06868012810D02168022810D08907C8
:1014300000292EDA616821F0030101436160FFF7A2
:101440003DFC804641F288390DE021688903EFE7D1
:101450008901EDE7FFF732FCA0EB0801494502D90D
:101460000320BDE8F0876068696800F00C00B0EB0D
:10147000810FEFD1306800F00700B8420BD9306817
:1014800020F0070038433060306800F00700B842B1
:1014900001D00120E5E72878400705D56068E968B4
:1014A00020F4E060084360602878000706D5606893
:1014B000296920F4605040EAC100606000F058F8EB
:1014C0006168084AC1F30311515CC84006490860CD
:1014D00006480068FFF750FE0020C2E700200240E7
:1014E0000010024042370008140000200C000020C9
:1014F0000F2202600C4A536803F0030343605368F1
:1015000003F0F0038360536803F4E063C360526840
:101510004FF4E06303EAD20202610448006800F07D
:1015200007000860704700000010024000200240E1
:101530000448054900684968044AC1F30221515C26
:10154000C8407047140000200010024052370008C5
:101550000448054900684968044AC1F3C221515C46
:10156000C8407047140000200010024052370008A5
:101570000E4A51680E4801F00C03042B11D0082BC1
:101580000FD10C48C1F38343C903C05C0AD551682D
:10159000084AC1F34041921E515C054A5043B0FBDA
:1015A000F1F07047044948437047000000100240C2
:1015B00000127A003237000800093D002DE9F84F8B
:1015C000040070D02078C04DC00749D06868C0F3CF
:1015D0008100012807D06868C0F38100022809D182
:1015E0006868C00306D52868800339D5606800287C
:1015F000E7D035E06068B0F5803F0BD010B1B0F5B2
:10160000A02F11D0286820F480302860286820F4AA
:10161000802002E0286840F480302860606890B143
:10162000FFF74CFB06460AE0286840F4802028605B
:10163000F0E700BFFFF742FB801B642873D82868DF
:101640008003F7D50CE0FFF739FB064605E000BF45
:10165000FFF734FB801B6428F0D828688003F7D498
:1016600020789A4E80074FF001094FF0000839D5D5
:10167000686810F00C0F07D06868C0F3810002287A
:1016800009D16868C00306D42868800714D520698A
:10169000012808D110E02069B0B1C6F80090FFF72A
:1016A0000DFB074605E00AE1FFF708FBC01B022817
:1016B000C4D828688007F7D52868616920F0F80049
:1016C00040EAC10028600DE0C6F80080FFF7F6FA96
:1016D000074604E0FFF7F2FAC01B022823D8286867
:1016E0008007F7D4207800072CD57948A169D9B1B3
:1016F000C0F80090FFF7E2FA074604E0FFF7DEFAD1
:10170000C01B02280FD8686A8007F7D571484FF4CC
:10171000FA510068B0FBF1F0009000BF0098411E44
:101720000091FAD20EE080E0C0F80080FFF7C6FA20
:10173000074604E0FFF7C2FAC01B022875D8686AA2
:101740008007F7D42078400760D5E8690027C000FB
:1017500008D4E86940F08050E861E869012700F0AA
:10176000805000905C480168C90513D40168834625
:1017700041F480710160FFF7A1FA824606E000BFE4
:10178000FFF79CFAA0EB0A0064284ED8DBF80000B3
:10179000C005F5D5E06801280AD008B1052813D0A6
:1017A000286A20F001002862286A20F0040002E084
:1017B000286A40F001002862E06841F2883B98B155
:1017C000FFF77CFA82460BE0286A40F004002862AA
:1017D000EEE700BFFFF772FAA0EB0A0159455AD8AD
:1017E000286A8007F6D50CE0FFF768FA824605E024
:1017F000FFF764FAA0EB0A0159454CD8286A800724
:10180000F6D41FB1E86920F08050E861E06988B340
:101810006968C1F38101022944D00228C6F86080BA
:1018200004D0FFF74BFA044638E034E0FFF746FAFD
:10183000074604E0FFF742FAC01B02282BD82868AD
:101840008001F7D4206AB0F5803F05D16868A168AF
:1018500020F4003008436860D4E90801084369684F
:1018600021F4741108436860C6F86090FFF726FA07
:10187000044606E025E000BFFFF720FA001B02281F
:1018800009D828688001F7D51BE000BFFFF716FADA
:10189000001B022802D90320BDE8F88F28688001C8
:1018A000F4D40EE00128F7D06868226A00F4803191
:1018B000914204D1616A00F47010884201D0012085
:1018C000EAE70020E8E70000001002400000424282
:1018D00080044242140000200070004070B50400F3
:1018E00009D0606A002540B125616561A56294F860
:1018F000510040B10CE0012070BD6068B0F5827FFE
:10190000F4D0E561F2E784F85050204600F040F84A
:10191000022084F851002068016821F04001016034
:10192000A088218900F4827001F404410843A18950
:1019300001F400610843217C01F002010843217D8C
:1019400001F001010843218B01F400710843217F5C
:1019500001F03801084394F8201001F08001084399
:10196000218D01F40051084321680860A069042119
:1019700001EA1040216848602068C16921F40061D3
:10198000C1616565012084F85100002070BD000030
:1019900030B585B00024009401940294039400684B
:1019A0001549884225D11548C16941F48041C1617A
:1019B000C16901F480410491816941F008018161AC
:1019C00080690F4D00F0080004904FF42040009013
:1019D000022001900320039069462846FFF778F81B
:1019E0004FF48040CDE90004694628460294FFF791
:1019F0006FF805B030BD0000003800400010024014
:101A0000000C01407047704770B590F83C20012AE7
:101A100026D0012480F83C40022280F83D20036853
:101A20005A689D6822F070060A6832435A600D4B6E
:101A300002689A4208D0B2F1804F05D00A4B9A4210
:101A400002D00A4B9A4204D1496825F08003194319
:101A5000916080F83D40002180F83C10084670BD40
:101A6000022070BD002C014000040040000800402E
:101A700010B5040003D094F83D0010B107E0012038
:101A800010BD002084F83C00204600F01FF8022022
:101A900084F83D00211D206800F0E6FE012084F856
:101AA000460084F83E0084F83F0084F8400084F843
:101AB000410084F8420084F8430084F8440084F82C
:101AC000450084F83D00002010BD000008B5006806
:101AD0000649884208D10648816941F40061816164
:101AE000806900F40060009008BD0000002C0140F7
:101AF0000010024090F83D10012901D001207047EC
:101B0000022180F83D100168CA6842F00102CA60F3
:101B100000680B49884208D0B0F1804F05D00949D0
:101B2000884202D00849884204D1816801F0070147
:101B3000062903D0016841F00101016000207047CF
:101B4000002C0140000400400008004070B504462D
:101B500090F83C000025012817D0012684F83C604D
:101B6000022084F83D002068826822F0770222F487
:101B70007F4282600868502838D00DDC20284FD082
:101B800005DC90B3102811D14AE0022070BD302846
:101B900046D040280AD13BE060282FD070280DD0D5
:101BA000B0F5805F03D0B0F5005F12D0012584F856
:101BB0003D60002084F83C00284670BDCB68D1E928
:101BC0000121206800F08CFE2068816841F07701D7
:101BD00009E0CB68D1E90121206800F081FE20688E
:101BE000816841F480418160E1E719E0CA68496891
:101BF000206800F029FF5021206806E0CA68496883
:101C0000206800F032FF6021206800F073FECEE70C
:101C1000CA684968206800F017FF40212068F4E78F
:101C2000226801461046F0E770472DE9F04104466E
:101C30000068C66805694FF00007A90713D5B1070A
:101C400011D5F91E01610120207720688069800785
:101C5000204602D0FFF7E8FF04E000F0B1F820468C
:101C600000F060F92777680716D5700714D521684A
:101C70006FF004000861022020772068806910F46A
:101C8000407F204602D0FFF7CFFF04E000F098F835
:101C9000204600F047F92777280715D5300713D5D8
:101CA00021686FF008000861042020772068C0696F
:101CB0008007204602D0FFF7B7FF04E000F080F86D
:101CC000204600F02FF92777E80616D5F00614D540
:101CD00021686FF010000861082020772068C06933
:101CE00010F4407F204602D0FFF79EFF04E000F092
:101CF00067F8204600F016F92777E80708D0F007C4
:101D000006D021686FF001000861204600F00CF950
:101D1000280608D5300606D521686FF080000861D6
:101D20002046FFF76FFE680608D5700606D52168C5
:101D30006FF040000861204600F000F9A8060AD5BF
:101D4000B00608D521686FF0200008612046BDE884
:101D5000F041FFF758BEBDE8F081000010B586B035
:101D6000002100910191029103910368114902221F
:101D70001148B3F1804F13D0104CA3420ED18B69A0
:101D800043F004038B61896901F004010491C021CF
:101D9000CDE9001269460392FEF79AFE06B010BD27
:101DA0008B6943F004038B61896901F0040104919C
:101DB0000F21EDE700100240000801400004004040
:101DC000704770B5044690F83C0000260D46012887
:101DD0000FD0012084F83C006AB1042A1DD0082AE3
:101DE0002FD00C2A3FD00126002084F83C0030463A
:101DF00070BD022070BD206800F084FD20688169FC
:101E000041F0080181612068816921F0040181614C
:101E1000206881692A69114311E0206800F09AFD69
:101E20002068816941F4006181612068816921F441
:101E300080618161206881692A6941EA02218161AA
:101E4000D2E7206800F0B2FD2068C16941F00801C6
:101E5000C1612068C16921F00401C1612068C169C4
:101E60002A69114311E0206800F0CCFD2068C169A7
:101E700041F40061C1612068C16921F48061C161E0
:101E80002068C1692A6941EA0221C161ACE710B545
:101E9000040003D094F83D0010B107E0012010BD0C
:101EA000002084F83C00204600F01EF8022084F850
:101EB0003D00211D206800F0D7FC012084F8460079
:101EC00084F83E0084F83F0084F8400084F8410024
:101ED00084F8420084F8430084F8440084F8450004
:101EE00084F83D00002010BD08B501680B48B1F131
:101EF000804F0BD00A4A914207D1C16941F00201DB
:101F0000C161C06900F00200009008BDC16941F0E4
:101F10000101C161C06900F00100F5E70010024055
:101F2000000400407047000000680349884201D166
:101F3000FFF708B97047000000080040704770B50F
:101F4000040004D094F84100002510B106E00120FF
:101F500070BD84F84050204600F024F8242084F816
:101F600041002068C16821F40051C160204600F0A2
:101F7000B5FD2068016921F4904101612068416943
:101F800021F02A0141612068C16841F40051C1601B
:101F90006564202084F8410084F8420065630020D5
:101FA00070BD000030B585B0002400940194029407
:101FB000039400681449884224D11448816941F48B
:101FC00080418161816901F480410491816941F01E
:101FD0000401816180690E4D00F0040004904FF40B
:101FE000007000900220019003200390694628466B
:101FF000FEF76EFD2815CDE90004694628460294D7
:10200000FEF766FD05B030BD00380140001002400B
:10201000000801402DE9F843044690F84100984635
:1020200016460D46202802D00220BDE8F88385B16F
:102030007EB100206064212084F84100FEF73EFE5E
:10204000A6848146E684A0682027B0F5805F02D090
:1020500003E00120E9E7206910B12E4600250EE0DB
:1020600000260CE08021204600F094FDA8B9C6B1FE
:1020700016F8010B21684860E08C401EE084E08C7B
:102080004B464FF00002CDF800800028EAD14FF017
:102090004001204600F07EFD40B184F841700320ED
:1020A000C3E735F8020BC0F30800E3E784F841709A
:1020B0000020BAE7FEE701684A69D24352050FD40F
:1020C0006FF480624A61002140F8301F2022427381
:1020D0008173026942F004020261017301207047BA
:1020E000002070472DE9F84F0446006889460B9D93
:1020F00001689846174641F48061016020680168D4
:1021000041F48071016000954FF0011B0022594697
:1021100020460A9B00F064F84FF4007A40B1206832
:102120000068C00501D5C4F840A00320BDE8F88FC1
:10213000216809F0FE0008612B46284920460A9ACA
:1021400000F096F8F0BB20684169806900902A464B
:1021500020460A9900F022F940B1206C04283AD1B7
:102160002068016841F40071016034E0FEB2B8F10A
:10217000010F09D02168380A08612A4620460A99C9
:1021800000F00CF90028E8D1206806612A462046B4
:102190000A9900F003F90028DFD12068016841F4B2
:1021A0008071016000950022594620460A9B00F08C
:1021B00017F80028B3D1216809F0FF0040F00100B2
:1021C000086100E007E02B46044920460A9A00F027
:1021D0004FF80028AAD00120A8E700000200010063
:1021E0002DE9F047984617460D460446C1F30746C9
:1021F000DDF820902AE000BFB8F1FF3F26D0FEF7BF
:102200005DFDA0EB0901414502D8B8F1000F1DD1D9
:102210002068012E16D0806925EA00000004000C19
:1022200012D00020B84211D1002044F8300F2021F4
:102230006173A073216941F02001216120730120A5
:10224000BDE8F0874069E7E70120EBE72068012E51
:102250000AD0806925EA00000004000C06D00020A6
:10226000B842C9D00020EBE74069F3E70120F7E767
:102270002DE9F047984616460D4604464FF00009F2
:102280004FF0200AC1F3074723E020684069C043AC
:10229000400515D42068016841F40071016021688F
:1022A0006FF480604861C4F8309084F83DA084F8F1
:1022B0003E90216C41F00401216484F83C9021E0BF
:1022C000701C06D0FEF7FAFCA0EB0800B04203D861
:1022D00016B1012F1FD021E02068012F15D0806991
:1022E00025EA00000004000C18D000BF44F8309F1D
:1022F00084F80DA084F80E90216941F0200121613D
:1023000084F80C900120BDE8F087406925EA0000C0
:102310000004000CEAD12068406901E0206880696F
:1023200025EA00000004000CAFD1ECE72DE9F041F4
:10233000002590460E460446202728E04069C04309
:10234000C0060CD454F8301B6FF01000486144F8FC
:1023500010596777A577206A2062257714E0FEF789
:10236000ADFCA0EB0800B04200D886B920684069F7
:10237000C04340060BD544F8305F6773A5732069EE
:1023800040F02000206125730120BDE8F081206825
:102390004169C9434906D1D40020F6E770B5164615
:1023A0000D4604461EE02046FFF785FE08B10120D9
:1023B00070BD681C16D0FEF781FC801BA84200D8B7
:1023C00085B920684069C04300060BD5002044F859
:1023D000300F20216173A073216941F02001216138
:1023E0002073E4E720684069C0430006DBD4002086
:1023F00070BD00003EB50024114800940194029481
:102400000E498460016004730475012505614FF471
:1024100060214460C161FEF7BBF908B1FEF738F9ED
:102420000820CDE90005694602940548FEF732F917
:10243000002801D0FEF72CF93EBD00000024014029
:10244000D40200200D4810B50B49016010214160F5
:1024500000218160C1600161416101764176817630
:10246000C17601774177FEF75DFA002803D0BDE819
:102470001040FEF70DB910BD0064004004030020B9
:1024800000B587B01C2206496846FDF769FF0021A8
:10249000684600F021FC0349086007B000BD000059
:1024A000143700080400002070B586B000241C48D2
:1024B0000094019402940394816941F020018161A8
:1024C000816901F020010491816941F00401816179
:1024D000816901F004010491816941F00801816181
:1024E0008069104E00F008004FF4905504900022CF
:1024F00029463046FEF7DCFB01200095CDE90104BA
:102500000220039069463046FEF7E2FA3820CDE912
:102510000004694630460294FEF7DAFA06B070BD50
:1025200000100240000C01400D4810B50B4901603D
:102530000C49416000214FF480428160C0E90312E0
:1025400041618161C1610162FEF7BEFB002803D0D9
:10255000BDE81040FEF79CB810BD000000540040DC
:102560002C030020A08601000D4810B50B49016026
:102570000C49416000214FF480428160C0E90312A0
:1025800041618161C1610162FEF79EFB002803D0B9
:10259000BDE81040FEF77CB810BD000000580040B8
:1025A00080030020A08601000F4810B50D4901608E
:1025B0004FF48271416000218160C1604FF400726C
:1025C0000161C0E90512C1610162416281620A21B3
:1025D000C162FFF783F9002803D0BDE81040FEF781
:1025E00057B810BD00380040D403002010B586B0A5
:1025F000002417480094019402940394049413490E
:102600000594C0E900144FF6FF71C0E9024104616E
:1026100044618461FFF72CFA08B1FEF739F84FF4F2
:102620008050009069460A48FFF790FA08B1FEF71B
:102630002FF8049404A906480594FFF7E5F900284B
:1026400001D0FEF725F806B010BD0000002C0140B7
:102650002C04002010B58AB0002407941C21684681
:102660000894FDF7AFFE21484FF08041C0E9001407
:102670004FF6FF71C0E9024104618461FFF707FC76
:1026800008B1FEF705F8079407A918480894FFF762
:10269000BBF908B1FDF7FCFF6020CDE9000402940E
:1026A0000022694611480494FFF78BFB08B1FDF73F
:1026B000EFFF042269460D48FFF783FB08B1FDF7E1
:1026C000E7FF082269460948FFF77BFB08B1FDF7E1
:1026D000DFFF0C2269460548FFF773FB08B1FDF7E1
:1026E000D7FF0248FFF73AFB0AB010BD7404002080
:1026F00010B58AB0002407941C2168460894FDF7A1
:1027000061FE1A481849C0E900144FF6FF71C0E98C
:10271000024104618461FFF7BAFB08B1FDF7B8FF1D
:10272000079407A911480894FFF76EF908B1FDF75F
:10273000AFFF6020CDE900040294002269460B48F7
:102740000494FFF73EFB08B1FDF7A2FF042269469F
:102750000648FFF736FB08B1FDF79AFF0348FFF77D
:10276000FDFA0AB010BD000000040040BC040020C7
:102770000C4810B50A4901604FF4E1314160002175
:1027800081600C22C160C0E904128161C161FFF760
:10279000D6FB002803D0BDE81040FDF779BF10BD7F
:1027A0000038014004050020FEE7FEE7012000F0AC
:1027B00087FAFBE710B5502080F31188BFF34F8FE5
:1027C000BFF36F8F00F0DEFE18B104494FF0805068
:1027D0000860002080F3118810BD000004ED00E0C7
:1027E00030B593B028216846FDF7ECFD14210AA806
:1027F000FDF7E8FD002501200F95109511950104C6
:1028000012958DE8230004904FF4E010CDE90810F4
:10281000022407946846FEF7D1FE08B172B6FEE7BF
:102820000AA90F2081E831004FF48060CDE90D0541
:1028300002210AA8FEF7C6FD08B172B6FEE74FF402
:10284000004011900F940FA8FEF746FD002801D01C
:1028500072B6FEE713B030BD704700000148FFF7C5
:10286000E4B900004C050020F0B50268194B1A4C81
:102870001A4D4FF08047984205D0B84203D0A0428D
:1028800001D0A84203D122F070064A683243984230
:1028900005D0B84203D0A04201D0A84203D122F40F
:1028A0004074CA6822434C6922F0800222430260CD
:1028B0008A68C2620A688262984201D1096901632A
:1028C000012141610169C90703D0016921F00101BA
:1028D0000161F0BD002C01400004004000080040F0
:1028E00010B5846842EA032224F47F440A43224359
:1028F000826010BD826822F070020A4342F0070134
:102900008160704730B5036A026A22F001020262F8
:102910004268846924F073050C682C4323F0020597
:102920008B682B430A4DA8420BD123F00805CB68D6
:1029300022F440722B434D6923F0040315438A6946
:102940002A434260846149684163036230BD0000EC
:10295000002C014030B5026A036A23F010030362C1
:10296000436884690D6824F4E64444EA05248D68CC
:1029700022F0200242EA05120B4DA8420ED1CD688A
:1029800022F0800242EA05124D6923F4406343EAD3
:1029900085038D6922F0400243EA85034360846128
:1029A00049688163026230BD002C014030B5036A82
:1029B000026A22F4807202624268C46923F40073DE
:1029C00024F073050C682C438D6843EA05230C4DF5
:1029D000A8420ED1CD6823F4006343EA05234D6974
:1029E00022F4405242EA05128D6923F4806342EAE0
:1029F00005124260C4614968C163036230BD0000D2
:102A0000002C014030B5046A026A22F4805202624E
:102A10004268C3690D6823F4E64343EA05238D68E1
:102A200024F4005444EA0534064DA84204D14D690B
:102A300022F4804242EA85124260C361496801641F
:102A4000046230BD002C014010B5036A046A24F012
:102A500001040462846924F0F00444EA021423F0BF
:102A60000A020A438461026210BD10B5036A046A57
:102A700024F010040462846923F0A00324F4704459
:102A800044EA023243EA01118261016210BD016829
:102A90000C3151E8002F22F4907241E80023002B02
:102AA000F5D10168143151E8002F22F0010241E80C
:102AB0000023002BF5D1016B012909D101680C31EC
:102AC00051E8002F22F0100241E80023002BF5D13D
:102AD000202180F8421000210163704770B5044640
:102AE00000680169E26821F44051114301612169E4
:102AF000A0680843616908432168CA6841F20C6311
:102B00009A430243CA6020684169A26921F4407176
:102B1000114341611E492068884202D1FEF718FD29
:102B200001E0FEF705FD00EBC00101EB001260685B
:102B300064218000B2FBF0F3B3FBF1F36FF01806F1
:102B40007343B2FBF0F5B2FBF0F605EB83053223DD
:102B500003EB0515B5FBF1F5B6FBF1F605F0F00555
:102B600005EB0615B2FBF0F6B2FBF0F0B0FBF1F0AE
:102B70006FF01802504306EB800003EB0010B0FB2F
:102B8000F1F0216800F00F002844886070BD00005B
:102B9000003801402DE9F843984617460D46044693
:102BA000089E24E0701C22D0FEF788F8A0EB0800F5
:102BB000B0421AD8CEB12068C168490717D5802D18
:102BC00015D0402D13D00168C94309070FD40168FF
:102BD0000025406800902046FFF759FF08206064F8
:102BE00084F840500120BDE8F8830320FBE720680B
:102BF000006835EA000004D00020B842D2D000209E
:102C0000F1E70120F9E7FEE70907090E002804DBD8
:102C100000F1E02080F80014704700F00F0000F190
:102C2000E02080F8141D704713B54FF6FF730122A2
:102C300069460248FFF7EEF900981CBD0405002024
:102C4000FEF788FAFFF7CCFDFFF72EFCFFF7D2FB6B
:102C5000FFF7F8FBFFF7CAFCFFF7FCFCFFF748FDA6
:102C6000FFF786FDFFF760FCFFF77EFCFFF79CFC9B
:102C7000FFF706FC00F02BF8FDF7BCFC0446FDF75F
:102C8000DFFC0246214603A0FDF7EEFA6420FDF7C3
:102C90000DFFF1E74153353630305F313A2025647E
:102CA0002C204153353630305F323A2025640D0AEE
:102CB0000000000001460020842900D0C81C704795
:102CC00010B500B9012000F01FFB002010BD10B5A9
:102CD00000F040FB002010BD7FB50D460446416961
:102CE000B0F9080081B1A16971B1FFF7E3FFD4E940
:102CF00005128DE80700D4E900102B46226900F088
:102D000016FC039004B070BDFFF7D4FF03A9CDE912
:102D10000001208A2B4682B2D4E9001000F0DAFBD1
:102D2000012801D00020EDE70398EBE72DE9F04101
:102D3000184C0F460546E6682068001D00F01CFA96
:102D400038B9206890F82C1001208840216981430F
:102D50002161681C07D137B12168BDE8F0410E48F8
:102D6000091D00F04DBA20683544B5424560216820
:102D700005D2A06BBDE8F041091D00F029BA606BD7
:102D8000091D00F025FAA06A854200D2A562BDE8BF
:102D9000F081000018000020700600202DE9F041AD
:102DA000054600F039FA2E4CA068401CA06020684F
:102DB0002C4F10B1606940B32DE02560A068012858
:102DC00029D1002606EB860007EB800000F0F2F91F
:102DD000761C072EF6D323488C3000F0EBF92148FF
:102DE000A03000F0E7F91F48B43000F0E3F91D48C7
:102DF000C83000F0DFF91B48DC3000F0DBF919487F
:102E00008C3060631430A06305E02068E96AC06A12
:102E1000884200D82560606A401C6062E96A01202F
:102E2000226988401043206101EB810007EB80009C
:102E3000291D00F0E5F900F00FFA606900280CD0B8
:102E40002068E96AC06A884207D207494FF080507B
:102E50000860BFF34F8FBFF36F8FBDE8F0810000B4
:102E6000180000209405002004ED00E010B5044691
:102E700090F8510058B101280CD002280FD05020F2
:102E800080F31188BFF34F8FBFF36F8FFEE7206B86
:102E900000F0F6F92046BDE8104000F0F1B910BD91
:102EA00010484FF44061420706D0C01D0D4920F084
:102EB0000700411AC1F540610B4A00230144C2E9F1
:102EC00000030839183A21F0070111604B600B60CC
:102ED0000B1AC0E9001393604FF00040536050613B
:102EE00070470000840600206C000020144E154C32
:102EF000A6F1C8074FF08058DFF84C9012E000BFF1
:102F000000F08AF9F068C568281D00F035F9A0685E
:102F1000401EA0606068401E606000F09DF9284679
:102F2000FFF7A4FF60680028EAD138680128F9D9C2
:102F3000C9F80080BFF34F8FBFF36F8FF2E7000037
:102F40005C0600201800002004ED00E02DE9F047A9
:102F50009A46DDE9098481466FF00303206B03EB99
:102F600082021044089E20F00707780707D05020FF
:102F700080F31188BFF34F8FBFF36F8FFEE70025FB
:102F800061B1002023180A5C83F834200A5C12B176
:102F9000401C1028F6D384F8435001E084F83450E4
:102FA000072E00D30626E662C4E91165201D00F055
:102FB0000CF904F1180000F008F92461C6F10700CB
:102FC0006462A061E56484F8505052464946384630
:102FD00000F0C0F82060B8F1000F01D0C8F8004040
:102FE000BDE8F08730B5114900E011460A68824219
:102FF000FBD34B685C18844203D140681844486096
:10300000084643681C18944209D1084C183C2468AF
:10301000A24209D052681A4442600A6812680260EB
:10302000814200D0086030BD0460F9E76C000020E8
:103030000648416B096829B1416BC968C96849688C
:10304000816270474FF0FF31FAE70000180000205E
:1030500008484068401C4FF0500080F3118804D0AD
:10306000BFF34F8FBFF36F8FFEE7BFF34F8FBFF3F9
:103070006F8FFEE7740000202DE9F0410546002720
:1030800000F09EF9324E306808B9FFF709FF706909
:1030900005424ED1C5B3083568070ED005F00700CC
:1030A000C0F108000544680707D0502080F311885C
:1030B000BFF34F8FBFF36F8FFEE72DB3706885426C
:1030C00037D82348183001460C6801E020460C46EA
:1030D0006168A94202D221680029F7D131688C4287
:1030E00027D007682168016060680837411B1029F4
:1030F0000FD96019420708D0502080F31188BFF320
:103100004F8FBFF36F8FFEE713E041606560FFF7FD
:1031100069FF61687068401A7060B268904200D2BE
:10312000B060706901430020C4E90001F068401CF0
:10313000F06000F08DFA780707D0502080F31188F6
:10314000BFF34F8FBFF36F8FFEE73846BDE8F081C6
:103150005400002010B5031F4FF080741C601B1F2B
:1031600021F001011960191F024B0B60143940381E
:103170000A6010BD51300008D0E9013201699A603F
:10318000D0E901235A604A68824201D182684A60CC
:10319000002202610868401E08600868704700004D
:1031A000034B036003F154000860802010607047F7
:1031B0008000002000F108014FF0FF32C0E9011249
:1031C000C160016100210160704700210161704709
:1031D00030B50B685A1C02D000F1080202E0026907
:1031E00004E02246546825689D42FAD953684B6032
:1031F00099608A60516008610168491C016030BDB6
:1032000042684A6093688B60936859609160086176
:103210000168491C01607047502080F31188BFF39A
:103220004F8FBFF36F8F0A494868401C48600128E0
:103230000CD10848006810F0FF0F07D0502080F331
:103240001188BFF34F8FBFF36F8FFEE77047000009
:103250007400002004ED00E00849486828B1401ED1
:10326000486001D180F311887047502080F31188A5
:10327000BFF34F8FBFF36F8FFEE700007400002095
:1032800070B500282AD0164DA0F10804606869695D
:10329000084207D1502080F31188BFF34F8FBFF34E
:1032A0006F8FFEE722683AB1502080F31188BFF398
:1032B0004F8FBFF36F8FFEE78843606000F080F8A8
:1032C00060686968084468602046FFF78BFE2869DB
:1032D000401C2861BDE8704000F0BAB970BD000024
:1032E000540000204FF0E020002101618161054978
:1032F0004FF47A720968B1FBF2F1491E416107216E
:10330000016170471400002010B5020014D00F486E
:10331000006B38B1502080F31188BFF34F8FBFF39B
:103320006F8FFEE700F04CF800211046FFF7FEFC1F
:1033300000F08EF9002807D105494FF08050086051
:10334000BFF34F8FBFF36F8F10BD00001800002038
:1033500004ED00E010B586B00024039405AA04A98A
:1033600003A80494FFF71CFFDDE903010094CDE9F5
:10337000011000230EA11048059A00F0D8F80F495B
:103380000028C86211D0502080F31188BFF34F8FFE
:10339000BFF36F8F4FF0FF30886201204861CC602F
:1033A00006B0BDE8104000F041B806B010BD000006
:1033B00049444C4500000000ED2E00081800002094
:1033C0000248016B491C016370470000180000208F
:1033D0001448016B11B10121C16170470021C16125
:1033E0000169B1FA81F1C1F11F0101EB81020E49BE
:1033F00051F822306BB101EB820101F108034A68F8
:1034000052684A609A4201D152684A60D1680160AC
:103410007047502080F31188BFF34F8FBFF36F8F39
:10342000FEE7000018000020940500201CB5264986
:1034300008780190FF20087008788DF800009DF84A
:1034400000009DF8002000F0F000904207D05020CE
:1034500080F31188BFF34F8FBFF36F8FFEE79DF8A6
:1034600000001A4C00F0500020700720A06005E01A
:103470009DF8002052008DF80020401E9DF800208D
:103480001206F5D4A060032807D0502080F31188DD
:10349000BFF34F8FBFF36F8FFEE74FF44070A06014
:1034A000019808700A48016841F4700101600168E0
:1034B00041F070410160FFF715FF00206060FCF7EC
:1034C00079FE00201CBD000000E400E07400002034
:1034D00020ED00E02DE9FF5F8346DDE90E87994688
:1034E00016468A469000FFF7C7FD05001CD0542001
:1034F000FFF7C2FD040014D00020256384F85100BA
:10350000CDE90240CDE900874B4632465146584648
:10351000FFF71CFD2046FFF741FC012004B0BDE889
:10352000F09F2846FFF7ACFE4FF0FF30F6E7F0B50E
:1035300085B0DDE90B640A9DA6B1DCB15427009784
:103540002663022684F85160002604AFCDE90246C6
:10355000CDE90057FFF7FAFC2046FFF71FFC04985F
:1035600005B0F0BD502080F31188BFF34F8FBFF33B
:103570006F8FFEE7502080F31188BFF34F8FBFF3AA
:103580006F8FFEE72DE9F0412F4C0026206B28B10C
:10359000A069401CA0613046BDE8F081E5686D1C63
:1035A000E56013D1606B006838B1502080F311885A
:1035B000BFF34F8FBFF36F8FFEE7606BA16B61634B
:1035C000A063206A401C2062FFF732FDA06ADFF88A
:1035D0007C80854209D3606B0068A0B1606BC068D5
:1035E000C7687868854211D2A0622068C06A00EB83
:1035F000800158F82100012800D90126E06900283F
:10360000C9D00126C7E74FF0FF30EDE7381DFFF7BF
:10361000B3FDB86A18B107F11800FFF7ADFDF96AFC
:103620000120226988401043206101EB810108EBF1
:103630008100391DFFF7E4FDF86A2168C96A8842F4
:10364000C9D30126C7E70000180000209405002018
:103650002DE9F0472C4D00242746286B38B1FFF7A1
:10366000DBFD286B401E2863286B40B146E05020EC
:1036700080F31188BFF34F8FBFF36F8FFEE7A96808
:10368000224E0120D1B3A6F1B40980463068E8B1DA
:10369000F068C46804F11800FFF76EFD201DFFF705
:1036A0006BFDE06A2A6908FA00F11143296100EB19
:1036B000800109EB8100211DFFF7A2FDE06A296866
:1036C000C96A8842E2D3C5F81C80DFE70CB1FFF776
:1036D000AFFCAC6944B14646FFF754FF00B1EE6160
:1036E000641EF9D10020A861E86938B108490127B2
:1036F00038070860BFF34F8FBFF36F8FFFF7ACFD44
:103700003846BDE8F0870000180000204806002079
:1037100004ED00E05C370008AD2700080000000061
:103720000000000080000000000000000000000019
:10373000010202030405060708090A0B0C0D0E0F0F
:103740001010000000000000000001020304060742
:1037500008090000000001020304000064656661BE
:10376000756C745461736B0088370008000000208A
:1037700080000000280100080838000880000020B0
:10378000681800004401000800000000000000006C
:1037900001000000100000000000000000127A008C
:1037A0000000000000000000000000000000000019
:1037B0000000000000000000000000000000000009
:1037C00000000000000000000000000000000000F9
:1037D00000000000000000000000000000000000E9
:1037E00000000000000000000000000000000000D9
:1037F00000000000000000000000000000000000C9
:08380000AAAAAAAA0000000018
:04000005080000ED02
:00000001FF
