:020000040800F2
:10000000F8FF0120F19009088D910908F9610508B0
:100010008D9109088D9109088D9109080000000053
:100020000000000000000000000000008D910908A1
:100030008D910908000000008D910908B131050873
:100040008D9109088D9109088D9109088D910908F4
:100050008D9109088D910908212804082928040890
:10006000312804083928040841280408C50600007E
:10007000D9060000ED06000001070000150700008A
:10008000290700003D0700008D9109088D9109089E
:100090008D9109088D9109088D9109084928040856
:1000A0008D910908F15504088D910908E15504085E
:1000B000015604081156040821560408C11E0408FC
:1000C000B51E0408F51E0408E91E04088D910908F0
:1000D0008D9109083110000085110000D91200002F
:1000E000512804088D91090800000000ED5604080D
:1000F000C5560408FD560408B5560408510700000B
:100100008D910908694B0408315604088D9109083E
:100110002D140000811500004156040845CD080843
:1001200065070000790700008D070000A1070000A7
:10013000B50700008D9109088D9109088D91090876
:1001400000000000000000000000000000000000AF
:10015000C9070000DD070000F1070000D516000008
:10016000291F04081D1F04088D9109088D91090895
:100170008D9109088D9109088D91090800000000F2
:100180008D9109088D910908291800007D1900003A
:100190008D9109088D9109088D9109088D910908A3
:1001A0008D9109088D9109088D9109088D91090893
:1001B0008D9109088D9109088D9109085D1F04082A
:1001C000511F04088D9109088D9109088D91090826
:1001D0008D9109088DD308088D9109088D91090822
:1001E0008D9109088D9109088D9109088D91090853
:1001F0008D9109088D9109088D9109088D91090843
:100200008D9109088D9109088D9109088D91090832
:100210000D5704081D5704082D5704088D9109082F
:100220008D9109088D9109088D9109080000000041
:100230006D4B04088D910908000000008D9109089C
:100240008D9109088D9109088D9109088D910908F2
:100250008D9109088D9109088D9109088D910908E2
:100260008D9109088D9109088D9109088D910908D2
:100270008D9109088D910908D11A00000000000035
:100280008D910908000000008D9109080000000010
:08029000000000008D91090837
:020000040804EE
:100000004368426D30B49A61EFF31182502383F359
:1000100012884168D2B2856C0B68046D23EA05032F
:1000200023430B6082F31188436981681A68096869
:1000300022F00102D0E908541A60826A1D605C61F6
:100040005A60D0E90B429C60DA600023B0F86C2063
:1000500030BCCA620377704730B5FAB18E464FEABA
:10006000014C034600F1C005002419680C3353F815
:10007000042C43F8084C41EA0C0142EA0E02AB4260
:1000800043F80C1C43F8042CEFD1D0F8C03043EAFD
:100090000E03C0E93144C0F8C03030BD4FEA014E14
:1000A0008C46DEE710B40C4C6368002B11DD002099
:1000B00004F1080C0146DCF8AC3003F1C0025960D1
:1000C0000C339342FBD1013063680CF5867C83428C
:1000D000F1DC5DF8044B704704000020F0B5474C9C
:1000E00004EB401292F8543403B9F0BD4FF4B47CE1
:1000F000434B00264FEA401E0CFB004C9CF83A553F
:100100008CF83A6582F83A541D785A7895420DD0A9
:1001100002EB420C560003EBCC0C9CF804C00CF133
:10012000FF37012F5DD9BCF1030F55D004EB0E0052
:10013000A0F83814EFF31183902282F3128890F81C
:100140003A24DBB2B0F8381442EA4102002192B2FC
:1001500080F83A1483F311881309247883EA122370
:1001600083EA0201DCB11301C943D0F85024012411
:10017000D0F83C049BB201F00F01D2F8AC208440CF
:100180000B4302F1C000590013F4004F8BB202D1AF
:100190005168214351600C328242F4D1F0BD130109
:1001A000D0F83C44D0F8502401F00F0104F11000C5
:1001B0009BB20124D2F8AC200B43844002F1C00072
:1001C000590013F4004F8BB202D1516821435160A2
:1001D0000C329042F4D1F0BD571C07F00307AF4238
:1001E000A4D0324403EBC2030344597C00299DD0C0
:1001F00004EB0E03012283F83A2497E70400002061
:10020000481A0024704700BF024B03EB401090F8DF
:100210005504704704000020704700BF0A4810F8DA
:100220004C1C81B101EB410100234438490010B45A
:100230001C4650F82320063302B114608B42F8D1DB
:100240005DF8044B70477047FC1000200A4810F816
:100250004C1C81B101EB410100234438490010B42A
:100260001C4650F82320063302B114609942F8D19D
:100270005DF8044B70477047FC1000200120704768
:10028000034B00EB400003EBC00010F8330C704749
:10029000FC1000202DE9F0431D4C14F84C3CABB38E
:1002A0000022A4F144034FF0500E1A4E4FF02C0CD4
:1002B000194F154607E053F8181B01320D6014F86A
:1002C0004C1C914222DD197C0029F4D05968FE2093
:1002D0004FEA9128A8F58018B8F1520F98BF17F887
:1002E0000800EFF311888EF31288D1F824900CFBEC
:1002F00000605FFA88F809F10109C0F88C9048693C
:1003000040F00100486188F31188D4E7BDE8F0832C
:10031000FC100020481A002448AB090807EE900A98
:10032000B8EE670A704700BFBCEEC00A10EE103A84
:1003300098B27047C84BD3E9BE1270B58C0FC2F3A8
:10034000072C100E83F82843C1F38364000183F85F
:100350002943C1F3016483F82A43C1F3074483F8B6
:100360002B43C1F30724C9B283F82C43C2F30354CF
:1003700083F82D13A3F82E03C2F3C030B3F82E1365
:1003800089B22143C2F30344A3F82E13C2F34031D0
:1003900083F83043C2F3803483F83103002083F8BC
:1003A000324383F83313C2F3003183F8341393F8E4
:1003B000801383F83503012940F2F380022900F00D
:1003C000C580D3F800132A204FEA4C0C83F8414330
:1003D000C1F3C01201F07F010CF07E0C83F842C320
:1003E0004FF0010C93F842431443D3F8042383F8ED
:1003F0004243D40F83F84313910D83F84443C2F36F
:10040000417401F00C01C2F3815583F84543C2F3F6
:10041000826483F8464383F8471393F84713D3F86D
:100420000843294383F84713C2F3405183F8481324
:10043000002183F84913C2F3004183F84A13C2F341
:10044000C03183F84B13C2F3803183F84C13C2F3ED
:10045000403183F84D13C2F3003183F84E13C2F3D9
:10046000812183F84F13C2F30121C2F3460283F8BE
:100470005013C4F3074183F85123220E090283F875
:1004800052C383F85423C4F30722A3F85613240657
:10049000B3F8561389B21143A3F85613D3F80C13CB
:1004A000C3F858430C0ED3F8582342EA0442C3F869
:1004B00058230A0AD3F8584302F47F422243C1F377
:1004C0000724C9B2C3F85823D3F85853D3F81023DC
:1004D0002C43C3F8584383F85C13110E83F85D1363
:1004E000110C0906C3F860131102D3F860430A46E1
:1004F00001F47F01214392B2D3F81443C3F860138F
:10050000D3F860130A43C3F86023C4F30352D3F84B
:10051000601341EA1461C3F8601393F86413114344
:10052000C4F3072283F86413210A01F47061A3F86D
:100530006613B3F8661389B21143C4F34602A3F8F5
:10054000661383F8682383F869C370BD1204D3F877
:10055000001302F47C12C1F3072CC3F838230A0EEF
:10056000D3F8384344EA0224C1F30742C3F83843BE
:10057000D3F8384322434FF40074C3F83823D3F838
:100580003823C3F87843013240F10004A40244EA5E
:1005900092549202C3F87443C1F38034C3F87023B9
:1005A00012E74FEA8C2CD3F8001392004FF0010EA3
:1005B0000CF44064C1F3C26502F47F72C1F3072CEE
:1005C000C3F83843D3F838432243CC0BC3F838235D
:1005D00004F00602D3F8384344EA9174C3F8384370
:1005E000C1F3026483F83C5383F83D43C1F34254A2
:1005F00083F83E43C1F3824483F83F43C1F3C034E0
:1006000083F8402393F84023224383F84023D3F810
:10061000384393F8402393F8305302320EFA05F52D
:100620000EFA02F2C3F87853D617A2FB052E05FB8B
:1006300006EE04FB0EEE0134A2FB0424A644520A8B
:10064000C1F3803442EACE52C3F870234FEA5E22EF
:10065000C3F87423B8E600BF481A002438B5074B26
:1006600014460D46D3F884331B6A984702464FF46C
:100670000073002012682A60238038BD481A0024C5
:1006800008B5074BD3F8843333B15B69984780F0E2
:100690000100404240B208BD4FF0FF3008BD00BF2E
:1006A000481A0024002070472DE9F04123B3164674
:1006B00088469F18144DD5F88443002341463046A0
:1006C000A4681A46A0470028F5D0D5F8843333B182
:1006D0005B69984720B9D5F88433002BF8D1FEE741
:1006E000013608F50078B742E5D1D5F88833002007
:1006F000C5F88C33BDE8F081034D0020D5F8883370
:10070000C5F88C33BDE8F081481A00242DE9F0418A
:100710005BB316460F4603EB0208184C04E0D4F80E
:10072000841319B14B699847D4F8841300230D69D9
:10073000304639461A46A8470028F0D1D4F8843309
:1007400033B15B69984720B9D4F88433002BF8D1D2
:10075000FEE7013607F50077B045E5D1D4F88833D8
:100760000020C4F88C33BDE8F081044C0020D4F89C
:100770008833C4F88C33BDE8F08100BF481A0024E8
:100780000020704770B50E4E0D461446D6F8E4337F
:100790003BB11A689B881269134096F8E12352B165
:1007A0005BB9FFF7C7FDD6F870234FF40073002044
:1007B0002A60238070BD002BF3D14FF0FF3070BD55
:1007C000481A00240020704700207047034B93F81C
:1007D000B403003818BF0120704700BF481A002436
:1007E000826D136A5B681B78FF2B08D090F8F0309D
:1007F000013BDBB280F8F0301BB1012070470020D4
:100800007047126A0220526813707047836D1B6A2A
:100810005B681B78FF2B0AD190F8F030002B03F1B6
:10082000FF3280F8F02014BF012002207047002022
:10083000704700BF034B93F8B403032894BF002014
:1008400001207047481A002400487047001E002409
:10085000034B93F8B403003818BF0120704700BF62
:10086000481A0024034B93F8B403032894BF0020D4
:1008700001207047481A002400487047001E0024D9
:10088000174B002030B493F82A4014B1DD698D4233
:1008900005D0013010330B28F5D130BC7047114B17
:1008A000A2B1D3F89C1401EB40218A4201D1022C61
:1008B00005D093F86C2672B1012283F8852403EBEE
:1008C0000013012283F8AE2430BC704703EB001004
:1008D00080F8AE24E1E7012283F86C26ECE700BF44
:1008E000CC1E0024481A0024002330B41A4C04F211
:1008F000844084F8583503E0013310300B2B19D0B5
:10090000C5698D42F8D190F82AC0BCF1030FF3D12C
:1009100092B1D4F89C1401EB43218A4205D094F89B
:100920006C26A2B1012284F8852404EB0313012272
:1009300083F8AE2430BC7047D4F8542504EB03137D
:100940000421013283F8AE14C4F85425F2E70122E1
:1009500084F86C26E6E700BF481A00242DE9F04130
:100960001C4D12F049FC0026074669684FF4867852
:10097000002918DD00231C4608FB0352013392F8BE
:1009800005218B4244EA0204F6D112F035FCC01B6B
:10099000B0F5FA6FCCBF002304F00103B3B169686E
:1009A0001E460029E6DC12F027FC26B10A4B93F81C
:1009B000DC26542A02D03046BDE8F081B3F8E426A4
:1009C00030460132A3F8E426BDE8F0813443E6B2B4
:1009D000EBE700BF04000020481A00242DE9F04F87
:1009E000BD4D87B02B781BB9012007B0BDE8F08F53
:1009F0006B68BA4A002BD2F8887318DD05F1080439
:100A00000020B749D4F8F430BFF34F8F03F590724C
:100A1000C1F85C3220339342FAD1BFF34F8FBFF35A
:100A20006F8F01306B6804F586749842EADBAD4B3A
:100A3000AD4EA3FB0723AD4FDFF8C8A25B09A7F1BA
:100A40007C0BA6FB0326F60806EB8606A3EB460600
:100A5000F3B207EB8606059307F53873029300237C
:100A60009946DBF864344B4540F30F81DAF81830CF
:100A7000DAF80480D3E93D5412F0BEFB0122049061
:100A800002FA08F39A4901936118944B05EB41016E
:100A900093F8F00693F8DC361A46039305EB40030F
:100AA000542A00F04181019A994240F24481B3F8FE
:100AB00000C01CEA020F00F04D81B3F802C01CEA2E
:100AC000020F00F04A81B3F804C01CEA020F00F0E4
:100AD0004781B3F806C008331CEA020FE4D1019243
:100AE000A3EB050E99424FEA6E0E40F22481A4EB6F
:100AF0000E04452C28BF452403EB4404A34280F098
:100B00001F8100259C46019AA8462946019618880F
:100B10001040884214D158881040814240F0D7805C
:100B200098881040814240F0D480D8880833104023
:100B3000814206D19C4207D9188810408842EAD0E9
:100B400002339C4200F2A880B8F1110F019E40F2DE
:100B5000F780D8F1150200F1F3806649049C0B6818
:100B60009E455E4BD3F8F40638BFC1F800E0231A67
:100B7000002B13DB604B03449C4200F2F680574885
:100B8000C0F8F4360B68052B40F2ED80053BDBB274
:100B9000524880F8F0364FF0FF330B6042B105FA4F
:100BA00002F2C8F11408012505FA08F848EA02051E
:100BB000524BC5F3C43203EB8202506D05F01F02A5
:100BC00003EB8202516DC5F34412C5F3842503EB98
:100BD000820203EB850541EA0031536D41EA0311BE
:100BE0006B6D41EA032181EA112383EA131303F0B9
:100BF0000F030F2B40F08880B1F5803F80F0848098
:100C0000039B0909542B05D1344AB2F8E03601336D
:100C1000A2F8E036DBF86433B1F5606F03F101034D
:100C2000CBF8643300F0B380029B998197F8583079
:100C3000059883420CD0B2683B689B1A3B607B6886
:100C4000326B9B1A7B600023B360336387F85800D4
:100C50003B6801333B60B3680133B3604FF6FF7309
:100C6000994205D17B6801337B60336B0133336379
:100C7000029B09F101095C375C361433B9F1080FA6
:100C80000AF1200A02937FF4ECAE012301208BF8D5
:100C9000603407B0BDE8F08FA3EB0C0C184833F8B4
:100CA000021C4FEA6C0C11400CF1010C80FB0C6033
:100CB000A0EBEC704FF0010C0128B8BF012085407B
:100CC000804401380CFA00F09C4605431FE70433CA
:100CD00037E7063335E700BF04000020481A002438
:100CE00000ED00E01F85EB51CDCCCCCC781100207D
:100CF000C7FFFF7F0000002420A1070048AB0908C0
:100D0000565555553C040020039B542B33D0DBF83B
:100D100064330133CBF86433DBF860334FF6FF7193
:100D20000133CBF8603381E7204A9942A2F8E60606
:100D3000019A3FF6BCAE18B101381C4B83F8F0069F
:100D4000039B542B94D1194AB2F8E2360133A2F82E
:100D5000E2368DE702330192C2E604330192BFE628
:100D600006330192BCE6002312E704980F4B0530CE
:100D7000C3F8F40606E70D4AB2F8E0360133A2F8EC
:100D8000E036DBF864330133CBF86433C4E7074A59
:100D9000537803EB430302EBC3034B445B7C0D2B03
:100DA0007FF442AF8023029A93773FE7481A0024EA
:100DB00010B5044658F054FF0146204689B2BDE8FC
:100DC0001040FFF78BB900BF00EB400010B5084C96
:100DD00004EBC00414ED0F7A54ED0E7AE7EE007ABE
:100DE000B0EE670A58F03CFF54F8443C186010BD60
:100DF000FC100020F8B5264B1A785B789A4242D155
:100E0000244E7368002B23DD002506F10800224CD8
:100E10002F46D0F8AC30BFF34F8F03F1E002C4F897
:100E2000683220339342FAD1BFF34F8FBFF36F8FF5
:100E3000337813B1037F012B20D0426901357168EB
:100E400000F586701368A94243F001031360E0DCEB
:100E500012F0D2F9114BD3F86844002C0DDD03F2E7
:100E60006C4303EBC4041968083333F8042CC868D6
:100E70009C4242EA0002CA60F5D1F8BD80F8FC70DD
:100E8000FFF7BEF8D9E752F097FE0028B8D1F8BDB9
:100E9000481A00240400002000ED00E0FC100020AF
:100EA0004FF0B042F8B5D2F88030D2F888502B40DD
:100EB00003EA0005C2F888507DB1084F0126B5FA53
:100EC00085F4C4F11F0407EB840306FA04F4D3F895
:100ED000F80603689847A543F1D1F8BD481A0024E5
:100EE0000269C3682DE9F04712EA03092AD00546D2
:100EF0000E464FF000474FF00008B9FA89F327FA81
:100F000003F21B3BD24309EA02092A61042B16D8DB
:100F1000DFE803F03B30251A0300B36A002B3FD013
:100F200003F1FF3AC6F828801FFA8AFA746A34B1CE
:100F300023682046514698476468002CF8D1B9F1DF
:100F4000000FDAD1BDE8F08770680028F7D0696B30
:100F5000036889B29847B9F1000FCED1F2E7B068C3
:100F60000028ECD0A96B036889B29847B9F1000F4B
:100F7000C3D1E7E7F0680028E1D0E96B036889B2E4
:100F80009847B9F1000FB8D1DCE730690028D6D016
:100F9000296C036889B29847B9F1000FADD1D1E748
:100FA000E96A1FFA81FAC1E78069B43047F0EEB907
:100FB00038B5134C41F20D13124941F28832D4F87E
:100FC000CC57D4F888072D048560C56829400B43A9
:100FD0000D21C36049F02CFF38B1D4F8BC2703467B
:100FE00000201343C4F8BC3738BDD4F8883758699B
:100FF000C0F34320A0F10400B0FA80F0400938BDEE
:10100000481A0024C0E0FEFF08B5FFF7D1FFB0B1D9
:101010000C4BD3F8E40358B101688288096993F84E
:10102000E1330A402BB1002A0CBF00204FF0FF3003
:1010300008BD002A14BF00204FF0FF3008BD4FF05C
:10104000FF3008BD481A002470B5164C05460E4600
:1010500094F8B433042B10D0082B15D1D4F8AC334A
:1010600083421CD0002394F88224C4F8B0330AB120
:10107000C4F80438FFF79CFF40B108230220C4E9FC
:10108000EB5684F8B43370BD012070BD0922D4F84A
:101090008833012084F8B423C4F8A43370BD02203F
:1010A00070BD00BF481A002410B50E4CD4F80838A3
:1010B0003BB194F814181A68C9079B8848BF1B04F1
:1010C000936151F04FFF02E05B69984720B9D4F873
:1010D0008433002BF8D1FEE7D4F888330020C4F81D
:1010E0008C3310BD481A0024F8B5394C0846114617
:1010F000D4F8E4534DB12A68AD881269154094F8CC
:10110000E123002A44D0002D44D110F01F0241D128
:101110000125C4F81808C4F82038C4F818534FF44F
:101120000075C4F81C58002848D094F8B857012D11
:1011300030D1D4F8D857C4F8BC275A18AA4234D8AA
:101140001A4652F0F3F928BBD4F81833002BFBD120
:10115000D4F8883741F20D161E4FD4F8CC571846F4
:1011600041F288320D212D049D60DD683D403543FC
:10117000DD6049F05DFE80B9D4F888375A69C2F362
:101180004322042AE9D1D4F88833C4F88C33F8BD5B
:10119000002DBAD14FF0FF30F8BDD4F8BC27D4F8F9
:1011A00088371043C4F8BC07D7E7D4F8BC374FF0F2
:1011B000FF3043F00073C4F8BC37F8BDD4F8BC3737
:1011C0004FF0FF3043F00063C4F8BC37F8BD00BFF8
:1011D000481A0024C0E0FEFF70B52D4D08461146A8
:1011E000D5F8E4433CB12268A4881269144095F80C
:1011F000E123AAB3B4BB01220446C5F81C23C206EE
:1012000030D15E02BFF34F8F3EB100EB060C214E92
:10121000C6F8684220346445FAD1BFF34F8FBFF35C
:101220006F8F58B395F8B827012A1BD10022D5F843
:10123000D847C5F8BC275A18A24216D81A4652F009
:10124000D7F978B9D5F81C33002BFBD152F032FA1C
:101250000428FBD1D5F888330020C5F88C3370BD45
:10126000002CC8D14FF0FF3070BDD5F8BC374FF01F
:10127000FF3043F00073C5F8BC3770BDD5F8BC37FC
:101280004FF0FF3043F00063C5F8BC3770BD00BFBE
:10129000481A002400ED00E010B5164CD4F8E433F1
:1012A0006BB1196894F8E1239B8809690B4022B15E
:1012B0002BB1002384F8B43310BD002BF9D094F87F
:1012C000B433032B0FD894F8A8330133DBB2072BC8
:1012D00084F8A833EDD8D4F888230123C4F8A423D4
:1012E00084F8B43310BD044811F00EF8A4F8EC03F0
:1012F000E9E700BF481A0024801A060010B58CB038
:10130000114C002301220DF10701844604F57A7087
:10131000049203910D498DF82820069102A90293A9
:101320008DF8143009930B9384F880C4CDE907330A
:1013300010F022FCD4F8E823136A002BFCD19DF8AE
:1013400007000CB010BD00BF481A00240D080408A7
:1013500070B5054690B008200C46FFF7CFFFFF2878
:1013600026D0FE2802D0022010B070BD0023124EFD
:101370000220012201A98DF810308DF824300F933E
:1013800003948DF83820CDE9073006F57A70CDE961
:101390000135CDE90533CDE90A33CDE90C3310F041
:1013A000EBFBD6F8E833186A0028FCD110B070BD0A
:1013B000012010B070BD00BF481A002430B591B0B4
:1013C00000231D4DFD200DF1030101228DF80300C6
:1013D00005F57A70C5F8B0338DF810308DF82430EB
:1013E0000F9303928DF83820CDE9053101A9CDE99D
:1013F0000133CDE90732CDE90A33CDE90C3310F0E2
:10140000BBFBD5F8E8331C6A002CFCD10120FFF7A8
:1014100075FFFF2809D00922D5F88833204685F8C2
:10142000B423C5F8A43311B030BD0423022085F8DD
:10143000B43311B030BD00BF481A002410B50446C3
:1014400092B0080E4FF0950C8DF8081000238DF81F
:101450000500080C01228DF809C08DF80600080A65
:10146000062144F0400C8DF8070001A80591039077
:101470000DF10300174904938DF804C08DF818305E
:10148000079308930A928DF82C3009908DF840202C
:101490001193CDE90C13CDE90E3351F079FA1CB15B
:1014A00080F00100C0B288B90B4C082303A904F5F1
:1014B0007A7084F8803410F05FFBD4F8E823136A64
:1014C000002BFCD19DF8030012B010BDFF2012B01C
:1014D00010BD00BF0D080408481A0024817899B196
:1014E0000C48D0F82438102B0FD003EB4302013303
:1014F0004FF0200C0244C0F82438012382F8281849
:1015000082F829C882F82A3870470521002013F094
:101510006FBE00BF481A00242DE9F043B34C95B0CC
:1015200094F8E063002E00F0B28194F8B43304F52F
:1015300074775A1E082A00F24A81DFE812F034005C
:101540006D00B800480136015B011B00480109002D
:1015500051F01EFA002840F01B83D4F8A433D4F8CD
:101560008823FA33934280F02F81FFF795FE94F899
:10157000B433DEE751F00CFA0028EED0D4F8B033E3
:101580000022012B84F8A82340F21683D4F8AC2360
:10159000013B082106460132C4F8B03384F8B41385
:1015A000C4F8AC23FDE000210846FFF747FFD4F85C
:1015B000E8230546136A002BFCD152F065FCD4F8F1
:1015C000F03313B11A689B889361012D40F0FC80C1
:1015D0004FF0000840F2AB11082084F8A983FFF710
:1015E0002DFF052800F0C481012800F07881D4F88F
:1015F000E823136A002BFCD152F046FCD4F8F033F8
:1016000013B11A689B88936194F8A933002B00F0FA
:10161000BB82022384F8B43394F8A9330021372025
:10162000022B0CBF4FF080450D46FFF707FF292026
:101630002946FFF703FFD4F8E8230546136A002B79
:10164000FCD152F021FCD4F8F03313B11A689B8816
:101650009361002D40F0B88094F8A933022B00F07C
:10166000F18184F8AA5300210920FFF7E7FE002842
:1016700000F083814FF00008D4F8E823136A002BB0
:10168000FCD152F001FCD4F8F03313B11A689B88F6
:101690009361B8F1000F00F0978000210A20FFF756
:1016A000CDFE002840F09D81032384F8B43310213F
:1016B00005A8FFF74DFE002840F08680BDF81520F4
:1016C0009DF81C3052BA9DF81410DDF81D00A4F8E6
:1016D000BC239DF8172000BA84F8BE1303F00F0155
:1016E00084F8BF239DF8182084F8C91384F8C02318
:1016F0009DF81920C4F8C40384F8C1239DF81A206A
:1017000084F8C2239DF81B2084F8C3231A099DF88E
:10171000213084F8C8231B019DF82220DBB243EA64
:10172000121302F00F0203F5FA6384F8CC23D4F805
:10173000E823A4F8CA33136A002BFCD152F0A4FBAF
:10174000D4F8F03313B11A689B88936194F8AA33E4
:10175000ABB94FF400711020FFF770FED4F8E82306
:101760000546136A002BFCD152F08EFBD4F8F033FF
:1017700013B11A689B889361002D7FF4F6AE1C4864
:1017800010F0C2FD04220021A4F8EC03134684F8F3
:10179000B423C4F8B013082B18BF042B0CBF0126C8
:1017A0000026304615B0BDE8F0834FF40071D4F840
:1017B0009003FFF7CDFD012800F0B380022800F070
:1017C000B880002800F01D8194F8B4335A1ED2B2BC
:1017D000022AE0D8D4F88833D4F8A4239B1AC82B63
:1017E00072D80026304615B0BDE8F083481A0024B0
:1017F00040787D01D4F8E823117B136A00294CD08E
:101800005269002A49D094F87024002A45D0B3FACE
:1018100083F35B09002BD7D004AA002305A9A648AF
:1018200005920222ADF8103007920DF10F020693D7
:101830000B9201228DF8203009930A938DF83430F1
:1018400013930C928DF84820CDE90E33CDE9103377
:1018500010F092F9D4F8E8331D6A002DFCD19DF800
:101860000F3003F01F03052B00F07881FFF714FD04
:10187000D4F89C83B8F1000F77D0D4F8A0332A466F
:10188000D4F894130120C04794F8B43351E630469D
:1018900084F8B46315B0BDE8F083D4F890334FF406
:1018A000807294F89813844803EB012151F02AF8D0
:1018B00094F898230132D2B2A2F1020384F898235B
:1018C000B3FA83F35B09A5E7FFF7E6FC94F8B4638A
:1018D000042E18BF082E0CBF0126002661E704ABBA
:1018E00005A97548069304238DF83450CDF814806B
:1018F0008DF82080CDF838800793CDE90988CDE9AF
:101900000B8810F039F9D4F8E823136A002BFCD1C6
:101910009DF81330AB2B7FF46CAE022384F8A9330F
:1019200067E6D4F8A433D4F8882364339342BFF431
:101930004BAFD4F8E823136A002BFCD152F0A4FA81
:10194000D4F8F03313B11A689B889361FFF7A4FCB5
:10195000D4F89C534DB10022D4F8A033D4F894139A
:101960001046A84794F8B433E3E594F8B433E0E5BF
:10197000D4F8E82384F8A9533BE610213846FFF752
:10198000E7FC00287FF476AE94F8DF33DB077FF5C1
:1019900071AE94F8D023921100F09280012A7FF466
:1019A00069AE94F8D7231621DFF810C10225920002
:1019B000D2B2C5F108038B4228BF0B46C3F108051C
:1019C0009840C91A42FA05F24FF0000540EA0200B9
:1019D0001CF8012FEDD1431CB0469B02C4F8B8336C
:1019E0004AE6D4F8E823136A002BFCD152F04CFAF3
:1019F000D4F8F033002B3FF4B8AD1A689B8893619C
:101A0000B3E5D4F8E823136A002BFCD152F03CFA7A
:101A1000D4F8F03313B11A689B8893610423002033
:101A2000D4F89C5384F8B43384F8A803002D3FF411
:101A3000B8AED4F8A033D4E9E421A84794F8B4337D
:101A40005A1EC4E629463A20FFF7F8FC04AB80464C
:101A500005A90693042318480793012305958DF8DB
:101A600034308DF820500E95CDE90955CDE90B5550
:101A700010F082F8D4F8E8331A6A002AFCD1B8F1E1
:101A8000000F11D11A6A002AFCD152F0FDF9D4F8E6
:101A9000F03313B11A689B889361049B1BBAC3F39C
:101AA000807384F8AA33DEE51A6A002A9ED01A6A87
:101AB000002AF9D19AE700BF301E00241F1E00241F
:101AC00094F8D533012594F8D9134FF0030C03F0A3
:101AD0000F03DFF828E189019D40C8B20621C1F15A
:101AE0000803634528BF6346C3F108019A40BCEB75
:101AF000030C40FA01F11EF8010F42EA01024FF017
:101B00000001ECD194F8D6130232DFF8F4800C20F7
:101B100089014FF0060EC9B2CEF108034FF0000E56
:101B2000834228BF0346C3F108090CFA03FCC01A1C
:101B300041FA09F141EA0C0C18F8011FECD10CF143
:101B40000103E917B0469340A3FB055203FB0122B2
:101B50006D0A45EAC255C4F8B8538DE50722D4F89A
:101B60008833D4F89C6384F8B423C4F8A433002EDB
:101B70003FF417AED4F8A0330120D4E9E421B047F4
:101B800094F8B4335A1E22E61E4684F8B43308E6AD
:101B9000D4F8E823136A002BFCD1019052F074F9B9
:101BA000D4F8F033019813B11A689B889361042329
:101BB000064684F8B433F4E515D00423D4F8E823BA
:101BC00084F8B433136A002BFCD152F05DF9D4F8D9
:101BD000F033002B3FF4F8AD1A689B88936194F8BA
:101BE000B4335A1EF3E5FFF7E9FB02287FF4ECADAE
:101BF000D4F8E8331A6A002AFCD1E6E7211E002453
:101C00001E1E00242DE9F0410546884617461E4653
:101C10002F4C94F8B403042839D0082807D1D4F8FD
:101C2000AC33AB4206D0FFF7C9FB0228F1D001204C
:101C3000BDE8F081FC23D4F8E82384F85838117B00
:101C4000244BC3F82C8051B1526942B194F87024EE
:101C5000002A0CBF4FF480724FF4007201E04FF481
:101C600080725A631C491D480FF086FF012206232B
:101C70000020C4F89083C4F89453C4F89C73C4F84B
:101C8000A06384F8982384F8B433BDE8F08194F815
:101C9000AA3353B969021820FFF7D0FB38B994F87A
:101CA000B433082BC6D0FE23C5E72946F3E7D4F8A2
:101CB000E823136A002BFCD152F0E6F8D4F8F03395
:101CC00013B11A689B889361FFF7E6FA0320AFE728
:101CD000481A00240000002404000024301E0024C0
:101CE00070B5224E05460C4696F8B433042B09D045
:101CF000082B1FD1D6F8AC33834234D0FFF75EFBFC
:101D0000022817D100213720FFF798FB2146172022
:101D1000FFF794FBB0B996F8AA336BB969021920A2
:101D2000FFF78CFB70B908230220C6E9EB5486F854
:101D3000B43370BD012070BD29461920FFF77EFB2A
:101D40000028F0D0D6F8E823136A002BFCD152F01B
:101D50009BF8D6F8F03313B11A689B889361FFF7AC
:101D60009BFA032070BD022070BD00BF481A0024FA
:101D70002DE9F843214D80468946174695F8B4432E
:101D80001E46042C08D0082C02D00020BDE8F883A1
:101D9000FFF714FB0228F8D195F8AA33B3B14146F6
:101DA0001120FFF74BFBC0B90522D5F8883301207D
:101DB000C5F89093C5F89483C5F89C73C5F8A063E3
:101DC00085F8B423C5F8A433BDE8F8834FEA482169
:101DD0001120FFF733FB0028E6D0D5F8E8331C6A62
:101DE000002CFCD152F050F8D5F8F033002BCCD0B9
:101DF0001A6820469B889361BDE8F883481A00243E
:101E000010B4294C94F88C346BB3D4F894249042D9
:101E100035D0012B27D0D4F87025824237D0022B41
:101E200021D0D4F84C26904233D0032B1BD0D4F8C9
:101E3000282790422FD0042B15D0D4F804289042A4
:101E40002BD0052B0FD0D4F8E028904227D0062BBA
:101E500009D0D4F8BC29904223D0072B03D0D4F862
:101E6000982A824211D0DC22591C02FB034284F8DA
:101E70008C14C2F8940418465DF8044B7047002394
:101E8000DBB25DF8044B184670470723F8E70123DF
:101E9000F6E70223F4E70323F2E70423F0E7052340
:101EA000EEE70623ECE700BFFC100020002070479F
:101EB000704700BF014847F035BD00BFBC22002479
:101EC000084810B4D0F87438D0F8A84899691A684E
:101ED0002CB1234600F674005DF8044B18475DF8FA
:101EE000044B7047481A0024014847F01BBD00BF4F
:101EF00020230024084810B4D0F8D838D0F80C4972
:101F000099691A682CB1234600F6D8005DF8044B95
:101F100018475DF8044B7047481A0024014847F001
:101F200001BD00BF84230024084810B4D0F83C3918
:101F3000D0F8704999691A682CB1234600F63C1014
:101F40005DF8044B18475DF8044B7047481A0024AD
:101F5000014847F0E7BC00BFE8230024084810B45C
:101F6000D0F8A039D0F8D44999691A682CB1234621
:101F700000F51A605DF8044B18475DF8044B704794
:101F8000481A00242DE9F04705466420C44C82B06D
:101F900005FB00F02618D6F87408002800F0AC8085
:101FA000FF2A06F6740700F0E48096F8B5C8BCF185
:101FB000200F40F0D4801FFA83FC002B00F05281E8
:101FC00096F8B438012B00F0CA80012386F8B438A3
:101FD000D4F8EC6905E0D4F8EC399B1B192B00F21E
:101FE0003081836913F40048F5D14FF0640A0A9BED
:101FF00000964FEA41090AFB054A38464946CAF8A5
:1020000098382223CAF8A8888AF8B53840238AF875
:10201000B6380A23CAF8B888AAF89EC851F0A6FEB6
:10202000002840F03982BAF89E389BB2FF2B00F2AC
:102030002981BAF89E38DAF874189BB299484A6830
:10204000AAF89C38DBB2024049EA03431343964A9C
:102050001A434A604FF06408944AFF20DFF858A200
:1020600008FB0548D8F874E805E0D4F8EC399B1B68
:102070000A2B00F26F81DEF8183013F0040CF4D054
:10208000DEF82430D8F898180B70B8F89E38B8F8F5
:102090009CC8013B0CF1FF3C9BB21FFA8CFCA8F8DA
:1020A0009E38D8F89838A8F89CC80133C8F89838F2
:1020B000B8F89E389BB2BCF1000F02D1002B40F063
:1020C0008181B8F89E389BB2002BCBD1314638467F
:1020D00051F08AFE0346002841D1D8F87428202404
:1020E0007348D461516801400120516088F8B548B7
:1020F00088F8B43888F8B63802B0BDE8F087D4F86C
:10210000EC29A2EB0C020A2A00F2D8808B6913F0AA
:102110002003F4D020231022CA61CB618B69980779
:1021200001D500238B628B69DA0703D48B6943F0F6
:1021300001038B614A6864235D4E002003FB054563
:10214000324020264A60D5F8B83885F8B40843F004
:102150000403C5F8B83885F8B56885F8B608B4F84A
:10216000F039002001339BB2A4F8F03902B0BDE889
:10217000F08796F8B528202AF1D196F8B428012ADC
:10218000EDD00122D4F8ECC986F8B42805E0D4F8E3
:10219000EC29A2EB0C02192A53D8866916F40046E2
:1021A000F5D14A0064214FF0220E1FFA83F801FB9B
:1021B00005410A9B81F8B5E84FF0100EC1F8983838
:1021C00081F8B6E8C1F8B868A1F89E88B1F89E38E1
:1021D000C1F8A8689BB2FF2B49D8B1F89E38314EA0
:1021E0009BB2A1F89C38DBB2416842EA034331401C
:1021F0000B432D491943416064262C484FF0FF08DA
:10220000DFF8B4E006FB0546B6F89E389BB2002B1B
:1022100000F02A81D6F874180BE08B6913F02009BE
:1022200040F0A880D4F8EC39A3EB0C030A2B00F2A1
:10223000BB808B695B0751D48B69DB063FF566AFCA
:10224000EBE764232021002203FB0545D5F8B838CD
:1022500085F8B4280B43C5F8B83885F8B51885F863
:10226000B6287CE74FF40073C6F8B83877E74368C0
:102270000C4E33400F4E13431E43FF23A1F89C38EE
:102280004660B9E7DAF87418FF230648AAF89C38C4
:102290004B68084A034043EA09031A434A60D9E6F7
:1022A000481A0024009800FC00240082009C00FCD6
:1022B00000E800FE0024FF810000FF0164222021CD
:1022C00002FB0545D5F8B82885F8B4380A43C5F8A7
:1022D000B82885F8B51885F8B63840E7496AD6F8C1
:1022E00098381970B6F89E38B6F89C18013B013939
:1022F0009BB289B2A6F89E38D6F89838A6F89C18F2
:102300000133C6F89838B6F89E389BB200297FF49E
:102310007BAF002B3FF478AFD6F8749805E0D4F883
:10232000EC39A3EB0C030A2B7BD8D9F8181011F069
:102330008001F4D0B6F89E389BB2FF2B60D9D9F853
:102340000430A6F89C880340134343EA0E03C9F8FF
:10235000043059E76423202203FB0545D5F8B8383B
:1023600085F8B4C81343C5F8B83885F8B52885F89A
:10237000B6C8F4E68B695B0703D5B6F89C38002B2A
:10238000ACD12020464AC8614B68134000224B6004
:10239000642303FB0545C5F8B82885F8B42885F8FB
:1023A000B50885F8B628DAE66423202203FB054544
:1023B000D5F8B83885F8B4981343C5F8B83885F817
:1023C000B528CCE6D8F874E804E0D4F8EC399B1BC7
:1023D0000A2BBFD8DEF8183013F0800CF5D0B8F80F
:1023E0009E389BB2FF2B2CD9DEF80430A8F89C084D
:1023F000134043EA090343EA0A03CEF8043060E6D7
:10240000B6F89E38D9F804109BB20140A6F89C3863
:10241000DBB242EA03430B4343F00073C9F80430D4
:10242000F2E66423202203FB0545D5F8B83885F889
:10243000B4181343C5F8B83885F8B52885F8B61828
:102440008DE6B8F89E38DEF804C09BB20CEA020CA8
:10245000A8F89C38DBB249EA034343EA0C0343F093
:102460000073CEF804302CE66146384651F0BCFCCF
:10247000034600287FF473AED6F874282024084859
:10248000D461516801400120516086F8B54886F852
:10249000B43886F8B6382FE68AF8B4885FE600BF0D
:1024A00000E800FE114A037A0168D35C10B4CC58EE
:1024B000CA1824F00104CC501368DB07FCD4037D58
:1024C0001F2B09D9203B20225DF8044B02FA03F3AD
:1024D00043F01803CB60704720225DF8044B02FAEA
:1024E00003F343F018038B60704700BF84230A088E
:1024F000F8B507680646D7E90454A0612B7D1F2B69
:1025000049D9203B2022286802FA03F343F018033C
:10251000C360237D1F2B48D92022203B02FA03F3FE
:10252000226843F01803D3606368002269680A6078
:102530001A601A6842F010021A60BA69297A53F0D8
:1025400053F8FA69217A206853F04EF833682E6800
:102550001A6A5B6891685868184A024020680A4302
:1025600017495A602A7A8D5C725942F00102725101
:10257000227A895C425842F0010242509A6842F441
:1025800040429A601A6842F001021A601A6842F4E6
:1025900000721A60F8BD2022286802FA03F343F0A3
:1025A00018038360237D1F2BB6D8202202FA03F381
:1025B000226843F018039360B6E700BF0000FFFFF6
:1025C00084230A0810B1036882889A61704700BFAB
:1025D00018B1838802681B049361704708B51D20F9
:1025E00010F02EFA08B183794BB11E2010F028FAB2
:1025F00008B1837903B108BD5523C38008BD5523B5
:10260000C380F2E7D3B20F2B29D84FF0000C10B4DF
:102610006346144C04E001332A2B1CD014F803CF7A
:102620006045F8D194F801C08C45F4D10E4C03EB11
:1026300043030E4902EB420C23445DF8044B01EBCB
:102640008C0201F1540093F8D63000EB8C00D36576
:1026500082F85430704700205DF8044B704700202A
:10266000704700BF1CAC090848AB090800000024F3
:1026700010B40C4C002304F6F41C01E0152B0CD014
:1026800003EB430201331CF802108142F6D12244CD
:102690005DF8044B92F9F60970474FF0FF305DF892
:1026A000044B7047481A002430B40023114C124DDB
:1026B00004E001331A2B19D054F8085FA842F8D16E
:1026C00025798D42F5D10D4C02EB42050C4904EB06
:1026D000C30301EB850201F1540093F8593100EB7B
:1026E0008500D36582F8543030BC7047002030BC80
:1026F000704700BF9CAC09080000014048AB0908C6
:1027000000000024F0B1002310B504460E4894F8F0
:1027100004E000F6F41C01E0152B11D003EB43029A
:1027200001331CF802107145F6D10244617920682A
:1027300092F9F629D3B20F2B02D8BDE81040B3E7C7
:10274000002010BD00207047481A00240138074BB4
:10275000074A00EBC00003EB8000D0F81401904260
:102760000CBFA020A12051F019BC00BF0000002424
:102770000000024001382DE9E84100EBC000134D94
:102780001E46134B05EB800590460F46D5F8140105
:1027900098420CBFA020A12051F000FCB5F92A01FD
:1027A0004FEA9811C5F82471C5F82C6151F076FBF9
:1027B000B5F92A31002B07DB03F01F0001225B096A
:1027C0000449824041F82320BDE8E881000000244C
:1027D0000000024000E100E0800AA0F580105228CD
:1027E00006D8044B1B5C0D2B02D8034AD056704709
:1027F0000020704748AB090874230A0870B1838829
:102800004FF00042B3FA83F332FA03F306D04FF0ED
:10281000B041D1F880201343C1F88030704700BF29
:102820000120FEF73DBB00BF0220FEF739BB00BF11
:102830000420FEF735BB00BF0820FEF731BB00BF08
:102840001020FEF72DBB00BF4FF47870FEF728BBB9
:102850004FF47C40FEF724BB30B1036882881B69CB
:102860001A4214BF01200020704700BF70B50C460B
:1028700086B00546164640B101680E4B0E4A0B4421
:102880009B0A02EB4303B3F8240251F087FB04F0E8
:102890001303AA8801A90293C4F341132868C4F35F
:1028A000810401920596CDE9033446F0F5FE06B0A9
:1028B00070BD00BF0000FEA748AB090800B1D5E716
:1028C00070472DE9F84FC34F6423044603FB0073A0
:1028D000D3F85C68002E00F06D81D3F864A8BAF1DB
:1028E000000F04D09AF80630002B40F06381642377
:1028F00003FB0473D3F868581DB1AB79002B40F08B
:102900005981631CDBB2BAF1000F04D015228AF89A
:1029100007308AF8062015B11622EB71AA714FF024
:102920006409308B51F03AFB294609FB04F9504603
:1029300055F0E8F8504607EB090898F86E3898F813
:102940006C28002B14BF3E211E21FFF7B7FF98F81B
:102950006E382846A04D002B98F86D284D44DFF8BE
:10296000989214BF3E211E21FFF7A8FF4C220021A0
:10297000284657F067FFD8F85C38984A5B6893425E
:10298000C8F87438DFF8748240F0168147F03AFBDB
:10299000D9F82030C3F302139FED917A9FED915A3D
:1029A000B0EE084A4344F7EE003A4FF0000E40F212
:1029B000145893F8383203F01F03D840642307EE0D
:1029C000900A03FB0473F8EE677AB3F87098C7EEC9
:1029D000275A07EE909A9FED847AF8EEE77AC7EED1
:1029E000274ADFED827AB0EE007AE5EE877AA5EE2F
:1029F000875A25EE844A37EE856A74EEE72AB9F5E0
:102A0000C87F0EF1010CD5BF642332234FF49670BA
:102A1000782007EE90CAD8BF4FF4167A0344C8BF97
:102A20004FF4827AB8EEE77AD8BF414607EE903A83
:102A3000C8BF4FF4FA7127EE257A01EB0A03F8EECE
:102A4000E76A86EE873A73EE636AFCEEE67A17EE83
:102A5000902A07EE90AAB8EEE73A07EE903AF8EE21
:102A6000E77A23EE243AC3EE276A36EEC53A72EED1
:102A7000E66AC3EE077A77EEE37AFCEEE77A17EEC2
:102A8000901AC6EE877A77EEE37AFCEEE77A17EED5
:102A9000903A03F1020A0AEB010BF0EE466A07EEE8
:102AA00090BAF8EE677AE7EE276AF4EEE64AF1EEBE
:102AB00010FA00F388805FFA82FABAF10F0F00F281
:102AC0008480323807EE900AF8EEE77A77EEC47A1F
:102AD000C7EE876AFCEEE67A17EE900A5FFA80FA94
:102AE000BAF10F0F71D81FFA81FABAF1FF0F6CD843
:102AF0001FFA83FABAF1FF0F67D812054AEA0E737C
:102B000002F07F620004134300F47F00384A03435D
:102B100002EA01210B43642000FB047400272846CD
:102B2000C4F878380123C4F87C78C4F88038C4F835
:102B30008478C4F88878C4F89078C4F8947853F00E
:102B4000D9FB94F8B538202BD9B21AD194F8B438FF
:102B5000012B16D0242384F8B538D4F874381A68B9
:102B600022F001021A601A6822F480521A601A6870
:102B70001A601A6842F001021A6084F8B51884F8E5
:102B8000B4780021F07E51F089F9F37E0124194DCB
:102B90005A0903F01F03002104FA03F345F8223019
:102BA000B07E51F07BF9B37E5A0903F01F039C40BD
:102BB00045F82240BDE8F88F47F024FAD9F81C30D8
:102BC000E8E6E6461BE7013165E7BCF10F0FF8D1F7
:102BD0000023A0E7481A0024BC220024001C00584F
:102BE000286B6E4E000016430024744900007042AA
:102BF00000FFFF0000E100E00044025848AB090874
:102C00002DE9F843B14C04EB0017D7F8343A002B08
:102C100000F0BF8005460601B7F83E0A51F0BEF944
:102C2000B7F83E3A012103F01F025B09023B01FAAB
:102C300002F2082B0FD8DFE813F008011001180189
:102C4000200128010900300138014001A04BD96F53
:102C500021EA0202DA67A319013593F8380AEDB2C6
:102C60000FF0EEFE074610B11223C5718371A31950
:102C700093F8390A0FF0E4FE814610B11323C571B1
:102C80008371A31993F83A0A0FF0DAFE804610B167
:102C90001423C5718371344448462E2194F83C2A8C
:102CA000FFF70CFE94F83D2A0E214046FFF706FE82
:102CB00094F83B2A2E213846FFF700FED4F8343A28
:102CC00084491A688B4222F001021A6063D0824A5A
:102CD000934200F08F8002F58062934279D17C4A62
:102CE000D2F8901041F40041C2F89010D2F8901040
:102CF00021F40041C2F89010DA6842F00042DA6034
:102D00009A6822F4F0729A601A68D60741D473491F
:102D10009D68D1F86C23D1F8744344EA0200D1F8DD
:102D20005C2310436E4A2A401043D1F86823986010
:102D3000DD68D1F85803ED007BD50243D1F860037C
:102D4000DE68B4F5800F42EA0002D1F86403654DF5
:102D500042EA0002D1F8700305EA060542EA0002E1
:102D6000D1F8540300F4C02600F4006042EA0602E1
:102D700042EA0502DA601A6822F4006242EA0002BE
:102D80001A6002D1D1F878231A641A6D22F0010278
:102D90001A65BDE8F8834E4AD2F8981041F4805184
:102DA000C2F89810D2F8981021F48051C2F8981007
:102DB0004D4A9342A0D1464AD2F89C1041F02001DE
:102DC000C2F89C10D2F89C1021F02001C2F89C108F
:102DD00092E7464A93421BD13D4AD2F8981041F4FB
:102DE0000051C2F89810D2F8981021F40051C2F89E
:102DF000981081E7364AD2F8901041F48041C2F829
:102E00009010D2F8901021F48041C2F89010CFE7D2
:102E1000374A9342CCD12E4AD2F8981041F480110F
:102E2000C2F89810D2F8981021F48011C2F89810C6
:102E300062E7B2F1806F80D1B0F5800F7FF47DAF93
:102E40001D6845F480551D6077E7214BD3F8981035
:102E500021EA0202C3F89820FDE61D4BD3F890103A
:102E600021EA0202C3F89020F5E6194BD3F894103A
:102E700021EA0202C3F89420EDE6154BD3F8801046
:102E800021EA0202C3F88020E5E6114BD3F8841052
:102E900021EA0202C3F88420DDE60D4BD3F88C1042
:102EA00021EA0202C3F88C20D5E6094BD3F888103A
:102EB00021EA0202C3F88820CDE6054BD3F89C1026
:102EC00021EA0202C3F89C20C5E600BF481A00248C
:102ED0000044025800300140003800400000002447
:102EE000E0FFBF8FFFFF39D80014005800340140C5
:102EF0000050014008B10022B8E470470E4B70B595
:102F0000D3F86464002E14DD0C4C002503E0B542B8
:102F100004F120040DD0237F0135002BF7D0E068A9
:102F200000220028F3D0217D2034FFF79FFCB5421A
:102F3000F1D1012070BD00BFFC1000203C04002036
:102F40002DE9F04FBB4D7C229BB0002105F5F160CF
:102F500057F078FCD5F8944A4FF4805295F89A6A65
:102F60002368C5F89027C5F888371EB14FF4804212
:102F7000C5F894274FF40032C5F898270122C5F808
:102F80009C2795F8B827002A00F0A2800322AA4BBC
:102F900085F8B827DA6CD0034AD50AA847F06CF850
:102FA0000C9AA649130AA1FB03131B095C00D5F870
:102FB0008807A242A249466801EA060143EA0103E2
:102FC0004360036843F00303036046D2D5F8EC295D
:102FD000D5F8EC399B1A022BFAD90023994ADFF86D
:102FE000889204938360C36897491A40D9F87C3368
:102FF000A1FB033141F2883342F48052490AC26096
:1030000003FB01F10B4602E0426B170633D4013B90
:10301000FAD24FF0004001232A2285F8B837D5F8BC
:10302000BC371843C5F8BC0710461BB0BDE8F08F8D
:10303000996A9C6ADE6A14F47C7FC4F30512586BAB
:1030400040F09480D5F8880714467D4B41680B40CA
:103050004360036843F003030360D5F8EC19B2FB47
:10306000F4F47A4AB2FBF4F20232D5F8EC395B1A86
:103070009A42FAD8B1E7764B4C1E724A83634FF4FA
:10308000D5738360C3681A4041F208131343C360C9
:10309000234649B1426B013B12F0450F02D0910427
:1030A00040F1E4805E1CF5D10023C5F8C43783608D
:1030B000644BC268134043F48053C36003E0436B26
:1030C000190600F18D83661C04F1FF34F7D1A0E7E7
:1030D000604A934200F092805F4A934200F08383FB
:1030E00095F8A80A0FF0ACFC034695F8AA0A0193DC
:1030F0000FF0A6FC804695F8A00A0FF0A1FC019BFA
:10310000074695F8A2BA95F8A4AA95F8A69A2BB105
:10311000184695F8A92A0E21FFF7A8FBB8F1000F71
:1031200005D0404695F8AB2A0E21FFF79FFB2FB143
:10313000384695F8A12A0E21FFF798FB002E40F0A3
:10314000FF820021B4F9040050F0A8FED5F8943AAB
:10315000B3F90430002BFFF619AF03F01F00012272
:103160005B093E49824041F823200FE7C0F3CC00C1
:1031700006F0010601F0030106FB00F0012907EE4D
:10318000900AF8EEE77A05D0022900F0C9830029F9
:1031900000F0A18307EE102A9FED315AF8EEC76ABE
:1031A0001B6B85EE267A9FED2F6AC3F3080306EEAC
:1031B000903AF7EE005AF8EEE66A76EEA56AE7EE88
:1031C000866A27EE267A1C4AF7EE006A1B49136BC3
:1031D000136B126BC3F3064307EE903AF8EEE77AEF
:1031E00077EEA67AC7EE276AFCEEE67A17EE902A0B
:1031F000130AA1FB03131B095C00D8E60E4BD3F89E
:10320000D42022F48032C3F8D420DA6F42F4803222
:10321000DA67DA6F22F48032DA67D3F8D42042F426
:103220008032C3F8D420D3F8D43003F4803303932E
:10323000039B55E7481A002400440258598B4F015C
:10324000002CC0FFC0E0FEFFD34D62101021010032
:10325000C5002000007000520024024800E100E098
:103260000024744A0000003900000024436B5A0710
:1032700000F15D83436BDB0700F12983436B5F063D
:1032800000F1D182012200233721C5F8C4278360D1
:103290005E4AC3681A4041F23713134341F2883241
:1032A000C36047F0C5FD00283DD1049A4FF6FE7378
:1032B0009A4200F2B380D5F88847544EDFF858811F
:1032C000534F002041F2371341F288323721A0607A
:1032D0002046D4F80CC00CEA060C4CEA0303E36069
:1032E00047F0A6FD00287FF496AED5F8884741F256
:1032F0002911D9F87C3341F28830C4F80880A7FB43
:103300000332E368520A334000FB02F21943531EB2
:10331000E16042B1626B013B12F0450F01D09004B5
:1033200004D55A1CF6D14FF0805074E6636B5907F0
:1033300000F1FB81374BA3636269049B002A03F110
:1033400001030493049B03DB4FF6FE718B42B8D953
:1033500004994FF6FE73994200F26882520063D5D9
:10336000236801229B07C5F8C02700F0E6810023EF
:10337000264E2046A36041F20233E26832401343F6
:10338000E36047F0EFFD034698BBD5F88847D5F8D2
:10339000C007626904F118010328C5F8F427A2697F
:1033A000C5F8F827E269C5F8FC27226AC5F80028A5
:1033B00000F09284A36041F20313E168D9F87C2302
:1033C00031400B431249A1FB021241F28831E36004
:1033D000520A01FB02F2531E4AB1626B013B12F02A
:1033E000450F02D0900440F12D825E1CF5D14FF0C4
:1033F000004301212A2285F8B8171046D5F8BC17DA
:103400000B43C5F8BC371BB0BDE8F08FC0E0FEFF32
:10341000D34D6210C5002000000010C1049A9A42EA
:1034200000F20482D5F8884723689F0700F0858161
:10343000D5F8C00703289AD1D5F8E42704F118017C
:10344000D5F8E8370968090DC5F8C817910F8DF848
:103450002810C2F383618DF82910C2F301618DF841
:103460002A10C2F307418DF82B10C2F30721D2B204
:103470008DF82C108DF82D201A0DADF82E20C3F3E9
:1034800003428DF83020C3F3C0328DF83120C3F3EE
:1034900080328DF83220C3F340328DF83320C3F3ED
:1034A00000328DF8342000228DF83520002840F0BD
:1034B000658140F6FC71D5F8EC2701EA8303C2F37D
:1034C000C26143EA92730E93C2F342538DF83C10EB
:1034D000C2F302618DF83D10C2F382418DF83E3097
:1034E000C2F3C2338DF83F108DF840300E9B9DF82B
:1034F0004010013301F00701023103FA01F19DF898
:10350000303003F00F000123C5F8D0178340C5F811
:10351000D4375B0A01FB03F34FF40071C5F8D837C9
:10352000C5F8DC17C2F38031D5F8F037D5F8CC07F1
:1035300001278DF84110C2F3C61102F07F0200048A
:103540008DF84210D90F8DF843208DF84410C3F345
:103550004171B84E8DF84510C3F382618DF8461065
:10356000C3F383518DF84710C3F340518DF84810D1
:1035700000218DF84910C3F300418DF84A10C3F3C0
:10358000C0318DF84B10C3F380318DF84C10C3F36C
:1035900040318DF84D10C3F300318DF84E10C3F358
:1035A00081218DF84F10C3F30121C3F346038DF839
:1035B000501007218DF8513041F207138DF85270E9
:1035C000A0602046E2683240134341F28832E36053
:1035D00047F02EFC034600287FF40BAFD5F8880790
:1035E0004FF4007341F2101841F2883283601021C9
:1035F000C368334043EA0803C36047F019FC00285E
:1036000040F0E180D5F88807D5F8EC4943699F017F
:1036100000F19080402741F2883210218760C36812
:10362000334043EA0803C36047F002FC0346002826
:103630004DD1D5F8CC3741F28832D5F888073721FB
:103640001B048360C3681E4041F237133343C360D9
:1036500047F0EEFB0346002839D1D5F888074FF034
:10366000FF324262876201331F2BFCD9C36A0022FA
:103670000D2123F0FF0343F06303C36282606D4AB0
:10368000C3681A4041F20D13134341F28832C360FC
:1036900047F0CEFB0346D0B9D5F888070AAB05E062
:1036A000D5F8EC29121B013200F04581426B12F46F
:1036B000957F426B40F042811604F1D503F1200161
:1036C000D0F8802043F8042B8B42F9D1E8E7D5F8F5
:1036D000BC27D5F88807C5F8BC2757490122816364
:1036E000D5F8BC170B434FF40071C5F8BC3741F255
:1036F000101385F8B82781604E4AC1680A4010212E
:10370000134341F28832C36047F092FB40B1D5F8D1
:103710008827012348499163C5F8BC0785F8B83765
:103720002A2210461BB0BDE8F08F04234FF08050D2
:10373000A36370E44FF40063CFE74FF0806358E673
:1037400058460FF07DF920B195F8A32A0E21FFF716
:103750008DF850460FF074F920B195F8A52A0E2186
:10376000FFF784F848460FF06BF900283FF4E9AC06
:1037700095F8A72A0E21FFF779F8E2E4012815D180
:103780001B04D5F8EC274FF4007103F47C13C5F843
:10379000D41743EA1243C5F8DC170E930E9B01338E
:1037A0009B02C5F8D037C5F8D837BBE6224A4FF0A0
:1037B00080530121A263D5F8BC271A43C5F8BC2762
:1037C00085F8B81715E6D5F888371B4A9A632A2278
:1037D000D5F8BC371843C5F8BC0785F8B87723E49B
:1037E000164B836361E5164BD3F8DC2022F400729C
:1037F000C3F8DC20D3F8842042F40072C3F884209C
:10380000D3F8842022F40072C3F88420D3F8DC209B
:1038100042F40072C3F8DC20D3F8DC3003F4007308
:103820000293029B5CE4402383632BE54FF080709E
:10383000FFF7F1BBC0E0FEFFFF0FE01FC500200057
:1038400000440258636B590700F13682636B13F032
:10385000010340F02D822369DBB2032B40F0258267
:10386000B54BA363636913F4604F0AD05A0400F1A7
:10387000398213F4004F14BF4FF480534FF4803358
:10388000B7E51B0CAD4941F209321804C5F8CC3735
:10389000A0602046E36819400A43E26047F062FBFB
:1038A000034600287FF4A5ADD5F88847626904F186
:1038B0001801C5F8E427A369C5F8E837E069C5F839
:1038C000EC07266AD5F8C007C5F8F067BAE501230A
:1038D0008363FFF7E9BB1968890640F1DE81186848
:1038E00007EE102A96491B6BC0F3C102B8EEC75A07
:1038F000DFED945AC3F30803D140B7EE007A06EE29
:10390000903A06EE101AF8EEE66AB8EEC66A76EE5F
:10391000876A86EE057AE7EEA56A27EE267A52E4F4
:1039200007EE102A9FED885AF8EEC76A38E40423A0
:103930008363FFF7B9BB4FF00043CEE6110700F1F8
:10394000C581426B920700F1C581426B970609D58C
:10395000BEE1D0F88010D5F8EC2943F8041B121B07
:103960000132E8D0426BD604F3D4784B83630A9BD0
:10397000C3F381128DF81420C3F340128DF8152083
:103980001A0A22F0FF0242EA1362DDE90B1392B237
:1039900009BAADF81620DAB206918DF81C20C3F3EF
:1039A00007229DF83B108DF81D20C3F303521B0C1A
:1039B0008DF81E200D9A23F0FF03D4B22343ADF8F7
:1039C0002030C2F385238DF82230C2F301238DF815
:1039D0002330C2F3031302F00F028DF824304FF4AA
:1039E00000738DF825208DF8261010218360534A2E
:1039F000C3681A4041F21013134341F28832C36086
:103A000047F016FA00287FF482AED5F8C0179DF86B
:103A1000243001299DF82520DBB2D2B236D0032311
:103A2000D5F89447C5F8E007994285F8B8373BD1F7
:103A3000D5F8BC27D5F8883742F08052C5F8BC27A6
:103A4000D5F8BC27002A42D041494FF400723B48C8
:103A5000996341F210119A60DA68104041F288329D
:103A600001431846D960102147F0E2F9002800F020
:103A7000E480D5F88837012235499963D5F8BC37F9
:103A80001843C5F8BC0785F8B82749E61343D5F8AD
:103A900094474FF0030214BF4FF400734FF4807348
:103AA00085F8B827C5F8E037B4F5004FC0D0B4F5B5
:103AB000804F00F0C680002C00F08880D5F8BC272D
:103AC000D5F8883742F00062C5F8BC27B8E7D5F8CA
:103AD0009C07D5F88C270328D5F89067D5F8981758
:103AE00009D8D5F8E077B7F5007F04D0B7F5807F27
:103AF0000CBF0220042032430A43164922435C686B
:103B000021400A434FF40071024341F210105A6001
:103B100099600A4AD9680A401021104341F288325C
:103B2000D860184647F084F90028A2D1012385F80F
:103B3000B837D5F8EC4914E0C5002000C0E0FEFF1E
:103B40000090D003000000390024F44A3A0F001816
:103B5000FF0FE01F002CC0FFD5F8EC391B1B013311
:103B60002AD04FF0A7FD0428F6D100220121D5F874
:103B7000C037C5F8BC27C5F8B42785F8B817A3B176
:103B80008B427FF4CDAD0223584C85F8803304F28C
:103B9000EC430FCB84E80F0004F2FC4310340FCB4E
:103BA00084E80F000022FFF73FBAD5F8C437002B96
:103BB000EAD0012BE8D0B3E54FF0004101232A22DF
:103BC000C5F8BC1785F8B837FFF72EBAD5F888378F
:103BD000CDE90A445A6992015CD40AA84FF08CFDE1
:103BE00018BB0B9BDB036CD5D5F8CC373721D5F848
:103BF00088071B043E4E836041F23713C26832408F
:103C0000134341F28832C36047F012F968B9D5F81E
:103C100088078460C26841F20613062132401343CC
:103C200041F28832C36047F003F9D5F88837D5F8F8
:103C3000BC271043C5F8BC0702E7012385F8B83755
:103C40006EE50022D5F88837CDE90A225A6990013D
:103C500020D40AA84FF050FD0028E6D10B9B590351
:103C60002FD5D5F8CC373721D5F888071B04204E3F
:103C7000836041F23713C2683240134341F2883205
:103C8000C36047F0D5F80028CFD1D5F888070223C4
:103C90008360BFE74FF40060C9E707EE102A9FED8D
:103CA000155AF8EEC76AFFF77BBA0123FFF7A1BBED
:103CB0000122A263FFF79DBB04221346A263FFF714
:103CC00098BBD5F888374FF08060B0E7082304E54B
:103CD000202302E5022300E5D5F8E427D5F8E837EC
:103CE000FFF7B0BB4FF40053FFF783BB401D002428
:103CF000C0E0FEFF0024744C10B51A4C94F8AC3AA6
:103D00007BB1194B93F8800350B194F8A833013379
:103D1000DBB2072B84F8A8330CD9002384F8B43322
:103D200010BD012384F8AC3AFFF70AF90E4B83F873
:103D30008003E9E7D4F8E43343B1196894F8E12348
:103D40009B8809690B404AB1002BE6D1D4F888233F
:103D50000123C4F8A42384F8B43310BD002BDCD0B5
:103D6000F4E700BF481A002400000024F8B5974C7F
:103D700094F8E053002D00F0FF8094F8B42302265D
:103D8000531E082B3CD8DFE803F03234A43B674ACB
:103D9000163B0500FDF70CF9002840F0FE80D4F832
:103DA000A433D4F88823FA33934226D2FFF7A4FF32
:103DB00094F8B423E4E7FDF7FBF80028EFD0D4F83B
:103DC000B0230023012A84F8A83340F2EA80D4F813
:103DD000AC13013A0131C4E9EB1294F882240AB120
:103DE000C4F804380823054684F8B43315E084F891
:103DF000B463FDF7DDF800284CD194F8B423531ECA
:103E0000DBB2022B00F2B080D4F88833D4F8A423BC
:103E10009B1AC82B00F2B48000252846F8BDD4F8C0
:103E20001C33002BF8D10722D4F88833D4F89C53E4
:103E300084F8B423C4F8A433002DEED0D4F8A03312
:103E40000120D4E9E421A847D7E7D4F8A433D4F873
:103E5000882364339342DFD2D4F81873002FF4D14F
:103E6000FDF7A6F80028A3D00423D4F89C5384F8C7
:103E7000A87384F8B433002D00F08D80D4F8A033FB
:103E80003846D4F89023D4F89413A84794F8B42370
:103E9000531EB5E7FCF74EFA0028AED194F88033F4
:103EA000002BA3F10203B3FA83F314BF0222012211
:103EB0005B0984F8A92384F8AA33FCF73BFA0028AD
:103EC0007FF474AFD4F870230323C4F8B82384F8C4
:103ED000B433FCF72FFA00288FD194F854530422FE
:103EE000B4F85613D4F85833C4F8B003A4F8BC138C
:103EF000180ED4F85813D4F85833090C84F8BF03BB
:103F00001B0A84F8BE5384F8C01384F8C133D4F874
:103F1000581394F85C0394F85D3384F8C213D340CB
:103F200094F85D1384F8C30384F8C83301F00F01DB
:103F3000D4F86033B4F86603C4F8C433B4F8663315
:103F400084F8C913C3F30B13B4F8661384F8B423CD
:103F500043EA102301F00F0103F00F0384F8CC13A0
:103F600003F5FA63A4F8CA33082A18BF042A0CBF61
:103F7000012500252846F8BD284684F8B453F8BD2D
:103F8000FFF7BAFE94F8B453082D18BF042D0CBFE8
:103F90000125002541E705463FE7042384F8B433B3
:103FA0003BE7FAD194F88224C4F8B0330AB1C4F8DC
:103FB0000438FCF7FDFF0028EFD10922D4F888333C
:103FC000054684F8B423C4F8A43326E7481A00242D
:103FD0002DE9F0435E4C0D4683B0064694F8B413C9
:103FE00090461F46042914D0082956D1D4F8AC3382
:103FF00083420ED0002394F88224C4F8B0330AB16F
:10400000C4F80438FCF7D4FF00284AD0042384F80D
:10401000B433D4F80438C3F34F205A0A0F28C4E944
:10402000E45604D8D4F8B093B9F1000F44D101207C
:104030000622012384F8B423EA0684F89833C4F8EE
:104040001C332B46C4E9E78766D14102BFF34F8F8B
:1040500039B105EB010C3F49C1F8683220336345A3
:10406000FAD1BFF34F8FBFF36F8F002D62D094F85A
:10407000B837012B50D10023D4F8D827C4F8BC3767
:104080003318934242D80246314628464FF0B0FAE0
:10409000002841D103B0BDE8F083012003B0BDE8A2
:1040A000F0830922D4F88833012084F8B423C4F8BB
:1040B000A43303B0BDE8F08394F882140029B6D08D
:1040C000B3F5005F3DD024484FF4007229460193B8
:1040D000184456F043FB019B03F50073C3F34F20D4
:1040E0005A0AC4F8043810282BD0B9F1010F28D08F
:1040F000D4F8AC2309F1FF33042102200132C4F8C3
:10410000B03384F8B413C4F8AC23C7E7D4F8BC3791
:1041100043F00073C4F8BC37FFF7EEFDD4F89C53AE
:10412000A5B10120D4F8A0330022D4F89413A847F5
:104130000320B3E7D4F8BC3743F00063C4F8BC37BE
:10414000EAE793B2044D013BF61A71E70320A5E7B5
:10415000481A002400ED00E0543100242DE9F84312
:104160003A4C0D460646904694F8B41399460429F5
:1041700010D0082902D00020BDE8F883002394F86D
:104180008224C4F8B033BABBFCF712FFD0B30423C7
:1041900084F8B43315F01F0243D10123C4F8185832
:1041A000C4F81833C4F820384FF40073C4F81C382E
:1041B000002D44D094F8B837012BDFB231D1731CF5
:1041C000C4F8BC27D4F8D827934224D83A463146BD
:1041D00028464FF0ABF920BB0522D4F88833384687
:1041E000C4F89053C4F8946384F8B423C4F8A43397
:1041F000C4E9E789BDE8F883C4F80438FCF7D8FEC1
:104200000028C4D10922D4F8883384F8B423C4F830
:10421000A433BDE8F883D4F8BC3743F00073C4F886
:10422000BC37FFF769FDD4F89C53002DA3D00022C2
:10423000D4F8A033D4F894131046A8479BE7D4F8D9
:10424000BC3743F00063C4F8BC37EAE7481A0024DF
:1042500010B503791F4C002B14BF0122002284F8F3
:10426000E0232BD094F8993AD4F8E423003B18BF0C
:10427000012384F8823492B111689388096994F813
:10428000E1230B404AB953B994F8A8330022013313
:1042900084F8B42384F8A83310BD002BF4D194F82B
:1042A000AC3A73B10C4B93F880030028ECD1D4F8EE
:1042B0008823012384F8A803C4F8A42384F8B43322
:1042C00010BD012384F8AC3AFEF73AFE024B83F8A6
:1042D0008003EAE7481A002400000024F8B590F8AB
:1042E000EE311C09013C062C0FD81B4E054603F08D
:1042F0000F0306EB4402B2F8680240FA03F2D20759
:1043000003D595F8F971012F01D00120F8BD07FA06
:1043100003F33444013B184054F016FD94F878221E
:1043200013180E4A02EBC30152F833208B88106930
:104330001840EBD0002395F8EF210846022185F8BC
:10434000F931FEF793FAD5F850213846136843F057
:1043500008031360F8BD00BF48AB0908F824002427
:1043600010B5214C94F8310E0EF06AFB28B11F21D4
:104370000022C1802021FEF779FAD4F808383BB139
:1043800094F814181A68C9079B8848BF1B049361E6
:1043900094F99B2A00210320FEF734F950B1D4F898
:1043A000E4335BB1196894F8E1239B8809690B40F9
:1043B00012B91BB9012010BD002BFBD194F8AC3A07
:1043C0004BB10A4B93F880030028F3D1D4F888331B
:1043D000C4F88C3310BD012384F8AC3AFEF7B0FD6D
:1043E000024B83F88003EFE7481A00240000002402
:1043F00070B503798AB02E4C002B14BF0122002225
:1044000084F8E02303D184F8B4330AB070BD04F516
:104410007A76054690F9001030460DF083FFAD78AE
:10442000002D37D10122234B234884F8F423C4F80C
:104430007C34C4F8F0530DF067FF03464FF47A70F4
:10444000A4F8EC3310F07CFED4F8F03313B11A6802
:104450009B889361194DEC460FCDACE80F000FCD52
:10446000ACE80F0095E803008CE80300694630468D
:104470000DF082FBD4F8E823136A002BFCD1D4F8AA
:104480008813012284F8A833C4F8A41384F8B42351
:104490000AB070BD28460EF0D3FA05460028C1D0F8
:1044A0001E2300220D21C380FEF7E0F9BAE700BF0A
:1044B000481A0024D81D0024801A0600C8AD090837
:1044C000014B43F8201070475040005819481A4BD0
:1044D00001681A4A41F4807130B4016082B0D3F8A7
:1044E000F410FF24CA2041F48031C3F8F410D3F84B
:1044F000F41001F4803101915321019D5462506206
:104500005162D3F8D030DB010CD40D4B00210D4AA1
:1045100043F8041B9342FBD1084B0B4A1A6502B0C7
:1045200030BC7047126D084B9A42EED102B030BCDD
:10453000704700BF0048025800440258004000582D
:10454000544000586C40005831666542F0B504464E
:10455000D0F85C01454B83B0A16804F5967204F174
:10456000E0070E68C1B220F0FF0001921039A3FBF2
:104570000131090951F088F8D4F81C110023019A7F
:10458000012984F8203118D0042916D0102958D0D8
:10459000402912D0B1F5807F56D0B1F5806F53D04D
:1045A000B1F5805F58D0B1F5803F4FF03C030CBFB0
:1045B0006FF0080C6FF4006C01E06FF0080C06F16E
:1045C00018053046E95801EA0C01E950D4F81C11ED
:1045D00050F0FAFCD4F81C31012B16D0042B14D067
:1045E000102B0FD0402B10D0B3F5807F30D0B3F517
:1045F000806F2DD0B3F5805F32D0B3F5803F06F1E8
:10460000540502D04FF4006100E008212B683A46BF
:10461000D4F85C010B4340212B60C4F8E810C1B210
:10462000124B20F0FF001039A3FB0131090950F0B3
:10463000DBFFD4F85C21136843F01003136003B070
:10464000F0BD6FF4006CBAE76FF0080C0423B6E716
:1046500006F11C050821D9E76FF4006C0423AEE7CE
:1046600006F11C054FF40061D0E700BFABAAAAAA6F
:104670002DE9F04FDFF848B185B09BF8004024B930
:104680000124204605B0BDE8F08F474BD3F888538E
:104690000EF0B2FD454A92F8B83B002B00F0BC8109
:1046A000434B02F17C070BF5A7640026A3FB05131F
:1046B000404D5B09A5FB0315ED0805EB8505A3EB54
:1046C0004505D2F87C3BC31A0193EBB207EB850595
:1046D000029302F557730093019A002A04DBD4F881
:1046E0002431934200F37C814FF4B47303FB06B38F
:1046F00093F85836002B00F0C080D4F85C11A36802
:104700002D481A68CBB221F0FF01103BA0FB030338
:104710002A481B09C35C19444B68A1891FFA83FE10
:10472000D368CEF1160E23EA0103BEF1070FD36062
:1047300040F2A3801D4A0121D2F864338A46013336
:10474000C2F864330022D4F8643190469C46039347
:104750005CF8049B48461DE0DCF80090B8F1140FAB
:10476000A9EB000348462DDC13F1080948BF03F10B
:1047700017094FEA291308EB291803F1FF39013112
:1047800002FA03F30CF1040C0AFA09F28E4542EA2C
:10479000030217D38E45DFD8C8F11503DCF80000FB
:1047A0004FF01508E9E700BF481A0024FC1000206C
:1047B0001F85EB51CDCCCCCCABAAAAAA84230A0886
:1047C00004000020B8F1150F40F000819649C2F3B3
:1047D0008423C2F3441001EB830301EB8000D3F880
:1047E000A832D0F8A8021B0243EA001302F01F000F
:1047F000C2F3C43201EB800001EB8202D0F8A812B0
:10480000D2F8A8220B4343EA023383EA132282EA56
:10481000121202F00F020F2A40F0D880C3F30F13D8
:104820004FF6FF72934200F0D180B3F5606F00F055
:10483000DC80009A938197F85820029882420CD02D
:10484000A9683A68521A3A607A68296B521A7A60F3
:104850000022AA602A6387F858003A6801323A6059
:10486000AA680132AA604FF6FF72934205D17B68B5
:1048700001337B602B6B01332B63009B2046013699
:104880005C3714335C3504F5B4740093FFF75EFEB7
:10489000664B93F8B83BB3423FF71EAF6348012124
:1048A000002280F86014C0F87C2B002B3FF4E8AEA7
:1048B0009BF81026DBF8540612F0020FDBF84025B7
:1048C00011680A6A0CBF024342EA8002012B0A62A5
:1048D0003FF4D6AE9BF87827DBF8BC0712F0020F46
:1048E000DBF8A82611680A6A0CBF024342EA80027C
:1048F000022B0A623FF4C4AE9BF8E028DBF82409DF
:1049000012F0020FDBF8102811680A6A0CBF02438C
:1049100042EA8002032B0A623FF4B2AE9BF8482AB7
:10492000DBF88C0A12F0020FDBF8782911680A6AAA
:104930000CBF024342EA8002042B0A623FF4A0AE9D
:104940009BF8B02BDBF8F40B12F0020FDBF8E02A37
:1049500011680A6A0CBF024342EA8002052B0A6210
:104960003FF48EAE9BF8182DDBF85C0D12F0020FB1
:10497000DBF8482C11680A6A0CBF024342EA800245
:10498000062B0A623FF47CAE9BF8802EDBF8C40E47
:1049900012F0020FDBF8B02D11680A6A0CBF024357
:1049A00042EA8002082B0A627FF46AAE9BF8E83F75
:1049B000DBF8182F13F0020F1D4B1268D96A136A27
:1049C00014BF43EA81030B43136259E6174AD2F836
:1049D00060330133C2F86033B6B14FF6FF732AE794
:1049E0000024204605B0BDE8F08F12494A7802EB5A
:1049F000420201EBC2023244527C0D2A7FF419AF0D
:104A0000802200998A7716E7039958220A4855F0C0
:104A1000A5FE4FF6FF730EE704490122C1F87C3B67
:104A200081F860242DE600BF48AB0908FC10002087
:104A300004100020481A002404150020474B93F866
:104A40009C2A013A52B2511C00F086804449500120
:104A500001EB421200B5C3F8942A821D11F802E05E
:104A600001EB020C93F8382E964561D09CF802E0D9
:104A700096455BD000F10A0211F802E001EB020C4E
:104A800093F8392E96454CD09CF802E0964546D0D6
:104A900000F10E0211F802E001EB020C93F83A2E3D
:104AA000964537D09CF802E0964531D093F89A2A83
:104AB00062B300F1120211F802E001EB020C93F86C
:104AC0003B2E964539D09CF802E0964508BF0CF184
:104AD000020C32D000F1160211F802E001EB020CD8
:104AE00093F83C2E964532D09CF802E0964508BFDC
:104AF0000CF1020C2BD01A3093F83D2E11F800C0A7
:104B0000084494451FD0817891421BD05DF804FB86
:104B10000CF1020CBCF80020A3F8A02AC6E70CF1A7
:104B2000020CBCF80020A3F8AA2AB1E70CF1020C91
:104B3000BCF80020A3F8A82A9CE7BCF80020A3F842
:104B4000A22AC7E702300288A3F8A62ADEE7BCF84B
:104B50000020A3F8A42ACEE7704700BF481A00241B
:104B600070AE0908012070474EF0F6BA4EF0F4BA64
:104B70002DE9F047344C94F8A80A0DF061FF054682
:104B800094F8AA0A0DF05CFF064694F8A00A0DF00E
:104B900057FF94F89A8A074694F8A4AA94F8A20AB0
:104BA00094F8A64A0DB11823EB800EB11923F380B7
:104BB0000FB11A23FB80B8F1000F15D1384601213F
:104BC000FDF700FDFEF796F928460121FDF7FAFCF6
:104BD0003046FDF7F7FC2846FEF78CF930460121F8
:104BE000BDE8F047FEF786B90DF02AFF814608B10F
:104BF0001B23C38050460DF023FF804608B11C23C1
:104C0000C38020460DF01CFF044608B11D23C3805D
:104C100038460121FDF7D6FCFEF76CF94846FDF752
:104C2000D1FC4046FDF7CEFC2046FDF7CBFC012130
:104C30004846FEF75FF940460121FEF75BF9012186
:104C40002046FEF757F9BFE7481A0024D0F8501164
:104C50002422F8B5C0F8D02104460A6800238068F1
:104C600004F5A87522F001020A600B604B608B60AE
:104C700094F805C0C4F8D83184F8CC31C4F8D031E8
:104C8000C4F86831C4F8D431C4F87031C4F8643160
:104C90004FEA8C23B44A03F48053C4F85401914280
:104CA000C4F858314FEA0C3303F40053C4F85C31B4
:104CB0004FEA0C2303F48063C4F8603100F0AE8146
:104CC000237913F0010002D00422C4F8642113F008
:104CD000020305D0D4F8642142F00802C4F864212C
:104CE0001CF0010F0DD048B1D4F8782142F0020237
:104CF000C4F878214FF48032C4F88021002B40F0B2
:104D000081819A4B03F12C0053F8042B944200F05C
:104D10003F819842F8D11CF0080F40F04F81D4F841
:104D2000D031002B00F09C8124232846C4F8D031D8
:104D30000B6823F001030B6045F046FD012815D0F8
:104D4000D4F87831002B40F09181D4F850312846C6
:104D50005A6822F490425A609A6822F02A029A60B5
:104D60001A6842F001021A6050F08CFD2379DA07CC
:104D70006DD5D4F82C21002A00F05F810023D4F8EF
:104D8000341104F13C06E2634FF48062C4F8B810B9
:104D90003046E264C4E91133C4E91433C4E918337A
:104DA000C4E91A334FF48033E3654FF48073A3658D
:104DB00051F0EEFA304643F073FFD4F8D431C4F822
:104DC000C861202B65673DD1E368626999B2CAB3B7
:104DD000B1FA81F04009A9B394F8CCC1BCF1010F3C
:104DE00030D02227C4F8D80194F870C0C4F8D47128
:104DF0005F4FA4F8AC110121A7675E4F8C45C4F842
:104E0000A821E7675C4FC4F88C0084F8CC11C4F883
:104E100088700ED094F8717084F87010012FD4F857
:104E2000501100F02B814FF4006384F87000C4F837
:104E30009030102100222023C4F8D81184F8CC210E
:104E4000C4F8D031E26B23795268C4F844219B073F
:104E500040F18880D4F83021002A00F0E38000235C
:104E6000D4F8381104F1B406C4F8B420C4F8C03042
:104E70004022C4F8D0303046C4E93233C4E9363376
:104E8000C4E938334FF48033C4F8D4304FF480632E
:104E9000C4E92E12C4F8C43051F07AFA304643F017
:104EA000FFFE002840F0B980D4F8B420334B3448DA
:104EB0003449824218BF9A42C4F8C461C4F8EC5025
:104EC00000F160000CBF012300232F4C8A4208BF71
:104ED00043F001033031A24208BF43F001036034C4
:104EE0008A4208BF43F001033031824208BF43F0D9
:104EF000010300F568708A4208BF43F0010301F521
:104F00005C71A24208BF43F0010304F568748A4251
:104F100008BF43F001033031824208BF43F0010370
:104F200060308A4208BF43F001033031A24208BF1B
:104F300043F001038A4208BF43F00103303182424B
:104F400008BF43F001038A4208BF43F001033BB9A5
:104F50000E4BD31AB3FA83F35B09002B00F0A78042
:104F600000235360F8BD00BF000C0058BC1C00209B
:104F7000755B0808A95B0808AD5B080810000240D3
:104F8000280002404000024058000240B80402409D
:104F9000002C3FF4C0AE94F8F831002B3FF4BBAEC8
:104FA000D4F878311CF0080F43F00803C4F87831C6
:104FB0004FF40043C4F888313FF4B1AED4F8D03197
:104FC000002B50D024232846C4F8D0310B6823F09E
:104FD00001030B6045F0F8FB01283FF4C7AED4F89D
:104FE0007831002B46D1D4F8503128465A6822F443
:104FF00090425A609A6822F022029A609A6842F0BF
:105000000802ACE6D4F8783143F00103C4F87831F3
:105010004FF40033C4F87C3173E6FEE70423C4F890
:1050200074314DE6D4F8DC311A6842F080021A601F
:105030001A6842F040021A60F8BDD4F8DC21116809
:1050400041F480711160916841F001019160116833
:1050500041F020011160116841F010011160F6E685
:1050600084F8CC3160E684F8CC31ABE7284645F0D3
:1050700087FE6AE6284645F083FEB4E79BB22431FA
:10508000304644F02DF800287FF4D3AED4F85031E8
:1050900084F8CC011A6842F480721A609A6842F06F
:1050A00001029A609A6842F040029A60CAE6536030
:1050B000F8BD00BFF8B50446EFF31185502383F324
:1050C0001288D0F830311B6803F001031BB1EDB238
:1050D00085F31188F8BDD0F8D021D0F8D4110A4357
:1050E00002F02102212AF2D0D0E909218A424FD0D0
:1050F0004BD800691A46431A9BB2A262002284F878
:10510000E021D4F8D021202AE1D1A2695118DED0C3
:10511000B3FA83F25209002BD9D094F8CC010128BC
:10512000D5D02120A4F8A6314FF0010CC4F8D82125
:10513000C4F8D001D4F8C401C4F8A011A4F8A43173
:1051400084F8CCC170B31D4E90F834E0C6631C4E99
:10515000E645026506641B4EC6640CD090F83560C7
:10516000D4F85071664580F834C015D04FF4006310
:1051700080F834204365102100222023C4F8D81180
:1051800084F8CC21C4F8D031A1E7531A9BB2B4E71C
:10519000012380F8E0319AE707F1280243F0A0FFED
:1051A0000028E8D1D4F8503100224021196284F857
:1051B000CC219A6842F080029A6088E74D5B08082B
:1051C000715B0808AD5B08082DE9F8434D4C04EB12
:1051D0008004D4F8C04B002C44D0D4F8E8511F46CA
:1051E000494B0646A1602046236090466B68C4F890
:1051F000DC31AB6B63616B6BA361EB8FE360AB8FF7
:105200002361424BC4F8E4310DF0B4FD6B68A88D06
:10521000C4F85031002863D194F8EE010DF010FC71
:10522000022117F00802034694F8EC9184F8F91172
:105230001BD060B317F0510F4FF00B0206F10106BF
:1052400014BF0A211A2117F0410FC671827114BFD1
:105250004023202394F8EF211943FDF707FBD4F8EE
:105260002C314BB32046BDE8F88318F0020F0ED066
:1052700068B14FF00B0C3B0680F806C006F1010C3C
:1052800080F807C02FD494F8EF21FDF7EFFA4846D5
:105290000DF0D6FB0028E2D018F0010FDFD00C2271
:1052A00001360221C671827194F8ED21FDF7DEFA14
:1052B000D4F82C31002BD5D195F8321095F8300068
:1052C00089094EF0EBFD95F830300122104903F0CA
:1052D0001F005B098240204641F82320BDE8F88387
:1052E0004EF05CFE98E7D4F850714FF0010C20218D
:1052F0003B6823F008033B6084F8F9C1FDF7B6FA78
:10530000C5E700BFFC100020B0AE0908DD4204086C
:1053100000E100E0BFF34F8F0549064BCA6802F475
:10532000E0621343CB60BFF34F8F00BFFDE700BFC8
:1053300000ED00E00400FA0519484FF6FF0C194A89
:1053400084B0C168184B01EA0C010A43C260D3F86B
:10535000D020D3F8DC2042F00052C3F8DC20D3F890
:10536000DC2002F000520192019AD3F8DC2042F0D6
:105370008042C3F8DC20D3F8DC2002F080420292A5
:10538000029AD3F8DC2042F00042C3F8DC20D3F8C4
:10539000DC3003F000430393039B04B00DF0E0BE48
:1053A00000ED00E00005FA050044025808B51D486C
:1053B0000023C0F88430BFF34F8F436923F4803358
:1053C0004361BFF34F8FD0F8803043F6E074C3F3EE
:1053D0004E3CC3F3C90E4FEA4C1C0CEA0401734661
:1053E00041EA8372013BC0F874225A1CF8D1ACF137
:1053F000200C1CF1200FF0D1BFF34F8FBFF36F8F44
:10540000BFF34F8FBFF36F8F4369002223F4003344
:105410004361C0F85022BFF34F8FBFF36F8F72B656
:10542000FFF778FF00ED00E003689B0AA3F5801307
:10543000522B57D870B53E4C14F803C0BCF10D0F79
:105440004FD840798508002951D04FEA900E4C245E
:1054500038480CEB8C0304FB0C040CEB4303D4F82E
:10546000406E02242B4404FA0EFEF46800EB830520
:105470004EEA0404A966AA67F460EFF3118450238E
:1054800083F312882C2303FB0CF3C1184A6E52B32A
:10549000131DC1F88820284A2C21284D01FB0CF14E
:1054A00005EB010E14310A4452F8041B19B11960BE
:1054B00052F8043C04339645F6D10022E4B21A6057
:1054C00084F311882C2303FB0C03D3F888302BB30F
:1054D0004C2303FB0C00D0F8402ED36843F00103AB
:1054E000D36070BD7047144A24331344D4E7114885
:1054F0004C23022403FB0C0304FA05FED3F8406E90
:105500000CEB8C03F4680CEB430324EA0E042B44ED
:10551000F46000EB8304A166A267AEE74C2303FBB3
:105520000C00D0F8402ED36823F00103D36070BD87
:1055300048AB0908481A0024AC1A0024D01A0024E9
:1055400003689B0AA3F58013522B00D97047144AB5
:10555000D35C0D2BFAD84FF04C0C10B4114C79B928
:10556000417902220CFB03405DF8044B21FA02F35F
:10557000D0F8401E9A40CB6823EA0203CB60704704
:10558000417902220CFB03405DF8044B21FA02F33F
:10559000D0F8401E02FA03F3CA681343CB60704789
:1055A00048AB0908481A002403689B0AA3F5801336
:1055B000522B10D8084AD25C0D2A0CD8407902230D
:1055C00006494FF04C0CD8400CFB02128340D2F835
:1055D000402EDB431361704748AB0908481A00248A
:1055E00001490248FBF77CBCAC1A002400000140D2
:1055F00001490248FBF774BCAC1A002400000140CA
:1056000002494FF08040FBF76BBC00BFD81A002462
:1056100001490248FBF764BC041B0024000400405D
:1056200001490248FBF75CBC301B00240008004025
:1056300001490248FBF754BC5C1B0024000C0040ED
:105640002DE9F843194E3569F3681D4010D04FF02D
:105650000047DFF85C80B5FA85F227FA02F31F2ACB
:105660006FEA030305EA0305336103D0002DF2D18D
:10567000BDE8F883D8F86831A3B103F1FF390023FE
:105680001FFA89F9C8F86831D8F86441002CEDD0C8
:1056900023682046494698476468002CF8D1002DBD
:1056A000D9D1E5E7F16A1FFA81F9EDE70010004072
:1056B000481A002401490248FBF712BCE01B0024F1
:1056C0000004014010B5064C064804F5CC71FBF708
:1056D00007FC04F5F8710448BDE81040FBF700BC76
:1056E000481A002400040140001C004001490248FF
:1056F000FBF7F6BB0C1C00240018004001490248CF
:10570000FBF7EEBB641C0024002000400149024866
:10571000FBF7E6BB901C0024004001400149024811
:10572000FBF7DEBBBC1C00240044014001490248D9
:10573000FBF7D6BBE81C0024004801402DE9F041EE
:105740004FF425728EB000217B4855F07BF87B4BDF
:105750007B4E4FF08041D3F8F02006F68415374693
:1057600042F00102DFF8E08106F66814C3F8F02089
:10577000D3F8F02002F001020092009AD3F8E8205A
:1057800042F00102C3F8E820D3F8E82002F0010259
:105790000192019AD3F8E82042F00202C3F8E8200F
:1057A000D3F8E82002F002020292029AD3F8E8202D
:1057B00042F00402C3F8E820D3F8E82002F0040223
:1057C0000392039AD3F8E82042F00802C3F8E820D5
:1057D000D3F8E82002F008020492049AD3F8E820F3
:1057E00042F01002C3F8E820D3F8E82002F01002DB
:1057F0000592059AD3F8E82042F02002C3F8E82089
:10580000D3F8E82002F020020692069AD3F8F0209E
:1058100042F00202C3F8F020D3F8F02002F00202B6
:105820000792079AD3F8E82042F04002C3F8E82034
:10583000D3F8E82002F040020892089AD3F8E82052
