:020000040800F2
:100000000000022051290B08D5290B084588060855
:10001000D5290B08D5290B08D5290B0800000000AD
:10002000000000000000000000000000D5290B08BF
:10003000D5290B0800000000D5290B08BD40050894
:10004000D5290B08D5290B08D5290B08D5290B086C
:10005000D5290B08D5290B08A91B0508AD1B0508D8
:10006000B11B0508B51B0508B91B05088D4304081D
:100070009D430408AD430408BD430408D14304086C
:10008000E5430408F9430408D5290B08D5290B08D2
:10009000D5290B08D5290B08D5290B08BD1B050848
:1000A000D5290B08D5290B08D5290B082D4F040895
:1000B000414F0408554F0408694F0408D935040816
:1000C000CD35040809360408FD350408D5290B0888
:1000D000D5290B088D59040899590408A559040815
:1000E000C11B0508D5290B0800000000A54F040816
:1000F000F54F04081D500408914F04080D440408EE
:10010000D5290B080D8D04087D4F0408D5290B084F
:10011000B1590408D5290B08D5290B0809A00408F2
:100120002144040835440408494404085D44040893
:1001300071440408D5290B08D5290B08D5290B08CB
:1001400000000000000000000000000000000000AF
:100150008544040899440408AD440408BD590408C2
:10016000393604082D360408D5290B08D5290B0883
:10017000D5290B08D5290B08D5290B08000000004C
:10018000D5290B08D5290B08C9590408D5590408E5
:10019000D5290B08D5290B08D5290B08D5290B081B
:1001A000D5290B08D5290B08D5290B08D5290B080B
:1001B000D5290B08D5290B08D5290B08D5290B08FB
:1001C000D5290B08D5290B08D5290B08D5290B08EB
:1001D000D5290B08218E0408D5290B08D5290B0831
:1001E000D5290B08D5290B08D5290B08D5290B08CB
:1001F000D5290B08D5290B08D5290B08D5290B08BB
:10020000D5290B08D5290B08D5290B08D5290B08AA
:10021000B94F0408CD4F0408E14F0408D5290B0855
:10022000D5290B08D5290B08D5290B08000000009B
:10023000118D0408D5290B0800000000D5290B08F2
:10024000D5290B08D5290B08D5290B08D5290B086A
:10025000D5290B08D5290B08D5290B08D5290B085A
:10026000D5290B08D5290B08D5290B08D5290B084A
:10027000D5290B08D5290B08D5290B08000000004B
:10028000D5290B0800000000D5290B08000000004C
:0802900000000000D5290B0855
:08029800E4230B00010000004B
:1002A000C86501240202000008003F00E86501243F
:1002B0000207000003035B0008660124020200013C
:1002C00008003F00286601240110000000017600AC
:1002D000486601240114000000001E006866012425
:1002E000011A000000000D008866012401150000BD
:1002F00000000C00A86601240116000000000C009C
:10030000C8660124011B000000000E00E8660124FD
:10031000011C000000001E000867012401170000F6
:1003200000000C00286701240118000000000E00E6
:10033000486701240119000000000C0068670124CF
:10034000021D00000002520088670124011E000007
:1003500000000C00A8670124011F000000000C0031
:10036000C86701240128010000001800E867012483
:10037000012000000000480008680124012100005D
:1003800000004900286801240122000000004A0002
:10039000486801240123000000004B006868012424
:1003A0000124000000004C008868012401250000A1
:1003B00000004D00A86801240126000000004E0046
:1003C000C86801240127000000004F00E8680124EC
:1003D000012B00000000290008690124012C010004
:1003E0000000290028690124012D0100000070008F
:1003F00048690124012E01000000520068690124AF
:10040000012F01000000280088690124013001004B
:1004100000002800A86901240133000000003C000E
:0C042000C8690124013600000000200023
:020000040804EE
:10000000836B5A6D12F0500F5A6D1AD1196842F471
:1000100000725A650A6812F0080FCA6816D012F406
:10002000406F15D1CA68920412D45A6D22F48072BE
:100030005A655A6DD1040BD45A6D42F001025A65CB
:100040007047D20604D4DB6CDB6C18479007ECD009
:10005000704700BF704700BF836B5A6D42F040028B
:100060005A659A6D42F004029A657047026838B585
:10007000524B9A4248D018339A4245D03033504CB4
:100080005049A24218BF9A4204F148040CBF012310
:1000900000238A4208BF43F001033031A24208BF67
:1000A00043F0010330348A4208BF43F0010301F5F5
:1000B0005C71A24208BF43F0010304F55C748A42FC
:1000C00008BF43F001033031A24208BF43F00103EF
:1000D00030348A4208BF43F001033031A24208BFE6
:1000E00043F0010330348A4208BF43F0010330314A
:1000F000A24208BF43F001038A4208BF43F0010354
:1001000013B9314B9A4208D1042380F83530136873
:1001100023F001031360002038BD2C4B2C4D1168D7
:10012000AA4218BF9A422B4C21F00E0105F13C0562
:100130000CBF012300231160A24208BF43F001035A
:1001400011682834AA4208BF43F0010321F00101DD
:10015000A24208BF43F0010314341160A24208BF59
:1001600043F001031C498A4208BF43F0010313B95D
:100170001A4B9A4217D10123856DD0E917142268D2
:1001800001F01F0122F480728B4022606B60C36E0D
:10019000D0E91921516033B11A68D0E91C1422F456
:1001A00080721A604C6000210122036D80F83410C7
:1001B00080F83520002BAED09847ACE71000024005
:1001C0004000024070000240B80402401C54025833
:1001D000085402583054025880540258945402581B
:1001E000002280F8422090F84130292B04D090F86A
:1001F00041302A2B18D070474FF0280C212301687A
:1002000080F841C0036390F8413003EA0C03634572
:100210000B680CBF6FF0420C6FF0F20C03EA0C039A
:100220000B6080F84020704710B422232824016816
:1002300080F84140036390F841302340A3420C68AA
:100240000CBF6FF044036FF0F40323405DF8044BE0
:100250000B6080F8402070470023202210B4174C18
:100260004363C462036380F8412080F842304B0747
:1002700012D50268436A526A1A70436A028D0133CA
:1002800043624AB1438D013A013B02859BB24385EB
:10029000436C43F0040343640368102490F8412046
:1002A000002190F841201A6822F0FE021A60DC61F9
:1002B0005DF8044B80F84010704700BF0000FFFF5E
:1002C00010B54FF0000C90F84130444A044680F8D5
:1002D00042C0283BC262A0F82AC0022B426C41EA0D
:1002E000020141643CD890F841204FF0280C90F86E
:1002F000413002F0280203F02803282A0CBF4622CE
:10030000F622282B03684FF000000CBFD1436FF09A
:10031000F6011A680A401A60314A84F841C06263E3
:1003200020631A6812F4804231D01A68A06B22F45C
:1003300080421A6098B100222A4B036584F840205D
:1003400090F83520022A3CD080224265BDE810405A
:10035000184794F84130602B3AD084F8401010BD13
:10036000036890F8412090F841201A6822F0FE02BC
:100370001A6090F84120602A02D0202280F84120A3
:100380000022226362631A6812F48042CDD1196898
:1003900011F40041DDD01968E06B21F400411960CF
:1003A0000028DCD00F4B036584F8402090F83520FE
:1003B000022AC9D1FFF75AFE0028D0D0E06B036DA6
:1003C000C4E7FFF753FE0028C9D0A06B036DBDE75B
:1003D000202384F8401084F8413010BD0000FFFF56
:1003E00065040408F106040803689A69196810B4E2
:1003F000D4052ED50C061FD5416C4FF4807441F006
:10040000010141645105DC6128D5416C4FF48064E1
:10041000920541F008014164DC6106D5426C4FF45D
:10042000007142F002024264D961416C11F00B0F7D
:100430000CD15DF8044B70475405F6D49405F4D5FF
:100440000906EBD4416C11F00B0FF2D05DF8044BB0
:1004500036E75405F2D50906D7D4E6E79205DDD490
:10046000E3E700BF2DE9F84390F84030C66A012B5E
:1004700000F0D980012304460D46914680F84030B3
:10048000880602D512F0200F62D1EF0621D519F0AF
:10049000100F1ED0638D9BB2002B40F0AA8094F801
:1004A0004130B6F1007FDBB202D1282B00F017817A
:1004B00094F841301022292B2368DA6103D116F514
:1004C000803F40F0D2800023184684F84030BDE8D9
:1004D000F88369071DD42A0703D519F0080F40F0E7
:1004E0009880AB07EFD519F0020FECD0638D9BB26B
:1004F000002B00F0A380616A236811F8010B228DA4
:100500009862638D013A6162013B22859BB26385EB
:10051000D9E719F0040FDED0638D9BB26BB122686E
:10052000636A526A1A70638D616A228D013B0131E0
:10053000013A9BB2616222856385638D9BB2002B79
:10054000C1D116F5803FBED02046FFF749FEBAE77D
:1005500023682021644A1F68D96194F8411094F8F7
:100560004110186820F0FE001860586840F4004000
:1005700058605968114059609969890701D500216F
:1005800099629969CA0703D4996941F00101996197
:1005900078044BD5A16B19B10868416889B26185AF
:1005A0006A0749D5596A25F00408636A1970636AB5
:1005B00001336362238D002B50D1638D9BB21BB13D
:1005C000636C43F0040363640023236384F84230C4
:1005D000676C6363002F56D1E36ADFF810814345EF
:1005E00031D194F84130202384F8407084F84130B0
:1005F0004BE723681022DA61636C43F00403636401
:1006000036F080737FF45FAF616C2046FFF758FED1
:1006100059E794F8413003F02803282B236840D091
:100620000822DA614FE70220BDE8F8833904B7D524
:10063000E16B0029B0D1B3E7A846BEE736F080737E
:100640007FF441AF80E72046FFF7CAFD2023C4F8BE
:100650002C8084F8407084F8413016E7013B2385F4
:10066000638D013B9BB26385A7E79A69950701D526
:1006700000229A629A69D0073FF566AF9A6942F004
:1006800001029A6160E7616C2046FFF719FE94F859
:100690004130282B7FF4F9AE41462046FFF7DCFDC0
:1006A000F3E6E1689A69022998699A68DD6811D1D0
:1006B000C2F3C21282EA104212F006020AD1A16C01
:1006C0000131A164A16C02297FF4FDAE0821A2646E
:1006D000D961F8E61A6822F0B8021A60F3E62946F2
:1006E0002046FFF7B9FDEEE600E800FE0000FFFF40
:1006F000836B0022D3E90E0102650A6593F841205D
:10070000602A02D1202283F841207047026870B429
:10071000D4072DD597490B69896A03F03803102B4C
:1007200000F0F180182B00F0E9804368B3F5803FBA
:1007300000F05581002B00F05B81B3F5A02F8D4BAD
:10074000196800F0328221F480311960196821F4AF
:1007500080211960884B41F2883C864C1D6804E07A
:100760001968491B614500F2408121688E03F7D565
:1007700091072DD57F490B69896A13F0380300F082
:10078000A680182B00F0A080C3687A4C002B00F0E4
:100790006981216821F019011943774B21601D6897
:1007A00004E01968491B022900F21F8121684907EA
:1007B000F7D5724941F203030968B3EB114F63683F
:1007C0000169C0F0238223F47C3343EA0133636080
:1007D000D5064CD4150713D54369664C002B00F0A1
:1007E0009E80616F644B41F0010161671D6804E008
:1007F0001968491B022900F2F880616F8907F7D553
:10080000940613D583695B4C002B00F007812168A7
:10081000594B41F4805121601D6804E01968491B5F
:10082000022900F2E28021688904F7D5540700F11B
:10083000A780436AC3B14F490A6902F03802182AF7
:1008400000F085810A68022B4B4B22F080720A600F
:1008500000F01E81186804E01A68121A022A00F2D9
:10086000C4800A689201F7D4002070BC70474149E7
:100870000B69896A03F03803082B63D0182B5DD00D
:10088000C3693C4C002B00F0D88021683A4B41F002
:10089000800121601D6804E01968491B022900F2EB
:1008A000A4802168C905F7D5344941F203030968DA
:1008B000B3EB114FC0F097816368016A23F0F843EE
:1008C00043EA8163636085E78D077FF45DAF294B61
:1008D0001B685C0701D5C368F3B1284941F20303E3
:1008E00004690968B3EB114F22494B68C0F0B4802A
:1008F00023F47C3343EA04334B6069E701F00301DE
:1009000002297FF412AF1B4B1B689B037FF530AFAE
:100910004368002B7FF42CAF012070BC7047616FDF
:10092000154B21F0010161671D6803E01968491B3F
:1009300002295AD8616F8E07F8D461E701F00301EC
:1009400001299DD10B4B1B68DC0502D5C369802BA7
:10095000E2D10A4941F20303046A0968B3EB114F7B
:100960000449C0F08E804B6823F0F84343EA846367
:100970004B602FE700440258802B00240010005CDD
:100980009D499E4B0A6842F480720A601C6803E02D
:100990001A68121B642A28D80A68D505F8D5826817
:1009A000012A00F03981002A00F00781052A944AC3
:1009B000116F00F0378121F001011167116F21F0F3
:1009C000040111671D6841F288348D4903E01A68FB
:1009D000521BA24209D80A6F9207F8D529E7884925
:1009E0000B6843F480330B60B4E6032070BC70479F
:1009F000834C41F28835814B216821F4803121609C
:100A0000216821F4802121601E6803E01968891B98
:100A1000A942EAD821688903F8D4A9E62168774B6E
:100A200021F4805121601D6803E01968491B0229E7
:100A3000DBD821688E04F8D4F8E621686F4B21F0EA
:100A4000800121601D6803E01968491B0229CCD888
:100A50002168CE05F8D4BDE623F0FE4343EA0463E3
:100A60004B60B5E62168654B21F0010121601D68EE
:100A700003E01968491B0229B7D821684E07F8D44A
:100A8000A6E6CB6823F07C5343EA0463CB60A1E67F
:100A90001C6803E01A68121B022AA6D80A6895018E
:100AA000F8D48C6A574A2240846A2243C46A42EAD4
:100AB00004128A62D0E90D24013A013C5202240456
:100AC00092B204F4FE042243046B013CC4F3080414
:100AD0002243C46B013C240604F0FE4422430A6313
:100AE000CA6A22F00102CA62474A4D6B846C2A40EE
:100AF00042EAC4024A63CA6A046C22F00C0222432E
:100B00003F4CCA62CA6A406C22F002020243CA62C7
:100B1000CA6A42F48032CA62CA6A42F40032CA62C5
:100B2000CA6A42F48022CA62CA6A42F00102CA62F8
:100B30000A6842F080720A60196804E01A68521A62
:100B4000022A3FF652AF22689001F7D58CE6012BBE
:100B50008A6A0C6B3FF4E0AE02F00303816A8B42B9
:100B60007FF4DAAEC2F30512C36A9A427FF4D4AEC0
:100B7000036BC4F30802013B9A427FF4CDAE436B92
:100B8000C4F34622013B9A427FF4C6AE836BC4F3A2
:100B90000642013B9A427FF4BFAEC36BC4F30664C6
:100BA000013B9C423FF460AEB6E641F480211960FF
:100BB000196841F480311960CCE5114941F288355A
:100BC0000A6F22F001020A670A6F22F004020A6724
:100BD0001C6804E01A68121BAA423FF606AF0A6FAF
:100BE0009607F7D425E6E368016A23F07C5343EACD
:100BF0000163E360EEE500BF00480258802B00244B
:100C0000004402580CFCFFFF0700FFFF23F0FE43E7
:100C100043EA01636360DBE506490A6F42F00102C3
:100C20000A67CFE641F004011167116F41F001013D
:100C30001167C7E600440258454B30B49A6A9C6A73
:100C4000DD6A14F47C7F596BC4F3051038D0C1F30E
:100C5000CC0105F0010502F0030205FB01F1012AB8
:100C600007EE901AB8EEE77A02D0022A4ED04AB3C5
:100C700007EE900ADFED376AF8EEE77A1B6B86EE37
:100C8000A76A9FED355AC3F3080306EE903AF7EED4
:100C9000005AF8EEE66AE7EE056A76EEA56A66EEB9
:100CA000266A2B4B1B6BC3F34623013307EE903AA6
:100CB000B8EEE77AC6EE877AFCEEE77A17EE900A8E
:100CC00030BC70471A68920627D5196807EE900A5B
:100CD000224AF7EE005A1B6BC1F3C101F8EEE77A26
:100CE0009FED1D5AC3F30803CA4006EE903A06EE84
:100CF000102AF8EEE66AB8EEC66AE7EE056A86EEF6
:100D0000277A76EEA56A66EE876ACAE707EE900A4A
:100D1000DFED136AF8EEE77AB0E707EE900A9FED91
:100D2000115A1B6BB7EE006AF8EEE77ADFED0A5A4C
:100D3000C3F30803C5EE276A07EE903AF8EEE77AA8
:100D4000E7EE257A77EE867A66EEA76AA9E700BF16
:100D5000004402580024744A000000390090D00377
:100D60000024F44A0024744C836ADA0710B406D5D0
:100D70000168C46A4A6822F4003222434A609C0730
:100D800006D50168046B4A6822F4803222434A6027
:100D9000590706D50168446B4A6822F48022224331
:100DA0004A601A0706D50168846B4A6822F400423B
:100DB00022434A60DC0606D50168C46B8A6822F4C7
:100DC000805222438A60990606D50168046C8A68BD
:100DD00022F4005222438A605A060AD50168446C04
:100DE0004A68B4F5801F22F4801242EA04024A6085
:100DF0000BD01B0606D50268C16C536823F4002390
:100E00000B4353605DF8044B70474A68846C22F4CE
:100E1000C00222434A60ECE70022836BA3F85E2005
:100E2000A3F85620704700BF134B41F2883C134A89
:100E300001461B68A2FB0332520A0CFB02F2531E4E
:100E400042B14A6B013B12F0450F01D0920404D528
:100E5000581CF6D14FF0004070474B6B5B0707D42E
:100E6000486B10F0010014BF0123054B8B637047E2
:100E7000042318468B63704700000024D34D621092
:100E8000C5002000036942681F2B70B430D9A3F15C
:100E9000200520215468A940214227D08169087C7F
:100EA000022835D048681F2BC9681B4D4E68016960
:100EB000C1F30324194951F8244015F804C005680A
:100EC00056F80C4024F0010446F80C40407901EB40
:100ED0004001098C01F4F050E96821EA0001E96061
:100EE00010D9A3F1200120238B40D36070BC704740
:100EF0002021146899402142F8D08169087C022899
:100F0000D0D105E0202101FA03F370BC9360704753
:100F100000200874C6E700BF5CB20B08F8B00B08ED
:100F2000436BDA69910670B5044614D5586AE36AD2
:100F3000C0B2002B00F0F080216B9847636B1A68F9
:100F400022F480721A609A6822F001029A609A690B
:100F500042F008029A61DA69D20701D501221A62C9
:100F6000DA69960701D502221A62DA69550701D5B6
:100F700004221A62DA69100701D508221A62DA69B6
:100F8000110613D5D4F8B420212A0FD0D4E90912C0
:100F90008A4200F0CD80A169895C0132C9B29962B0
:100FA0002169B2FBF1F001FB1022A262DA6952065C
:100FB00000D470BDDA6940F60F0C1D6804F13400EE
:100FC00012EA0C0F996826D1960607D505F020067F
:100FD00001F0805C56EA0C0640F0C980D60202D5CA
:100FE0004E0200F1C980160606D501F4000105F095
:100FF0008006314340F0A8805106DAD56A06D8D57C
:101000001A682020002122F040021A60C4F8B400BF
:10101000C4F8A41070BD604E01EA060C5F4E05EAEC
:10102000060E5EEA0C06D9D0D60709D5EE0507D51F
:1010300001261E62D4F8BC6046F00106C4F8BC600C
:10104000960700F18680560709D5CE0707D50426F6
:101050001E62D4F8BC6046F00206C4F8BC601607F5
:101060000CD505F0200656EA0C0607D008261E62AD
:10107000D4F8BC6046F00806C4F8BC6016050AD572
:101080006E0108D54FF400661E62D4F8BC6046F0CD
:101090002006C4F8BC60D4F8BC60002E89D0960647
:1010A0000BD505F0200501F0805155EA010204D06E
:1010B000D4F8A0200AB19047636BD4F8BC109A68AA
:1010C00001F0280102F040020A4362D01968202092
:1010D000334A21F49071196099680A4000219A609E
:1010E000C4F8B8009A68C4F8A01052067FF561AF42
:1010F0009A68D4F8AC0022F040029A6000283FF4CD
:1011000058AF90F83520274B022A036538D080224B
:101110004265BDE870401847E3696269D054E369ED
:10112000E2680133B3FBF2F102FB1133E36105E73F
:101130000022A4F88A201A6822F080021A60DA6974
:1011400052067FF536AF35E7D4F8A430002BE0D156
:101150002FE7CE0783D502261E62D4F8BC6046F086
:101160000406C4F8BC6056077FF579AF6FE7D4F882
:10117000A030002BCDD11CE74FF480121A6270BD55
:10118000FEF774FF00283FF414AFD4F8AC00036DF1
:10119000BFE7C4F8BC2070BD0100001020010004AE
:1011A000FEFFFFEF190E0408D0E907239A4201D38E
:1011B000D01A7047C0681044C01A7047D0E909239C
:1011C0009A4204D30069D31A0138C01A70470069E3
:1011D00002440138D31AC01A704700BFD0E909028F
:1011E000101AB0FA80F04009704700BF016A034648
:1011F00040694A1C405CD9688A4228BF00221A62B2
:10120000704700BF436A826910B4D154436A416B8E
:10121000046901330A68A34228BF00235DF8044B28
:1012200042F0800243620A60704700BF436BD86996
:1012300010F0100002D0102201201A62704700BF87
:101240002DE9F047046982B0C3681C4044D0814650
:1012500088464FF0004501F1500701F13806B4FA15
:1012600084F325FA03F21B3BD2431440C9F8102043
:10127000B8F1000F5DD0042B2CD8DFE803F0504606
:101280003B300300D8F81030D9F82CA033B19B685C
:1012900023B11FFA8AF108F108009847D8F82830DE
:1012A00033B19B6823B11FFA8AF108F120009847F7
:1012B000D8F840302BB19B681BB11FFA8AF1304639
:1012C0009847D8F858302BB19B681BB11FFA8AF1A8
:1012D00038469847002CC2D102B0BDE8F087D8F854
:1012E000103008F10800D9F834105B689847002CDA
:1012F000B5D1F1E7D8F8283008F12000D9F8381036
:101300005B689847002CAAD1E6E7D8F84030304611
:10131000D9F83C105B689847002CA0D1DCE7D8F8DE
:1013200058303846D9F840105B689847002C96D161
:10133000D2E7042B07D8DFE803F00319140F0A00E3
:10134000D9F840300193019B002C88D1C4E7D9F82B
:101350002C300193019BF7E7D9F834300193019BBE
:10136000F2E7D9F838300193019BEDE7D9F83C302A
:101370000193019BE8E700BF70B5124E124A336833
:10138000A2FB03239B09013BB3F1807F0FD24FF0F7
:10139000E0220E4900240F2853614FF0F003054668
:1013A00081F823304FF007039461136101D90120C4
:1013B00070BD01464FF0FF306CF02AFA2046756090
:1013C00070BD00BF00000024D34D621000ED00E0AE
:1013D000034A0130116813685B1A8342FBD37047DC
:1013E000802B00240268354B354930B4354D364CDE
:1013F000AA4218BF9A420CBF012300238A4208BFA9
:1014000043F001033031A24208BF43F001033034FE
:101410008A4208BF43F001033031A24208BF43F0C3
:10142000010330348A4208BF43F0010301F55C71C7
:10143000A24208BF43F0010304F55C748A4208BF6E
:1014400043F001033031A24208BF43F001033034BE
:101450008A4208BF43F001033031A24208BF43F083
:10146000010330348A4208BF43F001033031A24205
:1014700008BF43F001038A4208BF43F0010313B9D8
:10148000124B9A4215D1D3B21149124C103BA1FB19
:1014900003515F2B104BC1F3021103EA02032144F5
:1014A00088BF043391F828108365C165184630BCA5
:1014B000704722F0FF038365F8E700BF1000024089
:1014C000400002402800024058000240B804024098
:1014D000ABAAAAAAF8B00B0800FCFFFF2DE9F04F59
:1014E0000D6883B0002D00F0D5800023DFF86882FE
:1014F00001229A4012EA050C00F0C7804E6826F0DF
:101500001009B9F1020F40F0C88003F007044FEA58
:10151000D30E4FF00F0A4FEA840900EB8E0E0AFA41
:1015200009FADEF8204024EA0A0A0C6904FA09F4F0
:1015300006F0030944EA0A04CEF820404FEA430EBD
:101540000324D0F800A009FA0EF904FA0EF42AEAEE
:10155000040AE44349EA0A09C0F80090D0F808A058
:10156000CF6804EA0A0A07FA0EF949EA0A09C0F83C
:101570000890C6F30019D0F804A009FA03F92AEA82
:10158000020249EA02024260C268F70004EA020469
:101590008A6802FA0EF242EA0402C26075D5644C0F
:1015A00023F0030E03F00309D4F8F420C6444FEAF5
:1015B000890942F00202C4F8F420D4F8F42002F0C1
:1015C00002020192019A0F22DEF8084002FA09F2A3
:1015D00024EA0202574CA04225D004F58064A042C0
:1015E0007BD0554CA0427ED0544CA0426FD0544C7E
:1015F000A04200F08480534CA04200F08680524C00
:10160000A04276D0514CA04200F08580504CA042C0
:1016100000F087804F4CA0420CBF09240A2404FA32
:1016200009F942EA0902CEF808204FF0B0426FEA09
:101630000C0EF403D2F880204FF0B04454BF0EEAF1
:1016400002024CEA0202C4F88020B203D4F88440BB
:101650004FF0B04254BF0EEA04044CEA0404F7020F
:10166000C2F8844014684FF0B04254BF0EEA04043C
:101670004CEA04041460B40252684FF0B04454BF02
:101680000EEA02024CEA02026260013335FA03F20A
:101690007FF42EAF03B0BDE8F08F4FEA430E032472
:1016A000D0F800B006F0030A04FA0EF409F1FF398D
:1016B0000AFA0EFA2BEA040BB9F1010F6FEA0404DF
:1016C0004AEA0B0AC0F800A03FF65EAF46E70324E3
:1016D00004FA09F942EA0902A5E7012404FA09F922
:1016E00042EA09029FE7022404FA09F942EA0902E0
:1016F00099E7062404FA09F942EA090293E7042467
:1017000004FA09F942EA09028DE7052404FA09F905
:1017100042EA090287E7072404FA09F942EA0902C2
:1017200081E7082404FA09F942EA09027BE700BFCD
:10173000004402580000025800080258000C0258E9
:10174000001002580014025800180258001C0258D9
:101750000020025800240258000400580C4A136963
:1017600003F03803102B04D0182B0DD01BB10948FF
:1017700070470948704713689B0607D513680748E8
:10178000C3F3C103D8407047FFF756BA0348704708
:101790000044025800093D0000127A000090D00376
:1017A000184A136903F03803102B10B51AD0182B00
:1017B00023D0CBB114481349144A8B69144CC3F39A
:1017C0000323134493F8303003F01F03D840206004
:1017D0008B6903F00F031A4492F8303003F01F03B3
:1017E000D84010BD0B48E6E713689B0608D5136880
:1017F0000948C3F3C103D840DDE7FFF71DFADAE774
:101800000548D8E70044025800093D00F8B00B082D
:101810000000002400127A000090D003584B70B4EE
:10182000996A9D6ADE6A15F47C3FC5F30532DC6B6C
:101830005CD0C4F3CC04C6F3001601F0030106FB30
:1018400004F4012907EE904AB8EEE77A03D00229A2
:1018500075D000294FD007EE902ADFED4A6AF8EEE6
:10186000E77A9B6B86EEA76A9FED475AC3F308039E
:1018700006EE903AF7EE005AF8EEE66AE7EE056AF1
:1018800076EEA56A66EE266A3D4AB7EE006A936B6D
:10189000C3F3462307EE103AB8EEC77A70BC37EEB2
:1018A000067AC6EE877AFCEEE77AC0ED007A936B93
:1018B000C3F3064307EE103AB8EEC77A37EE067A5E
:1018C000C6EE877AFCEEE77AC0ED017A936BC3F33C
:1018D000066307EE903AF8EEE77A77EE867A86EEC0
:1018E000A77ABCEEC77A80ED027A704770BCC0E977
:1018F0000022826070471968890627D51C6807EEA8
:10190000902A2249F7EE005A9B6BC4F3C102F8EE0D
:10191000E77A9FED1D5AC3F30803D14006EE903AD3
:1019200006EE101AF8EEE66AB8EEC66AE7EE056A49
:1019300086EE277A76EEA56A66EE876AA4E707EE5A
:10194000902ADFED136AF8EEE77A8AE707EE902A2D
:101950009FED105A9B6BB7EE006AF8EEE77ADFED69
:101960000A5AC3F30803C5EE276A07EE903AF8EE69
:10197000E77AE7EE257A77EE867A66EEA76A83E75E
:10198000004402580024744A000000390090D0033B
:101990000024F44A0024744C584B70B4996A9D6A30
:1019A000DE6A15F07C7FC5F305525C6C5CD0C4F335
:1019B000CC04C6F3002601F0030106FB04F4012960
:1019C00007EE904AB8EEE77A03D0022975D00029D5
:1019D0004FD007EE902ADFED4A6AF8EEE77A1B6CEB
:1019E00086EEA76A9FED475AC3F3080306EE903AC6
:1019F000F7EE005AF8EEE66AE7EE056A76EEA56ABB
:101A000066EE266A3D4AB7EE006A136CC3F34623BE
:101A100007EE103AB8EEC77A70BC37EE067AC6EE1B
:101A2000877AFCEEE77AC0ED007A136CC3F30643C5
:101A300007EE103AB8EEC77A37EE067AC6EE877A26
:101A4000FCEEE77AC0ED017A136CC3F3066307EE90
:101A5000903AF8EEE77A77EE867A86EEA77ABCEED1
:101A6000C77A80ED027A704770BCC0E900228260BC
:101A700070471968890627D51C6807EE902A224905
:101A8000F7EE005A1B6CC4F3C102F8EEE77A9FED43
:101A90001D5AC3F30803D14006EE903A06EE101A21
:101AA000F8EEE66AB8EEC66AE7EE056A86EE277AD1
:101AB00076EEA56A66EE876AA4E707EE902ADFED68
:101AC000136AF8EEE77A8AE707EE902A9FED105A3C
:101AD0001B6CB7EE006AF8EEE77ADFED0A5AC3F343
:101AE0000803C5EE276A07EE903AF8EEE77AE7EECC
:101AF000257A77EE867A66EEA76A83E70044025875
:101B00000024744A000000390090D0030024F44AF5
:101B10000024744C2DE9F0418268044686B02368A5
:101B2000D0E904101D680A43616E0243E069024374
:101B30000A4394492940944D0A43E168AB421A6034
:101B40005A6822F4405242EA0102A1695A6000F048
:101B5000A280226A9D6811438C4A666A2A4011431A
:101B60009960DA6A22F00F023243DA62884A9342BD
:101B700025D0884A934258D0874A934200F0448245
:101B8000864A934200F0BB82854A934200F0F0807F
:101B9000844A934200F0BD82834A934200F0EF856D
:101BA000824A934200F0EA82012500234FF001129D
:101BB00028462367C4E91A2306B0BDE8F0817C4BB0
:101BC0005B6D03F03803282BEED87A4A134493F860
:101BD0004050B0F5004F35D0202D00F2EB81202D84
:101BE00000F2BA80DFE815F0AF017701B800B80065
:101BF0006F01B800B800B8004601B800B800B800DE
:101C0000B800B800B800B8001901B800B800B800B2
:101C1000B800B800B800B800B800B800B800B80004
:101C2000B800B800B800B800EA00614B5B6D03F083
:101C30000703052BB8D85F4AB0F5004F134493F85B
:101C40006C50C9D1202D00F22F82202D00F210827D
:101C5000DFE815F0B2037F040E020E024F040E02FD
:101C60000E020E02B8040E020E020E020E020E0248
:101C70000E020E0219040E020E020E020E020E02D7
:101C80000E020E020E020E020E020E020E020E02D4
:101C90000E020E02EA0398683C4A024044480A4396
:101CA0009A60DA6A616A22F00F020A43DA62836D8F
:101CB00003F00703052B3FF677AF3E4F3B4493F805
:101CC0007460202E00F2AA81012E7FF66DAFB31E44
:101CD0001E2B3FF669AF01A252F823F0AF22040891
:101CE000A91B040859220408A91B0408A91B0408FD
:101CF000A91B040837230408A91B0408A91B04080E
:101D0000A91B0408A91B0408A91B0408A91B040893
:101D1000A91B0408D7220408A91B0408A91B04084E
:101D2000A91B0408A91B0408A91B0408A91B040873
:101D3000A91B0408A91B0408A91B0408A91B040863
:101D4000A91B0408A91B0408A91B0408A91B040853
:101D5000A91B04084D23040801250023A3F1100149
:101D60004FF6EF7291423FF61FAF2268D3601CE737
:101D70000F4B5B6D03F00703052B3FF615AF0E4AC3
:101D8000D55C26E7F369FFCF000C0058FFF4FF1184
:101D9000001001400044004000480040004C00405A
:101DA000005000400014014000780040007C0040DA
:101DB00000440258F8B00B0864B10B08002E00F084
:101DC000B281012E00F09485022E00F0A785032E2B
:101DD00000F0E885042E00F00986052E00F07C86D0
:101DE000062E00F0AE86072E00F00A87082E00F0BF
:101DF0008387092E00F0A7870A2E01F0158043F68D
:101E00000953A44A0B2E18BF13466268002503EB42
:101E10005203B3FBF2F39BB2A0E79F4B1A68920602
:101E200040F183811A689D4BC2F3C102D340002E5A
:101E3000EBD0012E00F00482022E00F0DC84032E91
:101E400000F0D684042E00F04485052E00F0C286F2
:101E5000062E00F0FF86072E00F03B86082E00F0CD
:101E60006D86092E00F0A9860A2E00F0E8860B2E5A
:101E7000CBD126E06846FFF78FFD626A019B002AFE
:101E8000C3D0012A00F0DC81022A00F0B484032AC6
:101E900000F0AE84042A00F01C85052A00F01685A7
:101EA000062A00F0B285072A00F01386082A00F0FF
:101EB0004586092A00F081860A2A00F0C0860B2A8E
:101EC000A3D11B0AA1E703A8FFF7A8FC626A049B41
:101ED000002A9AD0D5E7FFF763FC6F4A704BD269AE
:101EE000616AC2F30222134493F8303003F01F03F7
:101EF000D84001B3012900F0FE84022900F0DD84FE
:101F0000032900F0D784042900F04085052900F05A
:101F10003A85062900F02286072900F06E860829F6
:101F200000F0F686092900F026870A2900F0578775
:101F30000B2908BF000A6268002500EB5203B3FBBF
:101F4000F2F39BB20AE7FFF72BFC534A544BD269DA
:101F5000C2F302121344626A93F8303003F01F0395
:101F6000D84002B3012A00F0C984022A00F0AB84F1
:101F7000032A00F0A584042A00F00285052A00F057
:101F8000FC84062A00F0E485072A00F03F86082A30
:101F900000F0AF86092A00F0DA860A2A00F04A87A4
:101FA0000B2A08BF000A626800EB5203B3FBF2F38E
:101FB0009BB2D3E6402D7FF4F7AD002E00F0DB801E
:101FC000012E00F09E84022E00F0AB84032E00F060
:101FD000E584042E00F00D85052E00F08085062E88
:101FE00000F0B285072E00F0FA85082E00F0478633
:101FF000092E00F0B9860A2E00F0F7860B2E0CBFD2
:1020000080234FF4004300E7234B5B6D03F007038D
:10201000052B3FF6C9AD234AD55CDAE5402E7FF4A7
:10202000C3AD002900F0B480012900F072840229B8
:1020300000F0A084032900F0D084042900F0428538
:10204000052900F07385062900F0BD85072900F0F9
:102050000F86082900F06B86092900F0A6860A2958
:1020600000F0DE860B290CBF80254FF4004591E07F
:1020700001250023A3F110014FF6EF7291423FF6C4
:1020800093AD23F00F02C3F3420313432268D360DE
:102090008BE500BF00093D00004402580090D003CA
:1020A000F8B00B0864B10B08402D7FF47DAD002E15
:1020B00000F0C880012E00F0C780022E00F083845B
:1020C000032E00F0EE84042E00F02485052E00F08F
:1020D0006C85062E00F0AD85072E00F02486082EB4
:1020E00000F07386092E00F097860A2E00F0DB863A
:1020F0000B2E0CBF4FF480704FF48030A4E0A74B40
:102100005B6D03F00703052B3FF64EADA44AD55C8B
:102110005FE5A24B5B6D03F03803282B3FF644AD1F
:10212000A04AD55C55E5A04B6FE6002E00F0BF83BA
:10213000012E00F00084022E00F05384032E00F0E4
:10214000C584042E00F0EF84052E00F03985062E9C
:1021500000F08B85072EE6D0082E00F0C983092EEB
:1021600000F0DC830A2E00F04184904B904A0B2E45
:1021700018BF134649E64FF4004346E6874B5B6DB4
:1021800003F00703052B3FF60FAD8A4AD55C20E527
:102190004FF40045D4F8048008EB4803AB423FF607
:1021A00003ADB5EB083F3FF6FFAC202E00F2F28204
:1021B000012E7FF6F9AC023E1E2E3FF6F5AC01A3D0
:1021C00053F826F051270408A91B04083D270408EA
:1021D000A91B0408A91B0408A91B0408DB26040882
:1021E000A91B0408A91B0408A91B0408A91B0408AF
:1021F000A91B0408A91B0408A91B04086D260408D0
:10220000A91B0408A91B0408A91B0408A91B04088E
:10221000A91B0408A91B0408A91B0408A91B04087E
:10222000A91B0408A91B0408A91B0408A91B04086E
:10223000A91B0408A91B0408A91B0408D525040828
:102240005B08E2E54FF480306268002500EB520342
:10225000B3FBF2F39BB20DE703A8FFF7DFFA636A63
:10226000049D03B3012B00F0D182022B00F0C98240
:10227000032B00F0C382042B00F03383052B00F006
:102280002D83062B00F0B983072B00F03084082B38
:1022900000F06A84092B00F0A6840A2B00F0328536
:1022A0000B2B00F06782002D3FF47FAC72E7FFF745
:1022B00077FA3A4B1B6AC3F302133B4493F830306E
:1022C00003F01F0320FA03F5636A002BCAD1002D27
:1022D0003FF46BAC5EE7314B1A68950640F19D8286
:1022E0001B68334DC3F3C103DD4000293FF452AFF7
:1022F000012900F06383022900F05A83032900F0CA
:102300005483042900F04984052900F08B840629B0
:1023100000F00185072900F03485082900F0958533
:10232000092900F09D850A2900F0D7850B297FF443
:1023300031AF2D0A2EE76846FFF72EFB636A019D39
:10234000002B8FD1002D3FF430AC23E7002900F0A3
:102350006282012900F0D982022900F00983032951
:1023600000F03883042900F0A083052900F0D88309
:10237000062900F02C84072900F06984082900F060
:10238000DF84092900F015850A2900F0618543F6EC
:102390000955054B0B2918BF1D46FBE600440258A2
:1023A00064B10B0838B10B0800093D0090D0030060
:1023B0000090D00364B10B08FFF7F2F9A44AA54BD3
:1023C000D269C2F302121344626A93F8303003F008
:1023D0001F03D84002B3012A00F0AB82022A00F0AA
:1023E000F582032A00F06483042A00F09183052A11
:1023F00000F0CF83062A00F02584072A00F09B8492
:10240000082A00F0DD84092A00F0FB840A2A00F083
:102410002F850B2A08BF000A6268530803EB4003AC
:10242000B3FBF2F39BB225E6002E00F01A82012ED8
:1024300000F07B82022E00F0C482032E00F02F8376
:10244000042E00F06383052E00F09E83062E00F01C
:102450000684072E00F08584082E00F0AE84092E35
:1024600000F0D7840A2E00F0F78447F612237A4A48
:102470000B2E18BF13466268002503EB5203B3FB13
:10248000F2F39BB2F6E5724B1A68910640F1EB81CC
:102490001A68724BC2F3C10223FA02F206B3012E8C
:1024A00000F0BB82022E00F02A83032E00F064832A
:1024B000042E00F0B383052E00F01684062E00F0E3
:1024C0006B84072E00F09784082E00F0F384092E09
:1024D00000F0E6840A2E00F0E0840B2E08BF120AFA
:1024E000616800254B0803EB4203B3FBF1F39BB299
:1024F000C0E503A8FFF792F9626A049902B3012AC2
:1025000000F0F481022A00F00782032A00F04182E1
:10251000042A00F06982052A00F0E582062A00F00C
:102520000983072A00F07583082A00F08683092AA8
:1025300000F024840A2A00F055840B2A08BF090AF7
:1025400062680025530803EB4103B3FBF2F39BB22F
:1025500090E5FFF725F93E4A3E4BD269616AC2F326
:102560000222134493F8303003F01F03D84001B324
:10257000012900F0DC81022900F02A82032900F001
:102580009C82042900F0C082052900F012830629EC
:1025900000F06783072900F0DD83082900F0038439
:1025A000092900F04A840A2900F067840B2908BF32
:1025B000000A62680025530803EB4003B3FBF2F303
:1025C0009BB257E56846FFF7E7F9626A0199002A6E
:1025D000B6D094E7616A002900F02782012900F053
:1025E0001283022900F09C83032900F0CD83042983
:1025F00000F00484052900F06084062900F0658459
:10260000072900F05E84082900F0A984092900F058
:10261000A2840A2900F088841148124B0B2918BFA4
:10262000184600214FEA5803424618184FF000039D
:1026300041F100016FF0F6FFA0F540730A4A9342A2
:102640003FF6B2AA23680025D860FFF7AEBA00BFF4
:1026500000440258F8B00B0800127A000090D00332
:1026600000093D000000093DFFFC0F00B34A11685E
:1026700011F0200100F0DD8113680021B048C3F3A0
:10268000C103D840636A0BB3012B00F05783022BC0
:1026900000F09983032B00F0B783042B00F0EB8349
:1026A000052B00F01D84062B00F02384072B00F07F
:1026B0002A84082B00F02384092B00F048840A2B7D
:1026C00000F041840B2B01D1000A00210902030212
:1026D00041EA10614FEA5800A6E76846FFF75CF947
:1026E0000198636A002102460BB3012B00F09F8121
:1026F000022B00F01382032B00F05282042B00F017
:102700008F82052B00F02883062B00F04083072BD7
:1027100000F06F83082B00F0A983092B00F0A3833E
:102720000A2B00F0C4830B2B01D1100A0021626830
:102730000902030241EA1061500876E703A8FFF797
:102740006DF80498636A00210246002BEFD0CCE7B5
:10275000FFF726F8794A636A0021126AC2F302126F
:10276000174497F8302002F01F02D0400246002B99
:10277000DDD0BAE72D0A002D3FF417AA0AE56F4B0A
:102780005B6D03F00703052B3FF60EAA6D4AD55C7F
:10279000FFF71FBA402E7FF407AA616A002900F0F4
:1027A0004181012900F02582022900F06C82032971
:1027B00000F00F83042900F04383052900F06083B3
:1027C000062900F06683072900F05E83082900F0DF
:1027D000A683092900F09E830A2900F0A9830B290A
:1027E0004FF000010CBF4FF400404FF4000019E718
:1027F000554AA2FB03239B08FFF707BB524BA3FBE1
:102800000535AD08002D3FF4D0A9C3E46D08002DB7
:102810003FF4CBA9BEE44D4DBCE400295CD00129B6
:1028200000F0C980022900F0FA80032900F06981D4
:10283000042900F0AB81052900F0ED81062900F0A4
:102840001B820729E7D008295FD0092900F0908072
:102850000A2900F02A813E4D394B0B2918BF1D462D
:1028600098E43C4B07E6002E51D0012E00F0D380B7
:10287000022E00F04281032E00F07C81042E00F035
:10288000D681052E00F03B82062E00F0A582072E91
:10289000E7D0082E49D0092E00F093800A2E00F0D0
:1028A00035812D4B2D4A0B2E18BF1346E3E5244BE3
:1028B000FFF7ABBA244BA3FB00308008FFF73BBB0C
:1028C000214BA3FB00308008FFF76DBB244AA2FB1D
:1028D0000323DB08FFF799BA194D5BE4204BA3FBF8
:1028E0000535ED08002D3FF460A953E4490827E6BB
:1028F0001C4BFFF78ABA4008FFF71DBB4008FFF7E3
:1029000052BB4FF48043FFF780BA164D42E4134B9D
:10291000B1E54FF480453DE4890811E6124BFFF71D
:1029200074BA4FF40053FFF770BA084BA3E54008A0
:102930003FE6400870E50D4BFFF767BA00440258C8
:102940000090D00364B10B08ABAAAAAA00093D000D
:1029500090D0030000127A0020A107000020A107F8
:10296000CDCCCCCC80841E0040420F000048E80152
:10297000C74D0FE44FF400550CE4C64BA3FB0030E9
:10298000C008FFF710BBC34BA3FB0030C008FFF724
:10299000D2BAC14BA3FB01239908D1E541F25553AB
:1029A000FFF733BABD4BFFF730BABB4BA3FB05357E
:1029B000AD08FFF7EFBBBA4DFFF7ECBB6D08FFF7B3
:1029C000E9BBB84B57E54FF480403DE4800823E570
:1029D0008008EEE5B14DFFF7DDBB41F25555FFF73D
:1029E000D9BBB14BFFF711BAC908A9E5AF4BFFF747
:1029F0000CBA4FF48053FFF708BA0C23B5FBF3F57C
:102A0000002D3FF4D2A8FFF7C5BBA34AA2FB0323C6
:102A1000DB08FFF7FAB9A64B2DE5520860E5A24D99
:102A2000FFF7B8BB4FF40000FCE5A248FAE5400808
:102A30007DE6626A002A00F0A480012A00F09881F5
:102A4000022A00F0AE81032A00F0F281042A00F08D
:102A50004282052A00F03D82062A00F05982072AA8
:102A600000F05482082A00F06B82092A00F0658287
:102A70000A2A00F03B820B2A8F4A8D4B0EBF0021A1
:102A8000032113464FEA58004246C0184FF0000396
:102A900041F100016FF0C6FDA0F54073CEE5874B14
:102AA000E9E442F6AA20FFF7CFBB804DFFF772BBE7
:102AB000794BA3FB00239808AEE4774BA3FB0023DC
:102AC000980876E54FF48055FFF764BB7C4BFFF721
:102AD0009CB91B09FFF799B97A4BFFF796B940F6F5
:102AE000CC43FFF792B90A23B1FBF3F128E52D0996
:102AF000002D3FF45AA8FFF74DBB694BBBE4920889
:102B0000EEE46F4DFFF746BBC00852E5604BB2E400
:102B1000C00881E44FF40050FFF796BB800806E63A
:102B2000684DFFF737BB684BFFF76FB940F6CC45F0
:102B3000FFF730BB0C23B1FBF3F101E55B09FFF7B5
:102B400064B9624BFFF761B940F6AA23FFF75DB99C
:102B5000514BA3FB0030C008FFF725BA4E4BA3FB37
:102B60000030C008FFF7E7B96D09002D3FF41DA83C
:102B7000FFF710BB564B7EE4474BA3FB02239A089A
:102B8000AEE44D4B03217DE7524B74E44E4DFFF70D
:102B900001BB0A23B0FBF3F03EE4ED08FFF7FABAFD
:102BA000062200236FF03EFDC1E541F69810FFF7C5
:102BB0004BBB0A23B0FBF3F0FBE49B09FFF725B9FD
:102BC000454BFFF722B940F6AA25FFF7E3BA3F4D80
:102BD000FFF7E0BA0A22B3FBF2F3FFF716B94FF49E
:102BE0000063FFF712B9AD09002D3EF4DEAFFFF729
:102BF000D1BA4FF48000002114E50009FFF79BB91A
:102C0000364BFFF702B9364800210BE50009FFF704
:102C1000CAB9090994E4304DFFF7BCBAD2085FE4A1
:102C2000C00884E50A23B5FBF3F5FFF7B3BA1E4BE2
:102C300021E441F25450FFF707BB490980E4DB0966
:102C4000FFF7E3B80C23B0FBF3F0FFF7E5BB234D30
:102C5000FFF7A0BA0C22B3FBF2F3FFF7D6B80F4B85
:102C600009E40C23B0FBF3F0A3E41E4BFFF7CDB84F
:102C70004FF40065FFF78EBA1A4DFFF78BBA4FF489
:102C80008063FFF7C2B84FF400100021CAE400BF10
:102C900040420F00CDCCCCCCABAAAAAA2A2C0A0069
:102CA0000048E80180841E000024F40020A10700F1
:102CB0000090D0030000093D000090D0545814004B
:102CC000AAC2A200801A060000127A00151605009A
:102CD0005485450100350C0000A8610090D0030028
:102CE0000080841E556151000A23B2FBF3F2FFF706
:102CF000F7BB4009FFF757B99B4BFFF786B89B4BD3
:102D0000FFF7B9BBED09002D3EF44FAFFFF742BA14
:102D10004009FFF710B90C23B5FBF3F5FFF73ABAFA
:102D2000934800217EE44FF48050FFF78DBA4FF4B2
:102D30008065FFF72FBA0009FFF76EBB4008C5E4B6
:102D4000894DFFF727BA4FF22443FFF75EB8800999
:102D5000FFF729B900092CE40A2200236FF062FC76
:102D6000E5E4844BFFF787BB4FF40073FFF74DB8E2
:102D7000814B114686E68009FFF7DDB88909FFF728
:102D8000DFBB2D09FFF706BA7C4800214AE40C227C
:102D900000236FF047FCCAE40C23B2FBF3F2FFF709
:102DA0009FBB774B6EE6400903E44FF40075FFF7D5
:102DB000F1B94FF22445FFF7EDB9724BFFF75BBB5A
:102DC0004009FFF729BB800880E44FF40060FFF75B
:102DD0003BBA6D48002125E46C4BFFF74CBBC009A2
:102DE000FFF7A9B8C909FFF7ABBB4FF48073FFF732
:102DF0000CB800099BE41209FFF772BB644800217C
:102E000010E48009FFF708BB062200236FF00AFCDC
:102E10005CE4554BFFF72FBB4FF48060FFF714BA0B
:102E20004FF48075FFF7B6B947F61223FEF7EDBFF2
:102E3000584B27E6C009FFF7B6B88009FFF7B9BBC2
:102E40004FF480100021FFF7EDBB6D09FFF7A2B929
:102E500047F61225FFF79EB94FF22443FFF70BBB4D
:102E6000AD09FFF797B99009002160E440095EE4DD
:102E7000C009FFF7D1BAC00828E4C009FFF799BB21
:102E800045480021FFF7CEBB4FF400200021FFF79B
:102E9000C9BB42480021FFF7C5BBD209FFF720BBE1
:102EA0009209FFF71DBB4FF40070FFF7CDB9D009B1
:102EB00000213CE45209FFF713BB39480021FFF71A
:102EC000B1BB38480021FFF7ADBB37480021FFF701
:102ED000A9BB364BD6E5364BD4E5ED09FFF75AB919
:102EE0000A2200236FF09EFBFFF7F0BB284B002166
:102EF000C8E50C2200236FF095FBFFF7E7BB400904
:102F00000021FFF7E3BB0009FFF7E0BB294BB9E560
:102F1000294BB7E54FF400300021FFF783BB4FF496
:102F200080200021FFF77EBB24480021FFF77ABBF9
:102F30004FF480300021FFF775BB0D4B0021A1E558
:102F40001F4B00219EE5C0090021FFF7BFBB800990
:102F50000021FFF7BBBB1B480021FFF763BB1A48EA
:102F60000021FFF75FBB00BF48E801000050C3002D
:102F70000040420F20A10700000048E8002A2C0A68
:102F8000000024F490D0030000551500AAC2A2004E
:102F90000020A10700AAC2A200CC0C0000AA0A00CF
:102FA00000801A060090D003001516050000A861E5
:102FB0000000127A0000093D0055615100127A00AC
:102FC0000080841E0024F4000048E801374A936A18
:102FD00003F00303032B63D0136830B423F0806342
:102FE000334C1360256803E023685B1B022B54D825
:102FF00013681B01F8D4936A056823F47C3343EA11
:10300000053393628368C568013B013D5B022D0473
:103010009BB205F4FE052B434568013DC5F3080549
:103020002B430569013D2D0605F0FE452B439363B7
:10303000D36A456923F0C0032B43D362D36A856901
:1030400023F020032B43D362D36A23F01003D3620F
:10305000184BD56BC0692B4043EAC003D363D36AD6
:1030600043F01003D362D36AE1B101290CBF43F4EA
:10307000801343F40013D3620C4A136843F0806357
:103080001360216803E023685B1A022B05D81368DC
:103090001B01F8D5002030BC7047032030BC7047BE
:1030A0000120704743F40023D362E5E7004402584F
:1030B000802B00240700FFFF374A936A03F00303C5
:1030C000032B63D0136830B423F08053334C136068
:1030D000256803E023685B1B022B54D813689B0010
:1030E000F8D4936A056823F07C7343EA055393622E
:1030F0008368C568013B013D5B022D049BB205F46A
:10310000FE052B434568013DC5F308052B430569C2
:10311000013D2D0605F0FE452B431364D36A456936
:1031200023F440632B43D362D36A856923F400738D
:103130002B43D362D36A23F48073D362184B556C4C
:10314000C0692B4043EAC0035364D36A43F48073DD
:10315000D362D36AE1B101290CBF43F4000343F009
:103160008073D3620C4A136843F080531360216864
:1031700003E023685B1A022B05D813689B00F8D57F
:10318000002030BC7047032030BC704701207047DE
:1031900043F48003D362E5E700440258802B002407
:1031A0000700FFFF3F4AB0F1804F0368A0EB020227
:1031B000B2FA82F230B44FEA521223D012BB3A4C28
:1031C000A04247D004F58064A04243D004F5806457
:1031D000A04249D004F57844A04245D0334C344A4B
:1031E000904218BFA0424FD002F5806290424BD06F
:1031F0004D6923F080038C680A682B430360C46226
:10320000826223E04C6823F070032343294C041BA3
:10321000B4FA84F46409CD6823F440732B434D69F8
:1032200023F080032B4303608B68C3620B688362C7
:1032300052B94CB91D4A1E4B984218BF904203D058
:1032400003F58063984201D10B690363012330BC0D
:1032500043617047174C23F070034D68041B2B43E8
:10326000B4FA84F46409D6E74D6823F07003114C76
:103270002B43114D041BA842B4FA84F44FEA5414B2
:10328000C9D0002CC7D1A9E7CC6823F440734A69A0
:1032900023438C6823F0800313430A680360C462ED
:1032A0008262C7E700000140000400400040014086
:1032B0000044014000040140000C0040474B10B4A2
:1032C0001B68474CA4FB03435B0A03FB02F24AB1B1
:1032D000531E444C426B013B224201D0920407D55D
:1032E0005A1CF7D14FF0004318465DF8044B704765
:1032F000436B5C073DD4436B13F0010334D13A4B6D
:1033000083630369DBB2994231D14269374B134081
:10331000002BE9D0002A30DB510031D4940031D4A5
:10332000D00031D4110132D4540133D4D00134D47B
:10333000110235D4540236D4900240D4D1023BD489
:10334000540336D4900331D4D10344D414043FD46D
:1033500050043AD4910435D412F0080F14BF4FF43E
:1033600000034FF48033BFE701228263BCE70123EF
:10337000BAE7042213468263B6E74FF00073B3E75F
:103380004023B1E78023AFE74FF48073ACE74FF4FD
:103390000073A9E74FF48063A6E74FF40063A3E747
:1033A0004FF48053A0E74FF400539DE74FF4802380
:1033B0009AE74FF4003397E74FF4004394E74FF454
:1033C000804391E74FF480038EE74FF400138BE7BF
:1033D0004FF4801388E74FF4002385E700000024B2
:1033E000D34D621045002000C500200008E0FFFD1D
:1033F0000B4B01E0013B10D00269002AFADA0369A5
:10340000074A43F00103036101E0013A05D0036973
:1034100013F00103F9D1184670470320704700BF2D
:10342000400D030003682DE9F041C3F31005064683
:103430000C4635BB614A934274D902F5003293427F
:103440006FD902F50032934240F2AC8002F50032AF
:10345000934240F2A98002F50032934240F2A680E6
:1034600002F50032934240F2A38002F5003293420B
:1034700040F2A080B3F1016FC0F09E80052011F0F2
:103480008DF94F4F1D463A7E012A00F0828003F1EC
:1034900078434FF00108B3F5801F4FF0000387F821
:1034A0001880FB6133D302206AF050F900284CD118
:1034B000444A4FF00208D2F80C3143EA0803C2F83C
:1034C0000C31BFF36F8FBFF34F8F04F1200254F81C
:1034D000043B944245F8043BF9D1BFF36F8FBFF32F
:1034E0004F8F40466AF032F9B8F1010F354A54D097
:1034F000D2F80C3123F00203C2F80C3100233B76E2
:10350000002846D1336820333360BDE8F08140465F
:103510006AF01CF9C8B92B4AD36843F00203D360A0
:10352000CFE70125264F3B7E012B0BD04FF0010842
:103530000023404687F81880FB616AF007F950B114
:1035400000233B764FF0FF30DFE700236FF00100F0
:103550003B76BDE8F0814046DFF86880D8F80C3053
:1035600023F4E663C8F80C30D8F80C3043EA05259C
:1035700045F0A405C8F80C506AF0E8F8D8F80C201B
:10358000114B1340C8F80C300028D9D133681D46C0
:103590007DE76FF00100BDE8F081D36823F00203FE
:1035A000D360ABE70225BDE70325BBE70425B9E7F8
:1035B0000525B7E70625B5E70725B3E7FFFF0108AF
:1035C000802B002400200052FBF8FFFF0148FCF78D
:1035D0000BBF00BFA42B0024074810B4436A846DBE
:1035E00099691A6824B1234624305DF8044B1847C2
:1035F0005DF8044B704700BF802B00240148FCF7A6
:10360000F3BE00BFF42B0024074810B4436FD0F87A
:10361000A84099691A6824B1234674305DF8044BB8
:1036200018475DF8044B7047802B00240148FCF7D5
:10363000DBBE00BF442C0024084810B4D0F8C430CE
:10364000D0F8F84099691A6824B12346C4305DF86F
:10365000044B18475DF8044B704700BF802B0024D3
:103660002DE9F04FDFF874B300EB4004430083B062
:103670000BEB84040193A368002B00F06381804668
:10368000E08969F08FFB207B0EF0EEFA0646607B46
:103690000EF0EAFA08F101038146DBB2002E00F0D9
:1036A000888140F60C123372F280002800F06881A5
:1036B000037240F60C23C3803368B2889A61D9F84C
:1036C0000030B9F804209A611121304609270EF024
:1036D0007FFA112148460EF07BFA6525002E00F096
:1036E00034813268B3881169194200F02E811B04BD
:1036F000936110F035FD04460D4610F031FD001BBE
:1037000061EB0501052871F10003F6D316B13368AA
:10371000B2889A6110F024FD04460D4610F020FD99
:10372000001B61EB0501052871F10003F6D3013F91
:10373000D3D11EB1B38832681B04936110F010FD21
:1037400004460D4610F00CFD001B61EB0501052839
:1037500071F10003F6D3B9F1000F05D0B9F80430C8
:10376000D9F800201B04936110F0FAFC04460D46C2
:1037700010F0F6FC001B61EB0501052871F1000358
:10378000F6D316B13368B2889A6110F0E9FC0446AA
:103790000D4610F0E5FC001B61EB0501052871F1F9
:1037A0000003F6D3B9F1000F04D0D9F80030B9F80E
:1037B00004209A61019B30463E21834C03EB0806AE
:1037C0004FEA88050BEB8606F27C0EF027FAF27CB6
:1037D00048463E210EF022FAB26808EB880304EB5B
:1037E00003135A62794B9A4200F0C580FDF7D8FF67
:1037F000774BDA69C2F30212764B134493F83030F8
:1038000003F01F03D840019B43440BEB83031B7C55
:10381000022B00F0B980032B00F0BF80012B14BFF6
:103820004FF4C8714FF4487169F0FCFB05EB0803D5
:1038300004EB0313986205EB0803002204EB031367
:10384000DA62C3E90D22C3E9102201221A6393F858
:10385000652002F0FF01002A00F0A88005EB0802B5
:10386000242704EB0212D2E9093182F86570186846
:1038700021F0706120F0010018601961996821F44D
:10388000004199604FF40041996001F1007158685E
:1038900001435960D16BD868090220F40040D86018
:1038A000D96000211960186840F0010018602020DC
:1038B000916682F86500516582F8661092F865009D
:1038C0002028C6B217D192F86400012813D082F8DC
:1038D0006570186820F001001860186820F48050A6
:1038E000186018681860186840F00100186082F8C5
:1038F000656082F86410019B02210127364E434423
:1039000045440BEB830B04EB05149BF8120069F0A4
:103910007FFF9BF812309BF81100022103F01F0279
:103920005B0907FA02F246F8232069F071FF9BF861
:10393000113003F01F025B0907FA02F246F8232058
:1039400084F8207003B0BDE8F08F013D0DD010F079
:1039500007FC04468A4610F003FC001B61EB0A01D9
:10396000052871F10003F6D3B8E6002E3FF4C1AE8E
:103970003268B388BBE6FDF713FF154B1A6A39E7C7
:103980003368B2889A619FE6642169F04BFB05EBCE
:10399000080304EB031398624DE7C82169F042FB6A
:1039A00005EB080304EB0313986244E783F8641003
:1039B00054E700283FF488AE89F8083040F60C231D
:1039C000A9F806307BE600BF802B0024001C0058BD
:1039D00000440258F8B00B0800E100E000000024A9
:1039E0002DE9F04F441C83B09DF8346065D0044647
:1039F000BF4D00EB80004FEA840905EB001090F802
:103A00002080B8F1000F5AD0002B18BFFF2A0CBF3E
:103A1000012700273E4056D190F86560202E40F0E7
:103A2000C3809FB2002B00F0BC8090F86430012B63
:103A300000F0BA8001232E6880F86430406A04E008
:103A40002B689B1B192B00F20A81836913F4004336
:103A5000F6D109EB040A4FF0210E4FF0400C019211
:103A600005EB0A1B8BF865E0CBF858308BF866C085
:103A7000CBF868300C9BABF84E704F00CBF8483059
:103A8000436823F07F7323F4593323F47F7323F0C7
:103A9000030343EA4103974901EB0A1A9649194384
:103AA00041603146504669F027FE002840F084818D
:103AB000DBF82410019A8A628AE04FF00008404641
:103AC00003B0BDE8F08F90F86520202A6CD190F803
:103AD0006420012A68D00122D5F800A080F8642073
:103AE000426A05E02868A0EB0A00192800F26C8100
:103AF000906910F40040F5D14F0009EB04014FF03C
:103B0000210E1FFA83FC05EB01110C9B81F865E087
:103B10004FF0100E8B6481F866E08866A1F84EC005
:103B2000B1F84E3088659BB2FF2B40F28681536816
:103B30007248034072483B431843FF23A1F84C30BE
:103B4000506009EB04026B4B05EB021B019203EB87
:103B50000218BBF84E30514640469BB2002B00F095
:103B60007C8169F0C9FDF8B9DBF84820DBF8241046
:103B700012F8010BBBF84C308862CBF84820013BAF
:103B8000BBF84E209BB2013AABF84C3092B2ABF886
:103B90004E20BBF84E2092B2002BDAD1002AD8D0AA
:103BA00073E04FF400738366B5F810314FF00008EE
:103BB000204601339BB2A5F81031FFF751FD404676
:103BC00003B0BDE8F08F2A68921B0A2A00F2E78052
:103BD0008B6913F08003F6D009EB040205EB0212A7
:103BE000B2F84E309BB2FF2B40F2FE804B68454846
:103BF000034045483B431843FF23A2F84C3048603C
:103C000009EB040305EB031B019305E0BBF84E3001
:103C10009BB2002B00F0F8803146504669F06CFDF5
:103C20000028C1D1DBF84810DBF8242011F8010B83
:103C3000BBF84C309062CBF84810013BBBF84E10FB
:103C40009BB20139ABF84C3089B2ABF84E10BBF8DF
:103C50004E1089B2002BD9D10029D7D033E0A1442E
:103C60002021002205EB0919D9F8683089F8642071
:103C70000B43C9F8683089F8651089F8662093E726
:103C80002A68A2EB0A020A2A77D88B6913F080030C
:103C9000F6D0BBF84E309BB2FF2B47D94B681A4A7F
:103CA00023F07F7323F4583323F47F7323F003034B
:103CB0003B431A43FF23ABF84C304A6049E72B687B
:103CC0009B1B0A2B48D8906910F08000F7D0BBF8F6
:103CD0004E309BB2FF2B19D953680A490B400A4951
:103CE0003B431943FF23ABF84C3051608EE700BFD4
:103CF000802B0024A42B002400200181009800FCCC
:103D00000020FF81009C00FC0000FF01BBF84E304A
:103D100057489BB25168ABF84C30DBB2014047EAE0
:103D200003430B4343F0007353606FE7BBF84E301F
:103D30009BB2DAB2ABF84C304B6823F07F7323F4BC
:103D4000583323F47F7323F003033B4343EA0243D6
:103D500043F000734B60FCE6A14405EB0919D9F868
:103D6000683089F8640043F02003C9F868302023E4
:103D700089F8653089F8660016E7A1449C4605EB92
:103D80000919D9F8683089F864C043F02003C9F8EC
:103D90006830202389F8653089F866C004E71A4640
:103DA00009EB0403202005EB0313996E0143996688
:103DB00083F8650083F8662009EB0403002205EB15
:103DC000031383F86420EFE609EB040320200021AD
:103DD00005EB03139A6E83F8641002439A6683F826
:103DE000650083F86610DFE6B2F84E3020489BB2DB
:103DF000A2F84C30DBB24A6847EA0343024013435F
:103E000043F000734B60FBE63146504669F04AFCD4
:103E100000287FF4C9AE019B05EB0315DBF82420D5
:103E20002024144ED4615168314051608BF86540B4
:103E300085F864008BF8660041E6B1F84E300E4814
:103E40009BB2A1F84C30DBB2516847EA0343014012
:103E50000B430A491943516073E669F023FC0028BB
:103E60007FF4A2AE019BB04605EB0315D6E700BF79
:103E7000009C00FC00E800FE009800FC002000828E
:103E80002DE9F04F441C83B09DF834B000F045811B
:103E90000546BE4C00EB8000AE0004EB001090F82D
:103EA00020A0BAF1000F7DD0FF2A14BF4FF0000B05
:103EB0000BF0010BBBF1000F78D090F86520202AA1
:103EC00065D190F86420012A61D00122276880F82A
:103ED0006420406A04E02268D21B192A00F2238180
:103EE000826912F40042F6D14FEA410871194FF08D
:103EF000220C1FFA83FE04EB01110C9B81F865C0B4
:103F00004FF0100C8B6481F866C08A66A1F84EE011
:103F1000B1F84E308A659BB2FF2B00F21781B1F8E1
:103F20004E3042689BB2A1F84C30DBB2984948EA67
:103F300003430A401343974A1A4342607219964B4F
:103F400004EB0219019203EB021AB9F84E309BB24E
:103F5000002B00F0D881D9F824200BE0D9F82420D8
:103F6000916911F0200140F05B812368DB1B0A2B73
:103F700000F26F819369394650465B0700F1168164
:103F80009369DB06ECD569F04BFB0028E6D0B4F86A
:103F9000103128464FF0000A01339BB2A4F81031CB
:103FA000FFF75EFB504603B0BDE8F08F90F86570F8
:103FB000202FECD10C9F002F00F0C48090F864708B
:103FC000012FE4D00127D0F824C080F8647027685E
:103FD00004E02068C01B192800F2A580DCF8180056
:103FE00010F40040F5D106EB050E9BB24FF0220B0A
:103FF0004FF0400904EB0E18019288F865B088F87C
:1040000066904FEA4109C8F86800A8F84E300C9B4A
:10401000C8F85800C8F848305D48DCF80430034060
:1040200043EA41035C4901EB0E1B5C4919435846C6
:10403000CCF80410394669F05FFB002840F09E8000
:10404000D8F82410019A8A6204E02268D21B0A2A56
:1040500000F288808B6913F04003F6D0721904EBEC
:104060000212B2F84E309BB2FF2B40F275814B68C2
:10407000474803404A4843EA09031843FF23A2F88C
:104080004C3048607319474904EB03180193D8F882
:10409000240004E02268D21B0A2A00F2E780836928
:1040A00013F00403F6D0426AD8F848301A70B8F812
:1040B0004E30B8F84C20013B013A9BB292B2A8F8BE
:1040C0004E30D8F84830A8F84C200133C8F84830B2
:1040D000B8F84E309BB213B1002A00F0F680B8F861
:1040E0004E309BB2002BD2D13946584669F0DAFAED
:1040F00000287FF44CAF019B2B4D04EB0312D8F842
:1041000024302024DC6159682940596088F86540D2
:1041100082F8640088F8660044E74FF0000A5046D1
:1041200003B0BDE8F08F73192020002104EB0313C6
:104130009A6E83F8641002439A6683F8650083F8E8
:10414000661024E74FF40073836620E74368104A43
:104150001340134A43EA08031A43FF23A1F84C30E3
:104160004260EBE61A467319202004EB0313996EA4
:104170000143996683F8650083F86620731900226D
:1041800004EB031383F8642001E700BF802B0024B5
:10419000009800FC00240082A42B00240020018051
:1041A0000024FF81009C00FC00E800FE526AD9F860
:1041B00048301A70B9F84E30D9F84820013B013226
:1041C0009BB2C9F84820A9F84E30B9F84C30B9F87C
:1041D0004E20013B92B29BB2A9F84C30002B7FF4E9
:1041E000B4AE002A3FF4B1AED9F8241003E022683F
:1041F000D21B0A2A59D88B6913F08003F7D0B9F87B
:104200004E309BB2FF2B40D94B685B4A13405B4A50
:1042100043EA08031A43FF23A9F84C304A6094E6A6
:104220009369590703D5B9F84C30002BBED1202132
:1042300073195348D16104EB031356683040506042
:1042400000229A6683F8642083F8651083F866205C
:104250009DE62E4404EB0616B36E86F8641043F018
:104260002003B366202386F8653090E6721904EBCC
:104270000212916E82F8643041F020019166202193
:1042800082F8651082F8663081E6B9F84E303A4817
:104290009BB24A68A9F84C30DBB2024048EA0343BB
:1042A000134343F000734B604FE61946731904EB58
:1042B00003139A6E83F8641042F020029A6620225B
:1042C00083F8652083F8661061E6D8F8240003E0DF
:1042D0002268D21B0A2AC9D8836913F08003F7D059
:1042E000B8F84E309BB2FF2B27D94FF0FF03A8F848
:1042F0004C3043680B4043EA090343F0FF7343F437
:1043000080334360EBE63946504669F0CBF900282C
:104310007FF43DAE019B2025194EDA4604EB0314D1
:10432000D9F82430DD6159683140596089F8655009
:1043300084F8640089F8660034E6B8F84E304268C4
:104340009BB20A40A8F84C30DBB249EA034313435E
:1043500043F000734360C2E6B2F84E3009489BB2A6
:10436000A2F84C30DBB24A6849EA034302401343E7
:10437000054A1A434A6085E6009C00FC0000FF01E4
:1043800000E800FE009800FC002400820248836BD5
:104390000BB12C3018477047000000240248836D91
:1043A0000BB14C3018477047000000240248836F5F
:1043B0000BB16C3018477047000000240348D0F858
:1043C00098300BB18C301847704700BF00000024B4
:1043D0000348D0F8B8300BB1AC301847704700BF75
:1043E000000000240348D0F8D8300BB1CC30184777
:1043F000704700BF000000240348D0F8F8300BB12C
:10440000EC301847704700BF000000240348D0F884
:10441000183113B100F5867018477047000000246A
:104420000348D0F8383113B100F59670184770473B
:10443000000000240348D0F8583113B100F5A670ED
:1044400018477047000000240348D0F8783113B1B2
:1044500000F5B67018477047000000240348D0F8F4
:10446000983113B100F5C67018477047000000245A
:104470000348D0F8B83113B100F5D670184770472B
:10448000000000240348D0F8D83113B100F5E670DD
:1044900018477047000000240348D0F8F83113B1E2
:1044A00000F5F67018477047000000240348D0F864
:1044B000183213B100F5037018477047000000244C
:1044C00010B544688646464820401843CEF804009C
:1044D000DEF8000040F00100CEF80000DEF8000039
:1044E00040F40070CEF80000EBB140F2E930DEF8A5
:1044F0001440A40729D5002A46D012F8010B40F237
:10450000E93C8EF8200002E0BCF1010C3ED0DEF860
:104510001440E007F8D59EF83000C0B209B101F8A8
:10452000010B013BE1D1DEF814301B07FBD5DEF8AF
:104530001830012043F01003CEF81830DEF80030B8
:1045400023F00103CEF8003010BD0138CFD1254B48
:104550009E450CD0A3F578439E453DD003F580637E
:104560009E453BD003F578439E4533D1032000EBB5
:1045700040031D4A002002EBC302B2F8403201336F
:104580009BB2A2F8403210BDFF20B8E7154B9E4504
:104590000DD0A3F578439E4519D003F580639E4561
:1045A00012D003F578439E4514D14FF0030C0E4B07
:1045B0000CEB4C0C002003EBCC0CBCF8403201336C
:1045C0009BB2ACF8403210BD4FF0020CEFE74FF059
:1045D000010CECE7002010BD0120C8E70220C6E76F
:1045E0000000FFFF00300140000000242DE9F041F1
:1045F000314A82B0314D00240746036801E052F889
:104600003450AB420AD001340E2CF8D100212C4A90
:104610000520019109F0C4F9019B18E0294B03EB37
:104620008408D8F81461B6B178790021431C00EBF6
:10463000400203EB430306EBC202DB00D760C2E992
:104640000411F154182303FB006606F10803184611
:1046500002B0BDE8F0810721682009F095FAC8F89A
:10466000140100B36822314675F0F4FC1248D8F802
:104670001411334600EBC404104A8960096289634F
:1046800009650C6001E050F83320954205D00133F4
:104690000E2BF8D14E600E46C6E70B4E06EB831686
:1046A0004E600E46C0E701460190084A052009F019
:1046B00077F9019BCBE700BF74B10B080000014004
:1046C00088510C08802B0024CC2C0024B0510C08FD
:1046D000A8B14B6830B49BB18B68026803B34468DF
:1046E00002235268126881606079D16883400B436D
:1046F000D360D36843F00103D36030BC7047704788
:10470000D0E9002402238D6852686479126803FAA4
:1047100004F4D36823EA0403D3608DB18160E8E731
:104720005268022345681268D46824F00104D460FA
:1047300081606879D16883400B4330BCD360704797
:10474000D36823F00103D3608160D6E72DE9F043FD
:10475000002587B0382224482946244F244E254C72
:1047600075F078FC57F825103246002301E054F824
:104770003320914231D001330E2BF8D10020053582
:1047800068F010FB4B2DEDD1DFF860900025DFF8CD
:104790006C80194F09F5967699F8040009F114090F
:1047A0000DF062FA044698B103683B449B0A08EB9B
:1047B0004303B3F8EC0068F0F5FAA28802232068FE
:1047C00001A90595CDE90125CDE90335FCF786FE64
:1047D000B145E1D107B0BDE8F083084A02EBC3035D
:1047E000B3F88000CBE700BF942C00248C02002497
:1047F0000000014074B10B080000FEA7F8B00B08E0
:10480000F0B44468A37913F0020266D194460368B9
:1048100064795B689D48204493F83C40012C90F8F3
:10482000000158D0012483F83C40022483F83D4025
:1048300014284AD8DFE810F0550049004900490023
:104840008F004900490049003601490049004900EC
:10485000C400490049004900F700490049004900E7
:10486000150018688A4E046AB04224F48014046269
:10487000046A456824F4001444EA0252446D24F4A6
:10488000E04444F4C0440ED006F58066B0420AD03D
:10489000804F06F58046B04218BFB84203D006F5F7
:1048A0008066B04203D125F4003545F4802545608B
:1048B0004465C1650262426D42F400624265426D28
:1048C00022F480624265426D42650121002283F834
:1048D0003D1083F83C20F0BC704702224FF0080CDA
:1048E00095E718686C4D046A694E24F00104B042E3
:1048F0000462046A24F0020442EA040244688769FC
:1049000005EA070545F060050ED006F58066B04261
:104910000AD0604F06F58046B04218BFB84203D0B7
:1049200006F58066B04207D122F0080244F44074D4
:104930004CEA020C2CF0040244608561416302627F
:10494000826942F008028261826922F00402826177
:1049500082698261B9E71868504D046A4C4E24F0B0
:104960001004B0420462046A24F0200444EA0212F3
:104970004468876905EA070545F4C04500F0CB8027
:1049800006F58066B04200F0C680424F444EB04209
:1049900018BFB84203D006F58066B04201D144F496
:1049A00040644460856181630262826942F400620E
:1049B0008261826922F4806282618269826184E715
:1049C0001868334E046AB04224F480540462046AC6
:1049D000456824F4005444EA0232C46924F4E644ED
:1049E00044F4C0440ED006F58066B0420AD0294F88
:1049F00006F58046B04218BFB84203D006F580667F
:104A0000B04201D145F480454560C4610164026251
:104A1000C26942F40062C261C26922F48062C2616A
:104A2000C269C26151E71868194E046AB04224F4A1
:104A300080340462046A456824F4003444EA024283
:104A4000446D24F0700444F060040ED006F58066D6
:104A5000B0420AD00F4F06F58046B04218BFB842A8
:104A600003D006F58066B04201D145F4803545603B
:104A7000446581650262426D42F008024265426D02
:104A800022F004024265426D42651EE7F8B00B0851
:104A900000000140004001408CFFFEFFFF8CFFFE44
:104AA0000044014018681F4D046AA84224F4807431
:104AB0000462046A466824F4007444EA0222C46969
:104AC00024F0730444F060041ED005F58065A8420C
:104AD0001AD0154F154DA84218BFB84203D005F59E
:104AE0008065A84201D146F440564660C461C16366
:104AF0000262C26942F00802C261C26922F0040285
:104B0000C261C269C261E0E622F4006242EA0C229C
:104B100022F48062E7E722F0800242EA0C1222F0DF
:104B200040023CE7000001400040014000440140D9
:104B300042685379032B0FD8DFE803F00B08050216
:104B400010684030704710683C307047106838304B
:104B50007047106834307047002070474368016820
:104B60009A795B7912F0040F044A4868134493F869
:104B7000001101D06BF0D2BC6BF0F4BCF8B00B08A4
:104B8000F0B54468364A2469C368C4F303245B68FB
:104B900052F82460EFF31184102585F312884568DC
:104BA000304F95F805E0D0F80CC002EB4E02D5F876
:104BB00000E0128C02F4F055DEF80C2022EA050227
:104BC000CEF80C2017F806E0DCF8102053F80E5051
:104BD0001F2A25F0010543F80E5036D9203A20252A
:104BE000DCF804C005FA02F2CCF80C20E2B282F341
:104BF0001188BA5D1C4C03EB020C46684569DCF871
:104C000004703C400C43CCF804407179032924D84B
:104C1000DFE801F01815120231684031CCF80C5071
:104C20000124CCF80810995841F010019950995876
:104C3000214399500474F0BD31683C31EEE731688E
:104C40003831EBE731683431E8E72025DCF804C07F
:104C500005FA02F2CCF80820C8E70021DEE700BF21
:104C6000F8B00B085CB20B080000FFFF03681A7E67
:104C7000012A29D0002293F83010012904D1022101
:104C800042F4806283F8301093F84810012905D06F
:104C900093F8601001290AD072B97047022142F4DA
:104CA000006283F8481093F86010012904D10221B2
:104CB00042F4805283F860101B6800211B6859621F
:104CC000D9680A43DA60704702214FF400721976FE
:104CD000D1E700BF08B5204B98420ED003F58063A2
:104CE00098420AD01D4A03F58043984218BF90426B
:104CF00003D003F5806398421BD1FCF751FD184B9C
:104D00001849DA69DB69C2F30222C3F302230A44B9
:104D100092F8302002F01F02D040114A1269C2F30B
:104D2000C03243EAC2028B1893F8043103FB00F04F
:104D300008BDFCF735FD0A4B0A49DA69DB69C2F3A5
:104D4000021CC3F3021301EB0C0292F8302002F0B4
:104D50001F02D040E1E700BF0000014000400140D9
:104D600000440258F8B00B08D0E90030013904EED5
:104D7000902A1A68006870B584B05C6815688EB2B5
:104D8000FFF7A8FF07EE900AF8EE644A9FED5F7AFE
:104D9000F8EE677A87EEA40A30EE070A70F0C0F9E1
:104DA00023680138AB4280B27FD00023802194F881
:104DB0003D20E660A360A161C4E90050C4E904336A
:104DC000002A7BD00223211D284684F83D30FEF7BF
:104DD000E9F94F4B01229D4284F83D2014D0B5F1F2
:104DE000804F11D0A3F57C439D420DD003F5806325
:104DF0009D4209D003F580639D4266D003F5784358
:104E00009D4262D004B070BD94F83C3000224FF453
:104E10008051012BCDE90012CDE90222F2D02368A6
:104E200002203C4984F83D009868014001209960C7
:104E300084F83D0084F83C2094F83C1000220129BD
:104E40000292CDE90022DDD0314A0221934284F85A
:104E50003D105868996834D002F58062934230D092
:104E60002D4A20F07000B3F1804F18BF9342586074
:104E70002A480CBF01220022834208BF42F00102EF
:104E800000F58060834208BF42F0010212B9244A53
:104E9000934202D121F0800199600122002384F81D
:104EA0003D2084F83C3004B070BD636883427FF4D9
:104EB0007CAFE368B3427FF478AFA3E784F83C208B
:104EC00080E7184A02405A60E4E794F83C30002139
:104ED0004FF48052012BCDE90021CDE9021191D090
:104EE0002368022284F83D200A4A98680240012083
:104EF0009A600D4A84F83C10954284F83D009BD09E
:104F0000A2F5784295427FF47DAF95E70AD7233C1E
:104F1000000001408800CEFF00040040000800406F
:104F2000001800408FFF0FFF00040140024B0348B0
:104F3000D3F81411FCF784B9802B00240000014041
:104F4000034B4FF08040D3F81811FCF779B900BF3C
:104F5000802B0024024B0348D3F81C11FCF770B9D6
:104F6000802B002400040040024B0348D3F820119A
:104F7000FCF766B9802B002400080040024B034870
:104F8000D3F82411FCF75CB9802B0024000C0040FE
:104F9000024B0348D3F83011FCF752B9802B0024A0
:104FA00000040140024B0348D3F84011FCF748B914
:104FB000802B002400180040024B0348D3F84C110A
:104FC000FCF73EB9802B002400400140024B03480F
:104FD000D3F85011FCF734B9802B00240044014071
:104FE000024B0348D3F85411FCF72AB9802B002454
:104FF0000048014010B5064C0648D4F83011FCF7C3
:105000001FF9D4F844110448BDE81040FCF718B962
:10501000802B002400040140001C004010B5064C09
:105020000648D4F83011FCF70BF9D4F848110448BD
:10503000BDE81040FCF704B9802B002400040140B7
:1050400000200040BFF34F8F0549064BCA6802F4A9
:10505000E0621343CB60BFF34F8F00BFFDE700BF9B
:1050600000ED00E00400FA050021012008B50DF074
:105070009BFA72B6FFF7E6FF2DE9F043BDB0BFF330
:105080005F8F8A4C0021626A0B460D4622F4803203
:1050900062620A46C4F89410C4F898300133C4F828
:1050A0009C20112BC4F8A020F6D10523C4F894301D
:1050B000636A43F480336362BFF34F8FBFF36F8F34
:1050C0007B487C4A7C49121A72F01EFED4F8882074
:1050D0007A4B012142F47002C4F8882019601D61E6
:1050E0001A6842F080021A601A680A431A601A6845
:1050F00042F480321A601A6842F480521A609D614C
:10510000DD611D629D62DD621D635D639D63DD6324
:105110001D645D641A6822F480221A601D664FF0D7
:105120000063674AC2F80811A3606CF095F9654AFC
:10513000D36813F0040FD36840F0A380624B0021C2
:10514000604A0391D96A21F00101D962DB6A03F058
:1051500001030393936943F440439361936903F418
:1051600040430393039B93699E04FCD54C2200218A
:105170000DA8564C74F06EFF554A42F2030304F139
:1051800010011268B3EB124F4FF000024FF004030E
:1051900018BF0C460792E268A370002A4CD1494A16
:1051A000494B916941F440419161926902F4404256
:1051B0000792DA6A42F00102DA62DB6A03F0010365
:1051C0000793079B3F4A93699D04FCD53B4B4FF4E3
:1051D000403140480126D3F8E020002542F080020B
:1051E000C3F8E020D3F8E03003F0800306930323F4
:1051F000069A816108A908930B93CDE90965FCF72C
:105200006DF94FF4803308220DA80E9302231D92EE
:10521000E2790D961E95CDE91633A3781893A388ED
:105220001993A3791A93237ACDE91B23FBF76EFA1E
:10523000032838D0A0B1FEE7234BD96A21F0010141
:10524000D962DB6A1F4903F0010307938B6923F4DA
:10525000404313438B618B6903F440430793B0E7EA
:105260001D4B1A6812F00E0F3AD11A6822F00F0285
:1052700042F002021A601B6803F00F03022B2FD0CA
:10528000FEE723F00703154C43F00203D3602168C7
:1052900005E023685B1AB3F57A7F3FF64FAF53689A
:1052A0009F04F6D54AE7FFF7DFFE00BF00ED00E000
:1052B00000000000A030000034CA0C08004402586E
:1052C000008000510048025800040058B803002430
:1052D0000010005C001C025800200052802B0024AB
:1052E0006B4A936903F070033F2B05D8936923F051
:1052F000700343F040039361654AD36903F0700380
:105300003F2B05D8D36923F0700343F04003D361EA
:105310005F4AD36903F4E063B3F5806F05D2D369C4
:1053200023F4E06343F48063D361594A136A03F0C2
:1053300070033F2B05D8136A23F0700343F040033A
:105340001362534B9A69140705D49A6922F00F022D
:1053500042F008029A614E4A936923F470639361A4
:10536000136898018CD5136941F28830494C23F0B9
:10537000070343F003031361216804E023685B1A09
:10538000834200F29D81136903F03803182BF5D195
:10539000936903F00F03082B05D9936923F00F03DA
:1053A00043F0080393613C4A136803F00F03022B98
:1053B0000BD9136823F00F0343F002031360136843
:1053C00003F00F03022B00D05AE7314A936903F030
:1053D0007003402B05D9936923F0700343F0400319
:1053E00093612B4AD36903F07003402B05D9D3692D
:1053F00023F0700343F04003D361254AD36903F4DB
:10540000E063B3F5806F05D9D36923F4E06343F417
:105410008063D3611E4A136A03F07003402B00F2CD
:1054200047811B4EFCF79AF91C4BB2691C4DC2F325
:105430000322134493F8303003F01F03D840286050
:105440006868FBF799FF002840F03B811023149017
:1054500016900DA80D93FBF759F9002840F027810D
:105460003368104943F080033360D6F8F43043F0DA
:105470000203C6F8F430D6F8F43003F002030293C6
:10548000029B0A6A084B42F001020A62216810E09E
:1054900000440258802B002400200052F8B00B0872
:1054A000000000240004005880380100013B3FF454
:1054B000FAAE22689142F9D0226823689B1A0A2B1F
:1054C000FBD94FF48023A24C0DA84FF000080D9398
:1054D0004FF44013032602272E936BF0BDFAD4F845
:1054E000EC300DA843F00203C4F8EC30D4F8EC30F3
:1054F00003F002030193019BD4F8943043F00203BC
:10550000C4F89430D4F8943023F00203C4F89430F3
:10551000904B1A6841F20303B3EB124F8E4B8F4A44
:1055200038BF1A468E4B5A601A6822F47C5242F4F5
:1055300000521A601A6842F060021A600D96CDE9B6
:105540002A886BF089FA4FF4E0430DA8CDF8E0808B
:105550000D93CDE924886BF07FFA18230DA8CDF8C0
:10556000B4800D93CDF8C8806BF076FA4FF4803399
:1055700005210DA811960D9320934FF4FA73CDF8E1
:1055800054801097CDE90E130423CDE913881293AC
:105590006BF062FAD4F8E03008A9724843F00103D6
:1055A000C4F8E030D4F8E030099703F001030B961B
:1055B000CDF828800593059B4FF48073CDF830809B
:1055C0000893FBF78BFF236900F5006023F0FE735F
:1055D00043F088732361D4F8E03043F00403C4F847
:1055E000E030D4F8E030099703F004030B96CDF8CF
:1055F000288004934FF40073049A0893CDF8308008
:10560000FBF76CFF236923F07E4343F0FC432361E7
:10561000FCF7A4F82860BFF35F8F534D4646534C08
:1056200001276B6A23F480336B62C5F8948023E012
:10563000002944D0D4F80090637A103414F8060C92
:105640001B0643EA007343EA410314F8051C43EACE
:10565000814314F8041C43EA414314F8031CC5F8C1
:105660009860013643EA0143C5F89C90032E43F04D
:105670000103C5F8A03025D06368217A002BD7D06C
:10568000D4F800900029D7D129F01F08A3EB080314
:10569000202B38BF20231846984672F02FFB431E5C
